{
  "_format": "hh-sol-artifact-1",
  "contractName": "EIP4337Fallback",
  "sourceName": "contracts/samples/gnosis/EIP4337Fallback.sol",
  "abi": [
    {
      "inputs": [
        {
          "internalType": "address",
          "name": "_eip4337manager",
          "type": "address"
        }
      ],
      "stateMutability": "nonpayable",
      "type": "constructor"
    },
    {
      "inputs": [],
      "name": "NAME",
      "outputs": [
        {
          "internalType": "string",
          "name": "",
          "type": "string"
        }
      ],
      "stateMutability": "view",
      "type": "function"
    },
    {
      "inputs": [],
      "name": "VERSION",
      "outputs": [
        {
          "internalType": "string",
          "name": "",
          "type": "string"
        }
      ],
      "stateMutability": "view",
      "type": "function"
    },
    {
      "inputs": [],
      "name": "eip4337manager",
      "outputs": [
        {
          "internalType": "address",
          "name": "",
          "type": "address"
        }
      ],
      "stateMutability": "view",
      "type": "function"
    },
    {
      "inputs": [
        {
          "internalType": "address",
          "name": "",
          "type": "address"
        },
        {
          "internalType": "uint256",
          "name": "",
          "type": "uint256"
        },
        {
          "internalType": "bytes",
          "name": "",
          "type": "bytes"
        },
        {
          "internalType": "enum Enum.Operation",
          "name": "",
          "type": "uint8"
        }
      ],
      "name": "executeAndRevert",
      "outputs": [],
      "stateMutability": "nonpayable",
      "type": "function"
    },
    {
      "inputs": [],
      "name": "getNonce",
      "outputs": [
        {
          "internalType": "uint256",
          "name": "nonce",
          "type": "uint256"
        }
      ],
      "stateMutability": "nonpayable",
      "type": "function"
    },
    {
      "inputs": [
        {
          "internalType": "bytes32",
          "name": "_hash",
          "type": "bytes32"
        },
        {
          "internalType": "bytes",
          "name": "_signature",
          "type": "bytes"
        }
      ],
      "name": "isValidSignature",
      "outputs": [
        {
          "internalType": "bytes4",
          "name": "",
          "type": "bytes4"
        }
      ],
      "stateMutability": "view",
      "type": "function"
    },
    {
      "inputs": [
        {
          "internalType": "address",
          "name": "",
          "type": "address"
        },
        {
          "internalType": "address",
          "name": "",
          "type": "address"
        },
        {
          "internalType": "uint256[]",
          "name": "",
          "type": "uint256[]"
        },
        {
          "internalType": "uint256[]",
          "name": "",
          "type": "uint256[]"
        },
        {
          "internalType": "bytes",
          "name": "",
          "type": "bytes"
        }
      ],
      "name": "onERC1155BatchReceived",
      "outputs": [
        {
          "internalType": "bytes4",
          "name": "",
          "type": "bytes4"
        }
      ],
      "stateMutability": "pure",
      "type": "function"
    },
    {
      "inputs": [
        {
          "internalType": "address",
          "name": "",
          "type": "address"
        },
        {
          "internalType": "address",
          "name": "",
          "type": "address"
        },
        {
          "internalType": "uint256",
          "name": "",
          "type": "uint256"
        },
        {
          "internalType": "uint256",
          "name": "",
          "type": "uint256"
        },
        {
          "internalType": "bytes",
          "name": "",
          "type": "bytes"
        }
      ],
      "name": "onERC1155Received",
      "outputs": [
        {
          "internalType": "bytes4",
          "name": "",
          "type": "bytes4"
        }
      ],
      "stateMutability": "pure",
      "type": "function"
    },
    {
      "inputs": [
        {
          "internalType": "address",
          "name": "",
          "type": "address"
        },
        {
          "internalType": "address",
          "name": "",
          "type": "address"
        },
        {
          "internalType": "uint256",
          "name": "",
          "type": "uint256"
        },
        {
          "internalType": "bytes",
          "name": "",
          "type": "bytes"
        }
      ],
      "name": "onERC721Received",
      "outputs": [
        {
          "internalType": "bytes4",
          "name": "",
          "type": "bytes4"
        }
      ],
      "stateMutability": "pure",
      "type": "function"
    },
    {
      "inputs": [
        {
          "internalType": "bytes4",
          "name": "interfaceId",
          "type": "bytes4"
        }
      ],
      "name": "supportsInterface",
      "outputs": [
        {
          "internalType": "bool",
          "name": "",
          "type": "bool"
        }
      ],
      "stateMutability": "view",
      "type": "function"
    },
    {
      "inputs": [
        {
          "internalType": "address",
          "name": "",
          "type": "address"
        },
        {
          "internalType": "address",
          "name": "",
          "type": "address"
        },
        {
          "internalType": "address",
          "name": "",
          "type": "address"
        },
        {
          "internalType": "uint256",
          "name": "",
          "type": "uint256"
        },
        {
          "internalType": "bytes",
          "name": "",
          "type": "bytes"
        },
        {
          "internalType": "bytes",
          "name": "",
          "type": "bytes"
        }
      ],
      "name": "tokensReceived",
      "outputs": [],
      "stateMutability": "pure",
      "type": "function"
    },
    {
      "inputs": [
        {
          "components": [
            {
              "internalType": "address",
              "name": "sender",
              "type": "address"
            },
            {
              "internalType": "uint256",
              "name": "nonce",
              "type": "uint256"
            },
            {
              "internalType": "bytes",
              "name": "initCode",
              "type": "bytes"
            },
            {
              "internalType": "bytes",
              "name": "callData",
              "type": "bytes"
            },
            {
              "internalType": "uint256",
              "name": "callGasLimit",
              "type": "uint256"
            },
            {
              "internalType": "uint256",
              "name": "verificationGasLimit",
              "type": "uint256"
            },
            {
              "internalType": "uint256",
              "name": "preVerificationGas",
              "type": "uint256"
            },
            {
              "internalType": "uint256",
              "name": "maxFeePerGas",
              "type": "uint256"
            },
            {
              "internalType": "uint256",
              "name": "maxPriorityFeePerGas",
              "type": "uint256"
            },
            {
              "internalType": "bytes",
              "name": "paymasterAndData",
              "type": "bytes"
            },
            {
              "internalType": "bytes",
              "name": "signature",
              "type": "bytes"
            }
          ],
          "internalType": "struct UserOperation",
          "name": "",
          "type": "tuple"
        },
        {
          "internalType": "bytes32",
          "name": "",
          "type": "bytes32"
        },
        {
          "internalType": "uint256",
          "name": "",
          "type": "uint256"
        }
      ],
      "name": "validateUserOp",
      "outputs": [
        {
          "internalType": "uint256",
          "name": "deadline",
          "type": "uint256"
        }
      ],
      "stateMutability": "nonpayable",
      "type": "function"
    }
  ],
  "bytecode": "0x60a06040523480156200001157600080fd5b506040516200193b3803806200193b8339818101604052810190620000379190620000dc565b8073ffffffffffffffffffffffffffffffffffffffff1660808173ffffffffffffffffffffffffffffffffffffffff1681525050506200010e565b600080fd5b600073ffffffffffffffffffffffffffffffffffffffff82169050919050565b6000620000a48262000077565b9050919050565b620000b68162000097565b8114620000c257600080fd5b50565b600081519050620000d681620000ab565b92915050565b600060208284031215620000f557620000f462000072565b5b60006200010584828501620000c5565b91505092915050565b60805161180a62000131600039600081816104b20152610654015261180a6000f3fe608060405234801561001057600080fd5b50600436106100b35760003560e01c8063940d3c6011610071578063940d3c60146101b2578063a3f4df7e146101ce578063bc197c81146101ec578063d087d2881461021c578063f23a6e611461023a578063ffa1ad741461026a576100b3565b806223de29146100b857806301ffc9a7146100d4578063150b7a02146101045780631626ba7e146101345780632bcadc24146101645780633a871cdd14610182575b600080fd5b6100d260048036038101906100cd9190610aa1565b610288565b005b6100ee60048036038101906100e99190610bc8565b610292565b6040516100fb9190610c10565b60405180910390f35b61011e60048036038101906101199190610c2b565b6103cc565b60405161012b9190610cc2565b60405180910390f35b61014e60048036038101906101499190610e54565b6103e1565b60405161015b9190610cc2565b60405180910390f35b61016c6104b0565b6040516101799190610ebf565b60405180910390f35b61019c60048036038101906101979190610eff565b6104d4565b6040516101a99190610f7d565b60405180910390f35b6101cc60048036038101906101c79190610fbd565b6104ff565b005b6101d661050e565b6040516101e391906110bf565b60405180910390f35b61020660048036038101906102019190611137565b610547565b6040516102139190610cc2565b60405180910390f35b61022461055f565b6040516102319190610f7d565b60405180910390f35b610254600480360381019061024f9190611213565b610586565b6040516102619190610cc2565b60405180910390f35b61027261059c565b60405161027f91906110bf565b60405180910390f35b5050505050505050565b60007f4e2312e0000000000000000000000000000000000000000000000000000000007bffffffffffffffffffffffffffffffffffffffffffffffffffffffff1916827bffffffffffffffffffffffffffffffffffffffffffffffffffffffff1916148061035d57507f150b7a02000000000000000000000000000000000000000000000000000000007bffffffffffffffffffffffffffffffffffffffffffffffffffffffff1916827bffffffffffffffffffffffffffffffffffffffffffffffffffffffff1916145b806103c557507f01ffc9a7000000000000000000000000000000000000000000000000000000007bffffffffffffffffffffffffffffffffffffffffffffffffffffffff1916827bffffffffffffffffffffffffffffffffffffffffffffffffffffffff1916145b9050919050565b600063150b7a0260e01b905095945050505050565b6000806103ed846105d5565b90506000610404848361060590919063ffffffff16565b905060003390508073ffffffffffffffffffffffffffffffffffffffff16632f54bf6e836040518263ffffffff1660e01b81526004016104449190610ebf565b602060405180830381865afa158015610461573d6000803e3d6000fd5b505050506040513d601f19601f8201168201806040525081019061048591906112d9565b1561049c57631626ba7e60e01b93505050506104aa565b63ffffffff60e01b93505050505b92915050565b7f000000000000000000000000000000000000000000000000000000000000000081565b6000806104df61062c565b9050808060200190518101906104f5919061131b565b9150509392505050565b61050761062c565b5050505050565b6040518060400160405280601881526020017f44656661756c742043616c6c6261636b2048616e646c6572000000000000000081525081565b600063bc197c8160e01b905098975050505050505050565b60008061056a61062c565b905080806020019051810190610580919061131b565b91505090565b600063f23a6e6160e01b90509695505050505050565b6040518060400160405280600581526020017f312e302e3000000000000000000000000000000000000000000000000000000081525081565b6000816040516020016105e891906113c0565b604051602081830303815290604052805190602001209050919050565b600080600061061485856106fb565b915091506106218161074c565b819250505092915050565b606060003390506000808273ffffffffffffffffffffffffffffffffffffffff16635229073f7f00000000000000000000000000000000000000000000000000000000000000006000803660016040518663ffffffff1660e01b81526004016106999594939291906114e0565b6000604051808303816000875af11580156106b8573d6000803e3d6000fd5b505050506040513d6000823e3d601f19601f820116820180604052508101906106e1919061159e565b91509150816106f257805160208201fd5b80935050505090565b600080604183510361073c5760008060006020860151925060408601519150606086015160001a9050610730878285856108b2565b94509450505050610745565b60006002915091505b9250929050565b600060048111156107605761075f611469565b5b81600481111561077357610772611469565b5b03156108af576001600481111561078d5761078c611469565b5b8160048111156107a05761079f611469565b5b036107e0576040517f08c379a00000000000000000000000000000000000000000000000000000000081526004016107d790611646565b60405180910390fd5b600260048111156107f4576107f3611469565b5b81600481111561080757610806611469565b5b03610847576040517f08c379a000000000000000000000000000000000000000000000000000000000815260040161083e906116b2565b60405180910390fd5b6003600481111561085b5761085a611469565b5b81600481111561086e5761086d611469565b5b036108ae576040517f08c379a00000000000000000000000000000000000000000000000000000000081526004016108a590611744565b60405180910390fd5b5b50565b6000807f7fffffffffffffffffffffffffffffff5d576e7357a4501ddfe92f46681b20a08360001c11156108ed57600060039150915061098b565b600060018787878760405160008152602001604052604051610912949392919061178f565b6020604051602081039080840390855afa158015610934573d6000803e3d6000fd5b505050602060405103519050600073ffffffffffffffffffffffffffffffffffffffff168173ffffffffffffffffffffffffffffffffffffffff16036109825760006001925092505061098b565b80600092509250505b94509492505050565b6000604051905090565b600080fd5b600080fd5b600073ffffffffffffffffffffffffffffffffffffffff82169050919050565b60006109d3826109a8565b9050919050565b6109e3816109c8565b81146109ee57600080fd5b50565b600081359050610a00816109da565b92915050565b6000819050919050565b610a1981610a06565b8114610a2457600080fd5b50565b600081359050610a3681610a10565b92915050565b600080fd5b600080fd5b600080fd5b60008083601f840112610a6157610a60610a3c565b5b8235905067ffffffffffffffff811115610a7e57610a7d610a41565b5b602083019150836001820283011115610a9a57610a99610a46565b5b9250929050565b60008060008060008060008060c0898b031215610ac157610ac061099e565b5b6000610acf8b828c016109f1565b9850506020610ae08b828c016109f1565b9750506040610af18b828c016109f1565b9650506060610b028b828c01610a27565b955050608089013567ffffffffffffffff811115610b2357610b226109a3565b5b610b2f8b828c01610a4b565b945094505060a089013567ffffffffffffffff811115610b5257610b516109a3565b5b610b5e8b828c01610a4b565b92509250509295985092959890939650565b60007fffffffff0000000000000000000000000000000000000000000000000000000082169050919050565b610ba581610b70565b8114610bb057600080fd5b50565b600081359050610bc281610b9c565b92915050565b600060208284031215610bde57610bdd61099e565b5b6000610bec84828501610bb3565b91505092915050565b60008115159050919050565b610c0a81610bf5565b82525050565b6000602082019050610c256000830184610c01565b92915050565b600080600080600060808688031215610c4757610c4661099e565b5b6000610c55888289016109f1565b9550506020610c66888289016109f1565b9450506040610c7788828901610a27565b935050606086013567ffffffffffffffff811115610c9857610c976109a3565b5b610ca488828901610a4b565b92509250509295509295909350565b610cbc81610b70565b82525050565b6000602082019050610cd76000830184610cb3565b92915050565b6000819050919050565b610cf081610cdd565b8114610cfb57600080fd5b50565b600081359050610d0d81610ce7565b92915050565b600080fd5b6000601f19601f8301169050919050565b7f4e487b7100000000000000000000000000000000000000000000000000000000600052604160045260246000fd5b610d6182610d18565b810181811067ffffffffffffffff82111715610d8057610d7f610d29565b5b80604052505050565b6000610d93610994565b9050610d9f8282610d58565b919050565b600067ffffffffffffffff821115610dbf57610dbe610d29565b5b610dc882610d18565b9050602081019050919050565b82818337600083830152505050565b6000610df7610df284610da4565b610d89565b905082815260208101848484011115610e1357610e12610d13565b5b610e1e848285610dd5565b509392505050565b600082601f830112610e3b57610e3a610a3c565b5b8135610e4b848260208601610de4565b91505092915050565b60008060408385031215610e6b57610e6a61099e565b5b6000610e7985828601610cfe565b925050602083013567ffffffffffffffff811115610e9a57610e996109a3565b5b610ea685828601610e26565b9150509250929050565b610eb9816109c8565b82525050565b6000602082019050610ed46000830184610eb0565b92915050565b600080fd5b60006101608284031215610ef657610ef5610eda565b5b81905092915050565b600080600060608486031215610f1857610f1761099e565b5b600084013567ffffffffffffffff811115610f3657610f356109a3565b5b610f4286828701610edf565b9350506020610f5386828701610cfe565b9250506040610f6486828701610a27565b9150509250925092565b610f7781610a06565b82525050565b6000602082019050610f926000830184610f6e565b92915050565b60028110610fa557600080fd5b50565b600081359050610fb781610f98565b92915050565b60008060008060808587031215610fd757610fd661099e565b5b6000610fe5878288016109f1565b9450506020610ff687828801610a27565b935050604085013567ffffffffffffffff811115611017576110166109a3565b5b61102387828801610e26565b925050606061103487828801610fa8565b91505092959194509250565b600081519050919050565b600082825260208201905092915050565b60005b8381101561107a57808201518184015260208101905061105f565b60008484015250505050565b600061109182611040565b61109b818561104b565b93506110ab81856020860161105c565b6110b481610d18565b840191505092915050565b600060208201905081810360008301526110d98184611086565b905092915050565b60008083601f8401126110f7576110f6610a3c565b5b8235905067ffffffffffffffff81111561111457611113610a41565b5b6020830191508360208202830111156111305761112f610a46565b5b9250929050565b60008060008060008060008060a0898b0312156111575761115661099e565b5b60006111658b828c016109f1565b98505060206111768b828c016109f1565b975050604089013567ffffffffffffffff811115611197576111966109a3565b5b6111a38b828c016110e1565b9650965050606089013567ffffffffffffffff8111156111c6576111c56109a3565b5b6111d28b828c016110e1565b9450945050608089013567ffffffffffffffff8111156111f5576111f46109a3565b5b6112018b828c01610a4b565b92509250509295985092959890939650565b60008060008060008060a087890312156112305761122f61099e565b5b600061123e89828a016109f1565b965050602061124f89828a016109f1565b955050604061126089828a01610a27565b945050606061127189828a01610a27565b935050608087013567ffffffffffffffff811115611292576112916109a3565b5b61129e89828a01610a4b565b92509250509295509295509295565b6112b681610bf5565b81146112c157600080fd5b50565b6000815190506112d3816112ad565b92915050565b6000602082840312156112ef576112ee61099e565b5b60006112fd848285016112c4565b91505092915050565b60008151905061131581610a10565b92915050565b6000602082840312156113315761133061099e565b5b600061133f84828501611306565b91505092915050565b600081905092915050565b7f19457468657265756d205369676e6564204d6573736167653a0a333200000000600082015250565b6000611389601c83611348565b915061139482611353565b601c82019050919050565b6000819050919050565b6113ba6113b582610cdd565b61139f565b82525050565b60006113cb8261137c565b91506113d782846113a9565b60208201915081905092915050565b6000819050919050565b6000819050919050565b600061141561141061140b846113e6565b6113f0565b610a06565b9050919050565b611425816113fa565b82525050565b600082825260208201905092915050565b6000611448838561142b565b9350611455838584610dd5565b61145e83610d18565b840190509392505050565b7f4e487b7100000000000000000000000000000000000000000000000000000000600052602160045260246000fd5b600281106114a9576114a8611469565b5b50565b60008190506114ba82611498565b919050565b60006114ca826114ac565b9050919050565b6114da816114bf565b82525050565b60006080820190506114f56000830188610eb0565b611502602083018761141c565b818103604083015261151581858761143c565b905061152460608301846114d1565b9695505050505050565b600061154161153c84610da4565b610d89565b90508281526020810184848401111561155d5761155c610d13565b5b61156884828561105c565b509392505050565b600082601f83011261158557611584610a3c565b5b815161159584826020860161152e565b91505092915050565b600080604083850312156115b5576115b461099e565b5b60006115c3858286016112c4565b925050602083015167ffffffffffffffff8111156115e4576115e36109a3565b5b6115f085828601611570565b9150509250929050565b7f45434453413a20696e76616c6964207369676e61747572650000000000000000600082015250565b600061163060188361104b565b915061163b826115fa565b602082019050919050565b6000602082019050818103600083015261165f81611623565b9050919050565b7f45434453413a20696e76616c6964207369676e6174757265206c656e67746800600082015250565b600061169c601f8361104b565b91506116a782611666565b602082019050919050565b600060208201905081810360008301526116cb8161168f565b9050919050565b7f45434453413a20696e76616c6964207369676e6174757265202773272076616c60008201527f7565000000000000000000000000000000000000000000000000000000000000602082015250565b600061172e60228361104b565b9150611739826116d2565b604082019050919050565b6000602082019050818103600083015261175d81611721565b9050919050565b61176d81610cdd565b82525050565b600060ff82169050919050565b61178981611773565b82525050565b60006080820190506117a46000830187611764565b6117b16020830186611780565b6117be6040830185611764565b6117cb6060830184611764565b9594505050505056fea2646970667358221220d1a17633f156ff8987ef3f94c21f7b7263bd50b219f3c4c427e7dd776727d3ea64736f6c63430008110033",
  "linkReferences": {},
  "deployedLinkReferences": {}
}