{
  "_format": "hh-sol-artifact-1",
  "contractName": "BrokenBLSAccountFactory",
  "sourceName": "contracts/test/BrokenBlsAccount.sol",
  "abi": [
    {
      "inputs": [
        {
          "internalType": "contract IEntryPoint",
          "name": "entryPoint",
          "type": "address"
        },
        {
          "internalType": "address",
          "name": "aggregator",
          "type": "address"
        }
      ],
      "stateMutability": "nonpayable",
      "type": "constructor"
    },
    {
      "inputs": [],
      "name": "accountImplementation",
      "outputs": [
        {
          "internalType": "contract BrokenBLSAccount",
          "name": "",
          "type": "address"
        }
      ],
      "stateMutability": "view",
      "type": "function"
    },
    {
      "inputs": [
        {
          "internalType": "uint256",
          "name": "salt",
          "type": "uint256"
        },
        {
          "internalType": "uint256[4]",
          "name": "aPublicKey",
          "type": "uint256[4]"
        }
      ],
      "name": "createAccount",
      "outputs": [
        {
          "internalType": "contract BrokenBLSAccount",
          "name": "",
          "type": "address"
        }
      ],
      "stateMutability": "nonpayable",
      "type": "function"
    },
    {
      "inputs": [
        {
          "internalType": "uint256",
          "name": "salt",
          "type": "uint256"
        },
        {
          "internalType": "uint256[4]",
          "name": "aPublicKey",
          "type": "uint256[4]"
        }
      ],
      "name": "getAddress",
      "outputs": [
        {
          "internalType": "address",
          "name": "",
          "type": "address"
        }
      ],
      "stateMutability": "view",
      "type": "function"
    }
  ],
  "bytecode": "0x60a06040523480156200001157600080fd5b5060405162004c2f38038062004c2f83398181016040528101906200003791906200016a565b81816040516200004790620000ad565b620000549291906200022d565b604051809103906000f08015801562000071573d6000803e3d6000fd5b5073ffffffffffffffffffffffffffffffffffffffff1660808173ffffffffffffffffffffffffffffffffffffffff168152505050506200025a565b6134f2806200173d83390190565b600080fd5b600073ffffffffffffffffffffffffffffffffffffffff82169050919050565b6000620000ed82620000c0565b9050919050565b60006200010182620000e0565b9050919050565b6200011381620000f4565b81146200011f57600080fd5b50565b600081519050620001338162000108565b92915050565b6200014481620000e0565b81146200015057600080fd5b50565b600081519050620001648162000139565b92915050565b60008060408385031215620001845762000183620000bb565b5b6000620001948582860162000122565b9250506020620001a78582860162000153565b9150509250929050565b6000819050919050565b6000620001dc620001d6620001d084620000c0565b620001b1565b620000c0565b9050919050565b6000620001f082620001bb565b9050919050565b60006200020482620001e3565b9050919050565b6200021681620001f7565b82525050565b6200022781620000e0565b82525050565b60006040820190506200024460008301856200020b565b6200025360208301846200021c565b9392505050565b6080516114ba620002836000396000818160db01528181610145015261023601526114ba6000f3fe60806040523480156200001157600080fd5b5060043610620000465760003560e01c806311464fbe146200004b57806319c2a1b2146200006d578063de3398dd14620000a3575b600080fd5b62000055620000d9565b604051620000649190620003e1565b60405180910390f35b6200008b6004803603810190620000859190620005ab565b620000fd565b6040516200009a9190620003e1565b60405180910390f35b620000c16004803603810190620000bb9190620005ab565b62000204565b604051620000d0919062000617565b60405180910390f35b7f000000000000000000000000000000000000000000000000000000000000000081565b6000806200010c848462000204565b905060008173ffffffffffffffffffffffffffffffffffffffff163b905060008111156200013f578192505050620001fe565b8460001b7f000000000000000000000000000000000000000000000000000000000000000085604051602401620001779190620006ef565b60405160208183030381529060405263ee472f3660e01b6020820180517bffffffffffffffffffffffffffffffffffffffffffffffffffffffff8381831617835250505050604051620001ca9062000348565b620001d792919062000795565b8190604051809103906000f5905080158015620001f8573d6000803e3d6000fd5b50925050505b92915050565b6000620002fe8360001b60405180602001620002209062000348565b6020820181038252601f19601f820116604052507f000000000000000000000000000000000000000000000000000000000000000085604051602401620002689190620006ef565b60405160208183030381529060405263ee472f3660e01b6020820180517bffffffffffffffffffffffffffffffffffffffffffffffffffffffff8381831617835250505050604051602001620002c092919062000795565b604051602081830303815290604052604051602001620002e29291906200080b565b6040516020818303038152906040528051906020012062000306565b905092915050565b6000620003158383306200031d565b905092915050565b6000604051836040820152846020820152828152600b810160ff815360558120925050509392505050565b610c51806200083483390190565b600073ffffffffffffffffffffffffffffffffffffffff82169050919050565b6000819050919050565b6000620003a16200039b620003958462000356565b62000376565b62000356565b9050919050565b6000620003b58262000380565b9050919050565b6000620003c982620003a8565b9050919050565b620003db81620003bc565b82525050565b6000602082019050620003f86000830184620003d0565b92915050565b6000604051905090565b600080fd5b6000819050919050565b62000422816200040d565b81146200042e57600080fd5b50565b600081359050620004428162000417565b92915050565b600080fd5b6000601f19601f8301169050919050565b7f4e487b7100000000000000000000000000000000000000000000000000000000600052604160045260246000fd5b62000498826200044d565b810181811067ffffffffffffffff82111715620004ba57620004b96200045e565b5b80604052505050565b6000620004cf620003fe565b9050620004dd82826200048d565b919050565b600067ffffffffffffffff8211156200050057620004ff6200045e565b5b602082029050919050565b600080fd5b6000620005276200052184620004e2565b620004c3565b905080602084028301858111156200054457620005436200050b565b5b835b818110156200057157806200055c888262000431565b84526020840193505060208101905062000546565b5050509392505050565b600082601f83011262000593576200059262000448565b5b6004620005a284828562000510565b91505092915050565b60008060a08385031215620005c557620005c462000408565b5b6000620005d58582860162000431565b9250506020620005e8858286016200057b565b9150509250929050565b6000620005ff8262000356565b9050919050565b6200061181620005f2565b82525050565b60006020820190506200062e600083018462000606565b92915050565b600060049050919050565b600081905092915050565b6000819050919050565b6200065f816200040d565b82525050565b600062000673838362000654565b60208301905092915050565b6000602082019050919050565b620006978162000634565b620006a381846200063f565b9250620006b0826200064a565b8060005b83811015620006e7578151620006cb878262000665565b9650620006d8836200067f565b925050600181019050620006b4565b505050505050565b60006080820190506200070660008301846200068c565b92915050565b600081519050919050565b600082825260208201905092915050565b60005b83811015620007485780820151818401526020810190506200072b565b60008484015250505050565b600062000761826200070c565b6200076d818562000717565b93506200077f81856020860162000728565b6200078a816200044d565b840191505092915050565b6000604082019050620007ac600083018562000606565b8181036020830152620007c0818462000754565b90509392505050565b600081905092915050565b6000620007e1826200070c565b620007ed8185620007c9565b9350620007ff81856020860162000728565b80840191505092915050565b6000620008198285620007d4565b9150620008278284620007d4565b9150819050939250505056fe608060405260405162000c5138038062000c51833981810160405281019062000029919062000580565b6200003d828260006200004560201b60201c565b5050620007d7565b62000056836200008860201b60201c565b600082511180620000645750805b156200008357620000818383620000df60201b620000371760201c565b505b505050565b62000099816200011560201b60201c565b8073ffffffffffffffffffffffffffffffffffffffff167fbc7cd75a20ee27fd9adebab32041f755214dbc6bffa90cc0225b39da2e5c2d3b60405160405180910390a250565b60606200010d838360405180606001604052806027815260200162000c2a60279139620001eb60201b60201c565b905092915050565b6200012b816200027d60201b620000641760201c565b6200016d576040517f08c379a000000000000000000000000000000000000000000000000000000000815260040162000164906200066d565b60405180910390fd5b80620001a77f360894a13ba1a3210667c828492db98dca3e2076cc3735a920a3ca505d382bbc60001b620002a060201b620000871760201c565b60000160006101000a81548173ffffffffffffffffffffffffffffffffffffffff021916908373ffffffffffffffffffffffffffffffffffffffff16021790555050565b60606000808573ffffffffffffffffffffffffffffffffffffffff1685604051620002179190620006dc565b600060405180830381855af49150503d806000811462000254576040519150601f19603f3d011682016040523d82523d6000602084013e62000259565b606091505b50915091506200027286838387620002aa60201b60201c565b925050509392505050565b6000808273ffffffffffffffffffffffffffffffffffffffff163b119050919050565b6000819050919050565b606083156200031a5760008351036200031157620002ce856200027d60201b60201c565b62000310576040517f08c379a0000000000000000000000000000000000000000000000000000000008152600401620003079062000745565b60405180910390fd5b5b8290506200032d565b6200032c83836200033560201b60201c565b5b949350505050565b600082511115620003495781518083602001fd5b806040517f08c379a00000000000000000000000000000000000000000000000000000000081526004016200037f9190620007b3565b60405180910390fd5b6000604051905090565b600080fd5b600080fd5b600073ffffffffffffffffffffffffffffffffffffffff82169050919050565b6000620003c9826200039c565b9050919050565b620003db81620003bc565b8114620003e757600080fd5b50565b600081519050620003fb81620003d0565b92915050565b600080fd5b600080fd5b6000601f19601f8301169050919050565b7f4e487b7100000000000000000000000000000000000000000000000000000000600052604160045260246000fd5b62000456826200040b565b810181811067ffffffffffffffff821117156200047857620004776200041c565b5b80604052505050565b60006200048d62000388565b90506200049b82826200044b565b919050565b600067ffffffffffffffff821115620004be57620004bd6200041c565b5b620004c9826200040b565b9050602081019050919050565b60005b83811015620004f6578082015181840152602081019050620004d9565b60008484015250505050565b6000620005196200051384620004a0565b62000481565b90508281526020810184848401111562000538576200053762000406565b5b62000545848285620004d6565b509392505050565b600082601f83011262000565576200056462000401565b5b81516200057784826020860162000502565b91505092915050565b600080604083850312156200059a576200059962000392565b5b6000620005aa85828601620003ea565b925050602083015167ffffffffffffffff811115620005ce57620005cd62000397565b5b620005dc858286016200054d565b9150509250929050565b600082825260208201905092915050565b7f455243313936373a206e657720696d706c656d656e746174696f6e206973206e60008201527f6f74206120636f6e747261637400000000000000000000000000000000000000602082015250565b600062000655602d83620005e6565b91506200066282620005f7565b604082019050919050565b60006020820190508181036000830152620006888162000646565b9050919050565b600081519050919050565b600081905092915050565b6000620006b2826200068f565b620006be81856200069a565b9350620006d0818560208601620004d6565b80840191505092915050565b6000620006ea8284620006a5565b915081905092915050565b7f416464726573733a2063616c6c20746f206e6f6e2d636f6e7472616374000000600082015250565b60006200072d601d83620005e6565b91506200073a82620006f5565b602082019050919050565b6000602082019050818103600083015262000760816200071e565b9050919050565b600081519050919050565b60006200077f8262000767565b6200078b8185620005e6565b93506200079d818560208601620004d6565b620007a8816200040b565b840191505092915050565b60006020820190508181036000830152620007cf818462000772565b905092915050565b61044380620007e76000396000f3fe6080604052366100135761001161001d565b005b61001b61001d565b005b610025610091565b610035610030610093565b6100a2565b565b606061005c83836040518060600160405280602781526020016103e7602791396100c8565b905092915050565b6000808273ffffffffffffffffffffffffffffffffffffffff163b119050919050565b6000819050919050565b565b600061009d61014e565b905090565b3660008037600080366000845af43d6000803e80600081146100c3573d6000f35b3d6000fd5b60606000808573ffffffffffffffffffffffffffffffffffffffff16856040516100f291906102db565b600060405180830381855af49150503d806000811461012d576040519150601f19603f3d011682016040523d82523d6000602084013e610132565b606091505b5091509150610143868383876101a5565b925050509392505050565b600061017c7f360894a13ba1a3210667c828492db98dca3e2076cc3735a920a3ca505d382bbc60001b610087565b60000160009054906101000a900473ffffffffffffffffffffffffffffffffffffffff16905090565b606083156102075760008351036101ff576101bf85610064565b6101fe576040517f08c379a00000000000000000000000000000000000000000000000000000000081526004016101f59061034f565b60405180910390fd5b5b829050610212565b610211838361021a565b5b949350505050565b60008251111561022d5781518083602001fd5b806040517f08c379a000000000000000000000000000000000000000000000000000000000815260040161026191906103c4565b60405180910390fd5b600081519050919050565b600081905092915050565b60005b8381101561029e578082015181840152602081019050610283565b60008484015250505050565b60006102b58261026a565b6102bf8185610275565b93506102cf818560208601610280565b80840191505092915050565b60006102e782846102aa565b915081905092915050565b600082825260208201905092915050565b7f416464726573733a2063616c6c20746f206e6f6e2d636f6e7472616374000000600082015250565b6000610339601d836102f2565b915061034482610303565b602082019050919050565b600060208201905081810360008301526103688161032c565b9050919050565b600081519050919050565b6000601f19601f8301169050919050565b60006103968261036f565b6103a081856102f2565b93506103b0818560208601610280565b6103b98161037a565b840191505092915050565b600060208201905081810360008301526103de818461038b565b90509291505056fe416464726573733a206c6f772d6c6576656c2064656c65676174652063616c6c206661696c6564a2646970667358221220e57dd3eafc9985be746025b6d82d4f011b9a7bb3db56f9a1eb7eadfddd376b6064736f6c63430008110033416464726573733a206c6f772d6c6576656c2064656c65676174652063616c6c206661696c6564a2646970667358221220a142c5ef1adfe854e3185d577bcce651bb27c6ffa8a70733708eab1d010ee4c764736f6c6343000811003360e06040523073ffffffffffffffffffffffffffffffffffffffff1660809073ffffffffffffffffffffffffffffffffffffffff168152503480156200004457600080fd5b50604051620034f2380380620034f283398181016040528101906200006a919062000262565b818073ffffffffffffffffffffffffffffffffffffffff1660a08173ffffffffffffffffffffffffffffffffffffffff1681525050620000af620000ec60201b60201c565b508073ffffffffffffffffffffffffffffffffffffffff1660c08173ffffffffffffffffffffffffffffffffffffffff168152505050506200038d565b600060019054906101000a900460ff16156200013f576040517f08c379a0000000000000000000000000000000000000000000000000000000008152600401620001369062000330565b60405180910390fd5b60ff801660008054906101000a900460ff1660ff161015620001b15760ff6000806101000a81548160ff021916908360ff1602179055507f7f26b83ff96e1f2b6a682f133852f6798a09c465da95921460cefb384740249860ff604051620001a8919062000370565b60405180910390a15b565b600080fd5b600073ffffffffffffffffffffffffffffffffffffffff82169050919050565b6000620001e582620001b8565b9050919050565b6000620001f982620001d8565b9050919050565b6200020b81620001ec565b81146200021757600080fd5b50565b6000815190506200022b8162000200565b92915050565b6200023c81620001d8565b81146200024857600080fd5b50565b6000815190506200025c8162000231565b92915050565b600080604083850312156200027c576200027b620001b3565b5b60006200028c858286016200021a565b92505060206200029f858286016200024b565b9150509250929050565b600082825260208201905092915050565b7f496e697469616c697a61626c653a20636f6e747261637420697320696e69746960008201527f616c697a696e6700000000000000000000000000000000000000000000000000602082015250565b600062000318602783620002a9565b91506200032582620002ba565b604082019050919050565b600060208201905081810360008301526200034b8162000309565b9050919050565b600060ff82169050919050565b6200036a8162000352565b82525050565b60006020820190506200038760008301846200035f565b92915050565b60805160a05160c05161310b620003e7600039600081816107490152611440015260008181610c3a01526116a901526000818161076d015281816107fb01528181610a1d01528181610aab0152610b5b015261310b6000f3fe60806040526004361061012d5760003560e01c806352d1902d116100ab578063c399ec881161006f578063c399ec88146103cc578063c4d66de8146103f7578063d087d28814610420578063e02afbae1461044b578063ee472f3614610476578063f23a6e611461049f57610134565b806352d1902d146102e55780638da5cb5b14610310578063b0d691fe1461033b578063b61d27f614610366578063bc197c811461038f57610134565b80633659cfe6116100f25780633659cfe6146102305780633a871cdd146102595780634a58db19146102965780634d44560d146102a05780634f1ef286146102c957610134565b806223de291461013957806301ffc9a714610162578063150b7a021461019f57806318dfb3c7146101dc578063245a7bfc1461020557610134565b3661013457005b600080fd5b34801561014557600080fd5b50610160600480360381019061015b9190611b44565b6104dc565b005b34801561016e57600080fd5b5061018960048036038101906101849190611c6b565b6104e6565b6040516101969190611cb3565b60405180910390f35b3480156101ab57600080fd5b506101c660048036038101906101c19190611cce565b610620565b6040516101d39190611d65565b60405180910390f35b3480156101e857600080fd5b5061020360048036038101906101fe9190611e2c565b610635565b005b34801561021157600080fd5b5061021a610747565b6040516102279190611ebc565b60405180910390f35b34801561023c57600080fd5b5061025760048036038101906102529190611ed7565b61076b565b005b34801561026557600080fd5b50610280600480360381019061027b9190611f5f565b6108f3565b60405161028d9190611fdd565b60405180910390f35b61029e610926565b005b3480156102ac57600080fd5b506102c760048036038101906102c29190612036565b61099b565b005b6102e360048036038101906102de91906121b7565b610a1b565b005b3480156102f157600080fd5b506102fa610b57565b6040516103079190612222565b60405180910390f35b34801561031c57600080fd5b50610325610c10565b6040516103329190611ebc565b60405180910390f35b34801561034757600080fd5b50610350610c36565b60405161035d919061229c565b60405180910390f35b34801561037257600080fd5b5061038d600480360381019061038891906122b7565b610c5e565b005b34801561039b57600080fd5b506103b660048036038101906103b19190612381565b610cbb565b6040516103c39190611d65565b60405180910390f35b3480156103d857600080fd5b506103e1610cd3565b6040516103ee9190611fdd565b60405180910390f35b34801561040357600080fd5b5061041e60048036038101906104199190611ed7565b610d5b565b005b34801561042c57600080fd5b50610435610e9b565b6040516104429190611fdd565b60405180910390f35b34801561045757600080fd5b50610460610f26565b60405161046d9190612508565b60405180910390f35b34801561048257600080fd5b5061049d600480360381019061049891906125d4565b610f3d565b005b3480156104ab57600080fd5b506104c660048036038101906104c19190612601565b61107e565b6040516104d39190611d65565b60405180910390f35b5050505050505050565b60007f150b7a02000000000000000000000000000000000000000000000000000000007bffffffffffffffffffffffffffffffffffffffffffffffffffffffff1916827bffffffffffffffffffffffffffffffffffffffffffffffffffffffff191614806105b157507f4e2312e0000000000000000000000000000000000000000000000000000000007bffffffffffffffffffffffffffffffffffffffffffffffffffffffff1916827bffffffffffffffffffffffffffffffffffffffffffffffffffffffff1916145b8061061957507f01ffc9a7000000000000000000000000000000000000000000000000000000007bffffffffffffffffffffffffffffffffffffffffffffffffffffffff1916827bffffffffffffffffffffffffffffffffffffffffffffffffffffffff1916145b9050919050565b600063150b7a0260e01b905095945050505050565b61063d611094565b818190508484905014610685576040517f08c379a000000000000000000000000000000000000000000000000000000000815260040161067c906126f8565b60405180910390fd5b60005b848490508110156107405761072d8585838181106106a9576106a8612718565b5b90506020020160208101906106be9190611ed7565b60008585858181106106d3576106d2612718565b5b90506020028101906106e59190612756565b8080601f016020809104026020016040519081016040528093929190818152602001838380828437600081840152601f19601f82011690508083019250505050505050611163565b8080610738906127e8565b915050610688565b5050505050565b7f000000000000000000000000000000000000000000000000000000000000000081565b7f000000000000000000000000000000000000000000000000000000000000000073ffffffffffffffffffffffffffffffffffffffff163073ffffffffffffffffffffffffffffffffffffffff16036107f9576040517f08c379a00000000000000000000000000000000000000000000000000000000081526004016107f0906128a2565b60405180910390fd5b7f000000000000000000000000000000000000000000000000000000000000000073ffffffffffffffffffffffffffffffffffffffff166108386111e7565b73ffffffffffffffffffffffffffffffffffffffff161461088e576040517f08c379a000000000000000000000000000000000000000000000000000000000815260040161088590612934565b60405180910390fd5b6108978161123e565b6108f081600067ffffffffffffffff8111156108b6576108b561208c565b5b6040519080825280601f01601f1916602001820160405280156108e85781602001600182028036833780820191505090505b506000611249565b50565b60006108fd6113b7565b610907848461142e565b905061091684602001356114a3565b61091f826114a6565b9392505050565b61092e610c36565b73ffffffffffffffffffffffffffffffffffffffff1663b760faf934306040518363ffffffff1660e01b81526004016109679190611ebc565b6000604051808303818588803b15801561098057600080fd5b505af1158015610994573d6000803e3d6000fd5b5050505050565b6109a3611542565b6109ab610c36565b73ffffffffffffffffffffffffffffffffffffffff1663205c287883836040518363ffffffff1660e01b81526004016109e5929190612963565b600060405180830381600087803b1580156109ff57600080fd5b505af1158015610a13573d6000803e3d6000fd5b505050505050565b7f000000000000000000000000000000000000000000000000000000000000000073ffffffffffffffffffffffffffffffffffffffff163073ffffffffffffffffffffffffffffffffffffffff1603610aa9576040517f08c379a0000000000000000000000000000000000000000000000000000000008152600401610aa0906128a2565b60405180910390fd5b7f000000000000000000000000000000000000000000000000000000000000000073ffffffffffffffffffffffffffffffffffffffff16610ae86111e7565b73ffffffffffffffffffffffffffffffffffffffff1614610b3e576040517f08c379a0000000000000000000000000000000000000000000000000000000008152600401610b3590612934565b60405180910390fd5b610b478261123e565b610b5382826001611249565b5050565b60007f000000000000000000000000000000000000000000000000000000000000000073ffffffffffffffffffffffffffffffffffffffff163073ffffffffffffffffffffffffffffffffffffffff1614610be7576040517f08c379a0000000000000000000000000000000000000000000000000000000008152600401610bde906129fe565b60405180910390fd5b7f360894a13ba1a3210667c828492db98dca3e2076cc3735a920a3ca505d382bbc60001b905090565b600060029054906101000a900473ffffffffffffffffffffffffffffffffffffffff1681565b60007f0000000000000000000000000000000000000000000000000000000000000000905090565b610c66611094565b610cb5848484848080601f016020809104026020016040519081016040528093929190818152602001838380828437600081840152601f19601f82011690508083019250505050505050611163565b50505050565b600063bc197c8160e01b905098975050505050505050565b6000610cdd610c36565b73ffffffffffffffffffffffffffffffffffffffff166370a08231306040518263ffffffff1660e01b8152600401610d159190611ebc565b602060405180830381865afa158015610d32573d6000803e3d6000fd5b505050506040513d601f19601f82011682018060405250810190610d569190612a33565b905090565b60008060019054906101000a900460ff16159050808015610d8c5750600160008054906101000a900460ff1660ff16105b80610db95750610d9b3061160a565b158015610db85750600160008054906101000a900460ff1660ff16145b5b610df8576040517f08c379a0000000000000000000000000000000000000000000000000000000008152600401610def90612ad2565b60405180910390fd5b60016000806101000a81548160ff021916908360ff1602179055508015610e35576001600060016101000a81548160ff0219169083151502179055505b610e3e8261162d565b8015610e975760008060016101000a81548160ff0219169083151502179055507f7f26b83ff96e1f2b6a682f133852f6798a09c465da95921460cefb38474024986001604051610e8e9190612b3a565b60405180910390a15b5050565b6000610ea5610c36565b73ffffffffffffffffffffffffffffffffffffffff166335567e1a3060006040518363ffffffff1660e01b8152600401610ee0929190612bb4565b602060405180830381865afa158015610efd573d6000803e3d6000fd5b505050506040513d601f19601f82011682018060405250810190610f219190612a33565b905090565b610f2e611a15565b610f36611a15565b8091505090565b60008060019054906101000a900460ff16159050808015610f6e5750600160008054906101000a900460ff1660ff16105b80610f9b5750610f7d3061160a565b158015610f9a5750600160008054906101000a900460ff1660ff16145b5b610fda576040517f08c379a0000000000000000000000000000000000000000000000000000000008152600401610fd190612ad2565b60405180910390fd5b60016000806101000a81548160ff021916908360ff1602179055508015611017576001600060016101000a81548160ff0219169083151502179055505b611021600061162d565b801561107a5760008060016101000a81548160ff0219169083151502179055507f7f26b83ff96e1f2b6a682f133852f6798a09c465da95921460cefb384740249860016040516110719190612b3a565b60405180910390a15b5050565b600063f23a6e6160e01b90509695505050505050565b61109c610c36565b73ffffffffffffffffffffffffffffffffffffffff163373ffffffffffffffffffffffffffffffffffffffff1614806111225750600060029054906101000a900473ffffffffffffffffffffffffffffffffffffffff1673ffffffffffffffffffffffffffffffffffffffff163373ffffffffffffffffffffffffffffffffffffffff16145b611161576040517f08c379a000000000000000000000000000000000000000000000000000000000815260040161115890612c29565b60405180910390fd5b565b6000808473ffffffffffffffffffffffffffffffffffffffff16848460405161118c9190612cba565b60006040518083038185875af1925050503d80600081146111c9576040519150601f19603f3d011682016040523d82523d6000602084013e6111ce565b606091505b5091509150816111e057805160208201fd5b5050505050565b60006112157f360894a13ba1a3210667c828492db98dca3e2076cc3735a920a3ca505d382bbc60001b61170d565b60000160009054906101000a900473ffffffffffffffffffffffffffffffffffffffff16905090565b611246611542565b50565b6112757f4910fdfa16fed3260ed0e7147f7cc6da11a60208b5b9406d12a635614ffd914360001b611717565b60000160009054906101000a900460ff16156112995761129483611721565b6113b2565b8273ffffffffffffffffffffffffffffffffffffffff166352d1902d6040518163ffffffff1660e01b8152600401602060405180830381865afa92505050801561130157506040513d601f19601f820116820180604052508101906112fe9190612ce6565b60015b611340576040517f08c379a000000000000000000000000000000000000000000000000000000000815260040161133790612d85565b60405180910390fd5b7f360894a13ba1a3210667c828492db98dca3e2076cc3735a920a3ca505d382bbc60001b81146113a5576040517f08c379a000000000000000000000000000000000000000000000000000000000815260040161139c90612e17565b60405180910390fd5b506113b18383836117da565b5b505050565b6113bf610c36565b73ffffffffffffffffffffffffffffffffffffffff163373ffffffffffffffffffffffffffffffffffffffff161461142c576040517f08c379a000000000000000000000000000000000000000000000000000000000815260040161142390612e83565b60405180910390fd5b565b600061149b60405180606001604052807f000000000000000000000000000000000000000000000000000000000000000073ffffffffffffffffffffffffffffffffffffffff168152602001600065ffffffffffff168152602001600065ffffffffffff16815250611806565b905092915050565b50565b6000811461153f5760003373ffffffffffffffffffffffffffffffffffffffff16827fffffffffffffffffffffffffffffffffffffffffffffffffffffffffffffffff906040516114f690612ec9565b600060405180830381858888f193505050503d8060008114611534576040519150601f19603f3d011682016040523d82523d6000602084013e611539565b606091505b50509050505b50565b600060029054906101000a900473ffffffffffffffffffffffffffffffffffffffff1673ffffffffffffffffffffffffffffffffffffffff163373ffffffffffffffffffffffffffffffffffffffff1614806115c957503073ffffffffffffffffffffffffffffffffffffffff163373ffffffffffffffffffffffffffffffffffffffff16145b611608576040517f08c379a00000000000000000000000000000000000000000000000000000000081526004016115ff90612f2a565b60405180910390fd5b565b6000808273ffffffffffffffffffffffffffffffffffffffff163b119050919050565b80600060026101000a81548173ffffffffffffffffffffffffffffffffffffffff021916908373ffffffffffffffffffffffffffffffffffffffff160217905550600060029054906101000a900473ffffffffffffffffffffffffffffffffffffffff1673ffffffffffffffffffffffffffffffffffffffff167f000000000000000000000000000000000000000000000000000000000000000073ffffffffffffffffffffffffffffffffffffffff167f47e55c76e7a6f1fd8996a1da8008c1ea29699cca35e7bcd057f2dec313b6e5de60405160405180910390a350565b6000819050919050565b6000819050919050565b61172a8161160a565b611769576040517f08c379a000000000000000000000000000000000000000000000000000000000815260040161176090612fbc565b60405180910390fd5b806117967f360894a13ba1a3210667c828492db98dca3e2076cc3735a920a3ca505d382bbc60001b61170d565b60000160006101000a81548173ffffffffffffffffffffffffffffffffffffffff021916908373ffffffffffffffffffffffffffffffffffffffff16021790555050565b6117e38361184e565b6000825111806117f05750805b15611801576117ff838361189d565b505b505050565b600060d0826020015165ffffffffffff16901b60a0836040015165ffffffffffff16901b836000015173ffffffffffffffffffffffffffffffffffffffff1617179050919050565b61185781611721565b8073ffffffffffffffffffffffffffffffffffffffff167fbc7cd75a20ee27fd9adebab32041f755214dbc6bffa90cc0225b39da2e5c2d3b60405160405180910390a250565b60606118c283836040518060600160405280602781526020016130af602791396118ca565b905092915050565b60606000808573ffffffffffffffffffffffffffffffffffffffff16856040516118f49190612cba565b600060405180830381855af49150503d806000811461192f576040519150601f19603f3d011682016040523d82523d6000602084013e611934565b606091505b509150915061194586838387611950565b925050509392505050565b606083156119b25760008351036119aa5761196a8561160a565b6119a9576040517f08c379a00000000000000000000000000000000000000000000000000000000081526004016119a090613028565b60405180910390fd5b5b8290506119bd565b6119bc83836119c5565b5b949350505050565b6000825111156119d85781518083602001fd5b806040517f08c379a0000000000000000000000000000000000000000000000000000000008152600401611a0c919061308c565b60405180910390fd5b6040518060800160405280600490602082028036833780820191505090505090565b6000604051905090565b600080fd5b600080fd5b600073ffffffffffffffffffffffffffffffffffffffff82169050919050565b6000611a7682611a4b565b9050919050565b611a8681611a6b565b8114611a9157600080fd5b50565b600081359050611aa381611a7d565b92915050565b6000819050919050565b611abc81611aa9565b8114611ac757600080fd5b50565b600081359050611ad981611ab3565b92915050565b600080fd5b600080fd5b600080fd5b60008083601f840112611b0457611b03611adf565b5b8235905067ffffffffffffffff811115611b2157611b20611ae4565b5b602083019150836001820283011115611b3d57611b3c611ae9565b5b9250929050565b60008060008060008060008060c0898b031215611b6457611b63611a41565b5b6000611b728b828c01611a94565b9850506020611b838b828c01611a94565b9750506040611b948b828c01611a94565b9650506060611ba58b828c01611aca565b955050608089013567ffffffffffffffff811115611bc657611bc5611a46565b5b611bd28b828c01611aee565b945094505060a089013567ffffffffffffffff811115611bf557611bf4611a46565b5b611c018b828c01611aee565b92509250509295985092959890939650565b60007fffffffff0000000000000000000000000000000000000000000000000000000082169050919050565b611c4881611c13565b8114611c5357600080fd5b50565b600081359050611c6581611c3f565b92915050565b600060208284031215611c8157611c80611a41565b5b6000611c8f84828501611c56565b91505092915050565b60008115159050919050565b611cad81611c98565b82525050565b6000602082019050611cc86000830184611ca4565b92915050565b600080600080600060808688031215611cea57611ce9611a41565b5b6000611cf888828901611a94565b9550506020611d0988828901611a94565b9450506040611d1a88828901611aca565b935050606086013567ffffffffffffffff811115611d3b57611d3a611a46565b5b611d4788828901611aee565b92509250509295509295909350565b611d5f81611c13565b82525050565b6000602082019050611d7a6000830184611d56565b92915050565b60008083601f840112611d9657611d95611adf565b5b8235905067ffffffffffffffff811115611db357611db2611ae4565b5b602083019150836020820283011115611dcf57611dce611ae9565b5b9250929050565b60008083601f840112611dec57611deb611adf565b5b8235905067ffffffffffffffff811115611e0957611e08611ae4565b5b602083019150836020820283011115611e2557611e24611ae9565b5b9250929050565b60008060008060408587031215611e4657611e45611a41565b5b600085013567ffffffffffffffff811115611e6457611e63611a46565b5b611e7087828801611d80565b9450945050602085013567ffffffffffffffff811115611e9357611e92611a46565b5b611e9f87828801611dd6565b925092505092959194509250565b611eb681611a6b565b82525050565b6000602082019050611ed16000830184611ead565b92915050565b600060208284031215611eed57611eec611a41565b5b6000611efb84828501611a94565b91505092915050565b600080fd5b60006101608284031215611f2057611f1f611f04565b5b81905092915050565b6000819050919050565b611f3c81611f29565b8114611f4757600080fd5b50565b600081359050611f5981611f33565b92915050565b600080600060608486031215611f7857611f77611a41565b5b600084013567ffffffffffffffff811115611f9657611f95611a46565b5b611fa286828701611f09565b9350506020611fb386828701611f4a565b9250506040611fc486828701611aca565b9150509250925092565b611fd781611aa9565b82525050565b6000602082019050611ff26000830184611fce565b92915050565b600061200382611a4b565b9050919050565b61201381611ff8565b811461201e57600080fd5b50565b6000813590506120308161200a565b92915050565b6000806040838503121561204d5761204c611a41565b5b600061205b85828601612021565b925050602061206c85828601611aca565b9150509250929050565b600080fd5b6000601f19601f8301169050919050565b7f4e487b7100000000000000000000000000000000000000000000000000000000600052604160045260246000fd5b6120c48261207b565b810181811067ffffffffffffffff821117156120e3576120e261208c565b5b80604052505050565b60006120f6611a37565b905061210282826120bb565b919050565b600067ffffffffffffffff8211156121225761212161208c565b5b61212b8261207b565b9050602081019050919050565b82818337600083830152505050565b600061215a61215584612107565b6120ec565b90508281526020810184848401111561217657612175612076565b5b612181848285612138565b509392505050565b600082601f83011261219e5761219d611adf565b5b81356121ae848260208601612147565b91505092915050565b600080604083850312156121ce576121cd611a41565b5b60006121dc85828601611a94565b925050602083013567ffffffffffffffff8111156121fd576121fc611a46565b5b61220985828601612189565b9150509250929050565b61221c81611f29565b82525050565b60006020820190506122376000830184612213565b92915050565b6000819050919050565b600061226261225d61225884611a4b565b61223d565b611a4b565b9050919050565b600061227482612247565b9050919050565b600061228682612269565b9050919050565b6122968161227b565b82525050565b60006020820190506122b1600083018461228d565b92915050565b600080600080606085870312156122d1576122d0611a41565b5b60006122df87828801611a94565b94505060206122f087828801611aca565b935050604085013567ffffffffffffffff81111561231157612310611a46565b5b61231d87828801611aee565b925092505092959194509250565b60008083601f84011261234157612340611adf565b5b8235905067ffffffffffffffff81111561235e5761235d611ae4565b5b60208301915083602082028301111561237a57612379611ae9565b5b9250929050565b60008060008060008060008060a0898b0312156123a1576123a0611a41565b5b60006123af8b828c01611a94565b98505060206123c08b828c01611a94565b975050604089013567ffffffffffffffff8111156123e1576123e0611a46565b5b6123ed8b828c0161232b565b9650965050606089013567ffffffffffffffff8111156124105761240f611a46565b5b61241c8b828c0161232b565b9450945050608089013567ffffffffffffffff81111561243f5761243e611a46565b5b61244b8b828c01611aee565b92509250509295985092959890939650565b600060049050919050565b600081905092915050565b6000819050919050565b61248681611aa9565b82525050565b6000612498838361247d565b60208301905092915050565b6000602082019050919050565b6124ba8161245d565b6124c48184612468565b92506124cf82612473565b8060005b838110156125005781516124e7878261248c565b96506124f2836124a4565b9250506001810190506124d3565b505050505050565b600060808201905061251d60008301846124b1565b92915050565b600067ffffffffffffffff82111561253e5761253d61208c565b5b602082029050919050565b600061255c61255784612523565b6120ec565b9050806020840283018581111561257657612575611ae9565b5b835b8181101561259f578061258b8882611aca565b845260208401935050602081019050612578565b5050509392505050565b600082601f8301126125be576125bd611adf565b5b60046125cb848285612549565b91505092915050565b6000608082840312156125ea576125e9611a41565b5b60006125f8848285016125a9565b91505092915050565b60008060008060008060a0878903121561261e5761261d611a41565b5b600061262c89828a01611a94565b965050602061263d89828a01611a94565b955050604061264e89828a01611aca565b945050606061265f89828a01611aca565b935050608087013567ffffffffffffffff8111156126805761267f611a46565b5b61268c89828a01611aee565b92509250509295509295509295565b600082825260208201905092915050565b7f77726f6e67206172726179206c656e6774687300000000000000000000000000600082015250565b60006126e260138361269b565b91506126ed826126ac565b602082019050919050565b60006020820190508181036000830152612711816126d5565b9050919050565b7f4e487b7100000000000000000000000000000000000000000000000000000000600052603260045260246000fd5b600080fd5b600080fd5b600080fd5b6000808335600160200384360303811261277357612772612747565b5b80840192508235915067ffffffffffffffff8211156127955761279461274c565b5b6020830192506001820236038313156127b1576127b0612751565b5b509250929050565b7f4e487b7100000000000000000000000000000000000000000000000000000000600052601160045260246000fd5b60006127f382611aa9565b91507fffffffffffffffffffffffffffffffffffffffffffffffffffffffffffffffff8203612825576128246127b9565b5b600182019050919050565b7f46756e6374696f6e206d7573742062652063616c6c6564207468726f7567682060008201527f64656c656761746563616c6c0000000000000000000000000000000000000000602082015250565b600061288c602c8361269b565b915061289782612830565b604082019050919050565b600060208201905081810360008301526128bb8161287f565b9050919050565b7f46756e6374696f6e206d7573742062652063616c6c6564207468726f7567682060008201527f6163746976652070726f78790000000000000000000000000000000000000000602082015250565b600061291e602c8361269b565b9150612929826128c2565b604082019050919050565b6000602082019050818103600083015261294d81612911565b9050919050565b61295d81611ff8565b82525050565b60006040820190506129786000830185612954565b6129856020830184611fce565b9392505050565b7f555550535570677261646561626c653a206d757374206e6f742062652063616c60008201527f6c6564207468726f7567682064656c656761746563616c6c0000000000000000602082015250565b60006129e860388361269b565b91506129f38261298c565b604082019050919050565b60006020820190508181036000830152612a17816129db565b9050919050565b600081519050612a2d81611ab3565b92915050565b600060208284031215612a4957612a48611a41565b5b6000612a5784828501612a1e565b91505092915050565b7f496e697469616c697a61626c653a20636f6e747261637420697320616c72656160008201527f647920696e697469616c697a6564000000000000000000000000000000000000602082015250565b6000612abc602e8361269b565b9150612ac782612a60565b604082019050919050565b60006020820190508181036000830152612aeb81612aaf565b9050919050565b6000819050919050565b600060ff82169050919050565b6000612b24612b1f612b1a84612af2565b61223d565b612afc565b9050919050565b612b3481612b09565b82525050565b6000602082019050612b4f6000830184612b2b565b92915050565b6000819050919050565b600077ffffffffffffffffffffffffffffffffffffffffffffffff82169050919050565b6000612b9e612b99612b9484612b55565b61223d565b612b5f565b9050919050565b612bae81612b83565b82525050565b6000604082019050612bc96000830185611ead565b612bd66020830184612ba5565b9392505050565b7f6163636f756e743a206e6f74204f776e6572206f7220456e747279506f696e74600082015250565b6000612c1360208361269b565b9150612c1e82612bdd565b602082019050919050565b60006020820190508181036000830152612c4281612c06565b9050919050565b600081519050919050565b600081905092915050565b60005b83811015612c7d578082015181840152602081019050612c62565b60008484015250505050565b6000612c9482612c49565b612c9e8185612c54565b9350612cae818560208601612c5f565b80840191505092915050565b6000612cc68284612c89565b915081905092915050565b600081519050612ce081611f33565b92915050565b600060208284031215612cfc57612cfb611a41565b5b6000612d0a84828501612cd1565b91505092915050565b7f45524331393637557067726164653a206e657720696d706c656d656e7461746960008201527f6f6e206973206e6f742055555053000000000000000000000000000000000000602082015250565b6000612d6f602e8361269b565b9150612d7a82612d13565b604082019050919050565b60006020820190508181036000830152612d9e81612d62565b9050919050565b7f45524331393637557067726164653a20756e737570706f727465642070726f7860008201527f6961626c65555549440000000000000000000000000000000000000000000000602082015250565b6000612e0160298361269b565b9150612e0c82612da5565b604082019050919050565b60006020820190508181036000830152612e3081612df4565b9050919050565b7f6163636f756e743a206e6f742066726f6d20456e747279506f696e7400000000600082015250565b6000612e6d601c8361269b565b9150612e7882612e37565b602082019050919050565b60006020820190508181036000830152612e9c81612e60565b9050919050565b50565b6000612eb3600083612c54565b9150612ebe82612ea3565b600082019050919050565b6000612ed482612ea6565b9150819050919050565b7f6f6e6c79206f776e657200000000000000000000000000000000000000000000600082015250565b6000612f14600a8361269b565b9150612f1f82612ede565b602082019050919050565b60006020820190508181036000830152612f4381612f07565b9050919050565b7f455243313936373a206e657720696d706c656d656e746174696f6e206973206e60008201527f6f74206120636f6e747261637400000000000000000000000000000000000000602082015250565b6000612fa6602d8361269b565b9150612fb182612f4a565b604082019050919050565b60006020820190508181036000830152612fd581612f99565b9050919050565b7f416464726573733a2063616c6c20746f206e6f6e2d636f6e7472616374000000600082015250565b6000613012601d8361269b565b915061301d82612fdc565b602082019050919050565b6000602082019050818103600083015261304181613005565b9050919050565b600081519050919050565b600061305e82613048565b613068818561269b565b9350613078818560208601612c5f565b6130818161207b565b840191505092915050565b600060208201905081810360008301526130a68184613053565b90509291505056fe416464726573733a206c6f772d6c6576656c2064656c65676174652063616c6c206661696c6564a26469706673582212200931a3d919d8be6addc722090978aa0a0371898b8fea9eab83a1f33312e8edc864736f6c63430008110033",
  "linkReferences": {},
  "deployedLinkReferences": {}
}