{
  "_format": "hh-sol-artifact-1",
  "contractName": "TestExpiryAccount",
  "sourceName": "contracts/test/TestExpiryAccount.sol",
  "abi": [
    {
      "inputs": [
        {
          "internalType": "contract IEntryPoint",
          "name": "anEntryPoint",
          "type": "address"
        }
      ],
      "stateMutability": "nonpayable",
      "type": "constructor"
    },
    {
      "anonymous": false,
      "inputs": [
        {
          "indexed": false,
          "internalType": "address",
          "name": "previousAdmin",
          "type": "address"
        },
        {
          "indexed": false,
          "internalType": "address",
          "name": "newAdmin",
          "type": "address"
        }
      ],
      "name": "AdminChanged",
      "type": "event"
    },
    {
      "anonymous": false,
      "inputs": [
        {
          "indexed": true,
          "internalType": "address",
          "name": "beacon",
          "type": "address"
        }
      ],
      "name": "BeaconUpgraded",
      "type": "event"
    },
    {
      "anonymous": false,
      "inputs": [
        {
          "indexed": false,
          "internalType": "uint8",
          "name": "version",
          "type": "uint8"
        }
      ],
      "name": "Initialized",
      "type": "event"
    },
    {
      "anonymous": false,
      "inputs": [
        {
          "indexed": true,
          "internalType": "contract IEntryPoint",
          "name": "entryPoint",
          "type": "address"
        },
        {
          "indexed": true,
          "internalType": "address",
          "name": "owner",
          "type": "address"
        }
      ],
      "name": "SimpleAccountInitialized",
      "type": "event"
    },
    {
      "anonymous": false,
      "inputs": [
        {
          "indexed": true,
          "internalType": "address",
          "name": "implementation",
          "type": "address"
        }
      ],
      "name": "Upgraded",
      "type": "event"
    },
    {
      "inputs": [],
      "name": "addDeposit",
      "outputs": [],
      "stateMutability": "payable",
      "type": "function"
    },
    {
      "inputs": [
        {
          "internalType": "address",
          "name": "owner",
          "type": "address"
        },
        {
          "internalType": "uint48",
          "name": "_after",
          "type": "uint48"
        },
        {
          "internalType": "uint48",
          "name": "_until",
          "type": "uint48"
        }
      ],
      "name": "addTemporaryOwner",
      "outputs": [],
      "stateMutability": "nonpayable",
      "type": "function"
    },
    {
      "inputs": [],
      "name": "entryPoint",
      "outputs": [
        {
          "internalType": "contract IEntryPoint",
          "name": "",
          "type": "address"
        }
      ],
      "stateMutability": "view",
      "type": "function"
    },
    {
      "inputs": [
        {
          "internalType": "address",
          "name": "dest",
          "type": "address"
        },
        {
          "internalType": "uint256",
          "name": "value",
          "type": "uint256"
        },
        {
          "internalType": "bytes",
          "name": "func",
          "type": "bytes"
        }
      ],
      "name": "execute",
      "outputs": [],
      "stateMutability": "nonpayable",
      "type": "function"
    },
    {
      "inputs": [
        {
          "internalType": "address[]",
          "name": "dest",
          "type": "address[]"
        },
        {
          "internalType": "bytes[]",
          "name": "func",
          "type": "bytes[]"
        }
      ],
      "name": "executeBatch",
      "outputs": [],
      "stateMutability": "nonpayable",
      "type": "function"
    },
    {
      "inputs": [],
      "name": "getDeposit",
      "outputs": [
        {
          "internalType": "uint256",
          "name": "",
          "type": "uint256"
        }
      ],
      "stateMutability": "view",
      "type": "function"
    },
    {
      "inputs": [],
      "name": "getNonce",
      "outputs": [
        {
          "internalType": "uint256",
          "name": "",
          "type": "uint256"
        }
      ],
      "stateMutability": "view",
      "type": "function"
    },
    {
      "inputs": [
        {
          "internalType": "address",
          "name": "anOwner",
          "type": "address"
        }
      ],
      "name": "initialize",
      "outputs": [],
      "stateMutability": "nonpayable",
      "type": "function"
    },
    {
      "inputs": [
        {
          "internalType": "address",
          "name": "",
          "type": "address"
        },
        {
          "internalType": "address",
          "name": "",
          "type": "address"
        },
        {
          "internalType": "uint256[]",
          "name": "",
          "type": "uint256[]"
        },
        {
          "internalType": "uint256[]",
          "name": "",
          "type": "uint256[]"
        },
        {
          "internalType": "bytes",
          "name": "",
          "type": "bytes"
        }
      ],
      "name": "onERC1155BatchReceived",
      "outputs": [
        {
          "internalType": "bytes4",
          "name": "",
          "type": "bytes4"
        }
      ],
      "stateMutability": "pure",
      "type": "function"
    },
    {
      "inputs": [
        {
          "internalType": "address",
          "name": "",
          "type": "address"
        },
        {
          "internalType": "address",
          "name": "",
          "type": "address"
        },
        {
          "internalType": "uint256",
          "name": "",
          "type": "uint256"
        },
        {
          "internalType": "uint256",
          "name": "",
          "type": "uint256"
        },
        {
          "internalType": "bytes",
          "name": "",
          "type": "bytes"
        }
      ],
      "name": "onERC1155Received",
      "outputs": [
        {
          "internalType": "bytes4",
          "name": "",
          "type": "bytes4"
        }
      ],
      "stateMutability": "pure",
      "type": "function"
    },
    {
      "inputs": [
        {
          "internalType": "address",
          "name": "",
          "type": "address"
        },
        {
          "internalType": "address",
          "name": "",
          "type": "address"
        },
        {
          "internalType": "uint256",
          "name": "",
          "type": "uint256"
        },
        {
          "internalType": "bytes",
          "name": "",
          "type": "bytes"
        }
      ],
      "name": "onERC721Received",
      "outputs": [
        {
          "internalType": "bytes4",
          "name": "",
          "type": "bytes4"
        }
      ],
      "stateMutability": "pure",
      "type": "function"
    },
    {
      "inputs": [],
      "name": "owner",
      "outputs": [
        {
          "internalType": "address",
          "name": "",
          "type": "address"
        }
      ],
      "stateMutability": "view",
      "type": "function"
    },
    {
      "inputs": [
        {
          "internalType": "address",
          "name": "",
          "type": "address"
        }
      ],
      "name": "ownerAfter",
      "outputs": [
        {
          "internalType": "uint48",
          "name": "",
          "type": "uint48"
        }
      ],
      "stateMutability": "view",
      "type": "function"
    },
    {
      "inputs": [
        {
          "internalType": "address",
          "name": "",
          "type": "address"
        }
      ],
      "name": "ownerUntil",
      "outputs": [
        {
          "internalType": "uint48",
          "name": "",
          "type": "uint48"
        }
      ],
      "stateMutability": "view",
      "type": "function"
    },
    {
      "inputs": [],
      "name": "proxiableUUID",
      "outputs": [
        {
          "internalType": "bytes32",
          "name": "",
          "type": "bytes32"
        }
      ],
      "stateMutability": "view",
      "type": "function"
    },
    {
      "inputs": [
        {
          "internalType": "bytes4",
          "name": "interfaceId",
          "type": "bytes4"
        }
      ],
      "name": "supportsInterface",
      "outputs": [
        {
          "internalType": "bool",
          "name": "",
          "type": "bool"
        }
      ],
      "stateMutability": "view",
      "type": "function"
    },
    {
      "inputs": [
        {
          "internalType": "address",
          "name": "",
          "type": "address"
        },
        {
          "internalType": "address",
          "name": "",
          "type": "address"
        },
        {
          "internalType": "address",
          "name": "",
          "type": "address"
        },
        {
          "internalType": "uint256",
          "name": "",
          "type": "uint256"
        },
        {
          "internalType": "bytes",
          "name": "",
          "type": "bytes"
        },
        {
          "internalType": "bytes",
          "name": "",
          "type": "bytes"
        }
      ],
      "name": "tokensReceived",
      "outputs": [],
      "stateMutability": "pure",
      "type": "function"
    },
    {
      "inputs": [
        {
          "internalType": "address",
          "name": "newImplementation",
          "type": "address"
        }
      ],
      "name": "upgradeTo",
      "outputs": [],
      "stateMutability": "nonpayable",
      "type": "function"
    },
    {
      "inputs": [
        {
          "internalType": "address",
          "name": "newImplementation",
          "type": "address"
        },
        {
          "internalType": "bytes",
          "name": "data",
          "type": "bytes"
        }
      ],
      "name": "upgradeToAndCall",
      "outputs": [],
      "stateMutability": "payable",
      "type": "function"
    },
    {
      "inputs": [
        {
          "components": [
            {
              "internalType": "address",
              "name": "sender",
              "type": "address"
            },
            {
              "internalType": "uint256",
              "name": "nonce",
              "type": "uint256"
            },
            {
              "internalType": "bytes",
              "name": "initCode",
              "type": "bytes"
            },
            {
              "internalType": "bytes",
              "name": "callData",
              "type": "bytes"
            },
            {
              "internalType": "uint256",
              "name": "callGasLimit",
              "type": "uint256"
            },
            {
              "internalType": "uint256",
              "name": "verificationGasLimit",
              "type": "uint256"
            },
            {
              "internalType": "uint256",
              "name": "preVerificationGas",
              "type": "uint256"
            },
            {
              "internalType": "uint256",
              "name": "maxFeePerGas",
              "type": "uint256"
            },
            {
              "internalType": "uint256",
              "name": "maxPriorityFeePerGas",
              "type": "uint256"
            },
            {
              "internalType": "bytes",
              "name": "paymasterAndData",
              "type": "bytes"
            },
            {
              "internalType": "bytes",
              "name": "signature",
              "type": "bytes"
            }
          ],
          "internalType": "struct UserOperation",
          "name": "userOp",
          "type": "tuple"
        },
        {
          "internalType": "bytes32",
          "name": "userOpHash",
          "type": "bytes32"
        },
        {
          "internalType": "uint256",
          "name": "missingAccountFunds",
          "type": "uint256"
        }
      ],
      "name": "validateUserOp",
      "outputs": [
        {
          "internalType": "uint256",
          "name": "validationData",
          "type": "uint256"
        }
      ],
      "stateMutability": "nonpayable",
      "type": "function"
    },
    {
      "inputs": [
        {
          "internalType": "address payable",
          "name": "withdrawAddress",
          "type": "address"
        },
        {
          "internalType": "uint256",
          "name": "amount",
          "type": "uint256"
        }
      ],
      "name": "withdrawDepositTo",
      "outputs": [],
      "stateMutability": "nonpayable",
      "type": "function"
    },
    {
      "stateMutability": "payable",
      "type": "receive"
    }
  ],
  "bytecode": "0x60c06040523073ffffffffffffffffffffffffffffffffffffffff1660809073ffffffffffffffffffffffffffffffffffffffff168152503480156200004457600080fd5b50604051620038873803806200388783398181016040528101906200006a919062000137565b808073ffffffffffffffffffffffffffffffffffffffff1660a08173ffffffffffffffffffffffffffffffffffffffff1681525050620000af620000b760201b60201c565b505062000169565b565b600080fd5b600073ffffffffffffffffffffffffffffffffffffffff82169050919050565b6000620000eb82620000be565b9050919050565b6000620000ff82620000de565b9050919050565b6200011181620000f2565b81146200011d57600080fd5b50565b600081519050620001318162000106565b92915050565b60006020828403121562000150576200014f620000b9565b5b6000620001608482850162000120565b91505092915050565b60805160a0516136d5620001b260003960008181610c8401526117a601526000818161076d015281816107fb01528181610a6701528181610af50152610ba501526136d56000f3fe60806040526004361061012d5760003560e01c80634f1ef286116100ab578063bc197c811161006f578063bc197c81146103de578063c399ec881461041b578063c4d66de814610446578063cf6dca551461046f578063d087d28814610498578063f23a6e61146104c357610134565b80634f1ef2861461031857806352d1902d146103345780638da5cb5b1461035f578063b0d691fe1461038a578063b61d27f6146103b557610134565b80633a871cdd116100f25780633a871cdd1461022e5780633e4769511461026b5780633fb5a7a1146102a85780634a58db19146102e55780634d44560d146102ef57610134565b806223de291461013957806301ffc9a714610162578063150b7a021461019f57806318dfb3c7146101dc5780633659cfe61461020557610134565b3661013457005b600080fd5b34801561014557600080fd5b50610160600480360381019061015b9190611f00565b610500565b005b34801561016e57600080fd5b5061018960048036038101906101849190612027565b61050a565b604051610196919061206f565b60405180910390f35b3480156101ab57600080fd5b506101c660048036038101906101c1919061208a565b610644565b6040516101d39190612121565b60405180910390f35b3480156101e857600080fd5b5061020360048036038101906101fe91906121e8565b610659565b005b34801561021157600080fd5b5061022c60048036038101906102279190612269565b61076b565b005b34801561023a57600080fd5b50610255600480360381019061025091906122f1565b6108f3565b604051610262919061236f565b60405180910390f35b34801561027757600080fd5b50610292600480360381019061028d9190612269565b610926565b60405161029f91906123ab565b60405180910390f35b3480156102b457600080fd5b506102cf60048036038101906102ca9190612269565b61094b565b6040516102dc91906123ab565b60405180910390f35b6102ed610970565b005b3480156102fb57600080fd5b5061031660048036038101906103119190612404565b6109e5565b005b610332600480360381019061032d9190612585565b610a65565b005b34801561034057600080fd5b50610349610ba1565b60405161035691906125f0565b60405180910390f35b34801561036b57600080fd5b50610374610c5a565b604051610381919061261a565b60405180910390f35b34801561039657600080fd5b5061039f610c80565b6040516103ac9190612694565b60405180910390f35b3480156103c157600080fd5b506103dc60048036038101906103d791906126af565b610ca8565b005b3480156103ea57600080fd5b5061040560048036038101906104009190612779565b610d05565b6040516104129190612121565b60405180910390f35b34801561042757600080fd5b50610430610d1d565b60405161043d919061236f565b60405180910390f35b34801561045257600080fd5b5061046d60048036038101906104689190612269565b610da5565b005b34801561047b57600080fd5b5061049660048036038101906104919190612881565b610ef7565b005b3480156104a457600080fd5b506104ad61101a565b6040516104ba919061236f565b60405180910390f35b3480156104cf57600080fd5b506104ea60048036038101906104e591906128d4565b6110a5565b6040516104f79190612121565b60405180910390f35b5050505050505050565b60007f150b7a02000000000000000000000000000000000000000000000000000000007bffffffffffffffffffffffffffffffffffffffffffffffffffffffff1916827bffffffffffffffffffffffffffffffffffffffffffffffffffffffff191614806105d557507f4e2312e0000000000000000000000000000000000000000000000000000000007bffffffffffffffffffffffffffffffffffffffffffffffffffffffff1916827bffffffffffffffffffffffffffffffffffffffffffffffffffffffff1916145b8061063d57507f01ffc9a7000000000000000000000000000000000000000000000000000000007bffffffffffffffffffffffffffffffffffffffffffffffffffffffff1916827bffffffffffffffffffffffffffffffffffffffffffffffffffffffff1916145b9050919050565b600063150b7a0260e01b905095945050505050565b6106616110bb565b8181905084849050146106a9576040517f08c379a00000000000000000000000000000000000000000000000000000000081526004016106a0906129cb565b60405180910390fd5b60005b84849050811015610764576107518585838181106106cd576106cc6129eb565b5b90506020020160208101906106e29190612269565b60008585858181106106f7576106f66129eb565b5b90506020028101906107099190612a29565b8080601f016020809104026020016040519081016040528093929190818152602001838380828437600081840152601f19601f8201169050808301925050505050505061118a565b808061075c90612abb565b9150506106ac565b5050505050565b7f000000000000000000000000000000000000000000000000000000000000000073ffffffffffffffffffffffffffffffffffffffff163073ffffffffffffffffffffffffffffffffffffffff16036107f9576040517f08c379a00000000000000000000000000000000000000000000000000000000081526004016107f090612b75565b60405180910390fd5b7f000000000000000000000000000000000000000000000000000000000000000073ffffffffffffffffffffffffffffffffffffffff1661083861120e565b73ffffffffffffffffffffffffffffffffffffffff161461088e576040517f08c379a000000000000000000000000000000000000000000000000000000000815260040161088590612c07565b60405180910390fd5b61089781611265565b6108f081600067ffffffffffffffff8111156108b6576108b561245a565b5b6040519080825280601f01601f1916602001820160405280156108e85781602001600182028036833780820191505090505b506000611270565b50565b60006108fd6113de565b6109078484611455565b905061091684602001356115a0565b61091f826115a3565b9392505050565b60026020528060005260406000206000915054906101000a900465ffffffffffff1681565b60016020528060005260406000206000915054906101000a900465ffffffffffff1681565b610978610c80565b73ffffffffffffffffffffffffffffffffffffffff1663b760faf934306040518363ffffffff1660e01b81526004016109b1919061261a565b6000604051808303818588803b1580156109ca57600080fd5b505af11580156109de573d6000803e3d6000fd5b5050505050565b6109ed61163f565b6109f5610c80565b73ffffffffffffffffffffffffffffffffffffffff1663205c287883836040518363ffffffff1660e01b8152600401610a2f929190612c36565b600060405180830381600087803b158015610a4957600080fd5b505af1158015610a5d573d6000803e3d6000fd5b505050505050565b7f000000000000000000000000000000000000000000000000000000000000000073ffffffffffffffffffffffffffffffffffffffff163073ffffffffffffffffffffffffffffffffffffffff1603610af3576040517f08c379a0000000000000000000000000000000000000000000000000000000008152600401610aea90612b75565b60405180910390fd5b7f000000000000000000000000000000000000000000000000000000000000000073ffffffffffffffffffffffffffffffffffffffff16610b3261120e565b73ffffffffffffffffffffffffffffffffffffffff1614610b88576040517f08c379a0000000000000000000000000000000000000000000000000000000008152600401610b7f90612c07565b60405180910390fd5b610b9182611265565b610b9d82826001611270565b5050565b60007f000000000000000000000000000000000000000000000000000000000000000073ffffffffffffffffffffffffffffffffffffffff163073ffffffffffffffffffffffffffffffffffffffff1614610c31576040517f08c379a0000000000000000000000000000000000000000000000000000000008152600401610c2890612cd1565b60405180910390fd5b7f360894a13ba1a3210667c828492db98dca3e2076cc3735a920a3ca505d382bbc60001b905090565b600060029054906101000a900473ffffffffffffffffffffffffffffffffffffffff1681565b60007f0000000000000000000000000000000000000000000000000000000000000000905090565b610cb06110bb565b610cff848484848080601f016020809104026020016040519081016040528093929190818152602001838380828437600081840152601f19601f8201169050808301925050505050505061118a565b50505050565b600063bc197c8160e01b905098975050505050505050565b6000610d27610c80565b73ffffffffffffffffffffffffffffffffffffffff166370a08231306040518263ffffffff1660e01b8152600401610d5f919061261a565b602060405180830381865afa158015610d7c573d6000803e3d6000fd5b505050506040513d601f19601f82011682018060405250810190610da09190612d06565b905090565b60008060019054906101000a900460ff16159050808015610dd65750600160008054906101000a900460ff1660ff16105b80610e035750610de530611707565b158015610e025750600160008054906101000a900460ff1660ff16145b5b610e42576040517f08c379a0000000000000000000000000000000000000000000000000000000008152600401610e3990612da5565b60405180910390fd5b60016000806101000a81548160ff021916908360ff1602179055508015610e7f576001600060016101000a81548160ff0219169083151502179055505b610e888261172a565b610e9a82600065ffffffffffff610ef7565b8015610ef35760008060016101000a81548160ff0219169083151502179055507f7f26b83ff96e1f2b6a682f133852f6798a09c465da95921460cefb38474024986001604051610eea9190612e0d565b60405180910390a15b5050565b610eff61163f565b8165ffffffffffff168165ffffffffffff1611610f51576040517f08c379a0000000000000000000000000000000000000000000000000000000008152600401610f4890612e74565b60405180910390fd5b81600160008573ffffffffffffffffffffffffffffffffffffffff1673ffffffffffffffffffffffffffffffffffffffff16815260200190815260200160002060006101000a81548165ffffffffffff021916908365ffffffffffff16021790555080600260008573ffffffffffffffffffffffffffffffffffffffff1673ffffffffffffffffffffffffffffffffffffffff16815260200190815260200160002060006101000a81548165ffffffffffff021916908365ffffffffffff160217905550505050565b6000611024610c80565b73ffffffffffffffffffffffffffffffffffffffff166335567e1a3060006040518363ffffffff1660e01b815260040161105f929190612ef3565b602060405180830381865afa15801561107c573d6000803e3d6000fd5b505050506040513d601f19601f820116820180604052508101906110a09190612d06565b905090565b600063f23a6e6160e01b90509695505050505050565b6110c3610c80565b73ffffffffffffffffffffffffffffffffffffffff163373ffffffffffffffffffffffffffffffffffffffff1614806111495750600060029054906101000a900473ffffffffffffffffffffffffffffffffffffffff1673ffffffffffffffffffffffffffffffffffffffff163373ffffffffffffffffffffffffffffffffffffffff16145b611188576040517f08c379a000000000000000000000000000000000000000000000000000000000815260040161117f90612f68565b60405180910390fd5b565b6000808473ffffffffffffffffffffffffffffffffffffffff1684846040516111b39190612ff9565b60006040518083038185875af1925050503d80600081146111f0576040519150601f19603f3d011682016040523d82523d6000602084013e6111f5565b606091505b50915091508161120757805160208201fd5b5050505050565b600061123c7f360894a13ba1a3210667c828492db98dca3e2076cc3735a920a3ca505d382bbc60001b61180a565b60000160009054906101000a900473ffffffffffffffffffffffffffffffffffffffff16905090565b61126d61163f565b50565b61129c7f4910fdfa16fed3260ed0e7147f7cc6da11a60208b5b9406d12a635614ffd914360001b611814565b60000160009054906101000a900460ff16156112c0576112bb8361181e565b6113d9565b8273ffffffffffffffffffffffffffffffffffffffff166352d1902d6040518163ffffffff1660e01b8152600401602060405180830381865afa92505050801561132857506040513d601f19601f820116820180604052508101906113259190613025565b60015b611367576040517f08c379a000000000000000000000000000000000000000000000000000000000815260040161135e906130c4565b60405180910390fd5b7f360894a13ba1a3210667c828492db98dca3e2076cc3735a920a3ca505d382bbc60001b81146113cc576040517f08c379a00000000000000000000000000000000000000000000000000000000081526004016113c390613156565b60405180910390fd5b506113d88383836118d7565b5b505050565b6113e6610c80565b73ffffffffffffffffffffffffffffffffffffffff163373ffffffffffffffffffffffffffffffffffffffff1614611453576040517f08c379a000000000000000000000000000000000000000000000000000000000815260040161144a906131c2565b60405180910390fd5b565b60008061146183611903565b905060006114cb858061014001906114799190612a29565b8080601f016020809104026020016040519081016040528093929190818152602001838380828437600081840152601f19601f820116905080830192505050505050508361193390919063ffffffff16565b90506000600260008373ffffffffffffffffffffffffffffffffffffffff1673ffffffffffffffffffffffffffffffffffffffff16815260200190815260200160002060009054906101000a900465ffffffffffff1690506000600160008473ffffffffffffffffffffffffffffffffffffffff1673ffffffffffffffffffffffffffffffffffffffff16815260200190815260200160002060009054906101000a900465ffffffffffff1690506000808365ffffffffffff1614905061159381848461195a565b9550505050505092915050565b50565b6000811461163c5760003373ffffffffffffffffffffffffffffffffffffffff16827fffffffffffffffffffffffffffffffffffffffffffffffffffffffffffffffff906040516115f390613208565b600060405180830381858888f193505050503d8060008114611631576040519150601f19603f3d011682016040523d82523d6000602084013e611636565b606091505b50509050505b50565b600060029054906101000a900473ffffffffffffffffffffffffffffffffffffffff1673ffffffffffffffffffffffffffffffffffffffff163373ffffffffffffffffffffffffffffffffffffffff1614806116c657503073ffffffffffffffffffffffffffffffffffffffff163373ffffffffffffffffffffffffffffffffffffffff16145b611705576040517f08c379a00000000000000000000000000000000000000000000000000000000081526004016116fc90613269565b60405180910390fd5b565b6000808273ffffffffffffffffffffffffffffffffffffffff163b119050919050565b80600060026101000a81548173ffffffffffffffffffffffffffffffffffffffff021916908373ffffffffffffffffffffffffffffffffffffffff160217905550600060029054906101000a900473ffffffffffffffffffffffffffffffffffffffff1673ffffffffffffffffffffffffffffffffffffffff167f000000000000000000000000000000000000000000000000000000000000000073ffffffffffffffffffffffffffffffffffffffff167f47e55c76e7a6f1fd8996a1da8008c1ea29699cca35e7bcd057f2dec313b6e5de60405160405180910390a350565b6000819050919050565b6000819050919050565b61182781611707565b611866576040517f08c379a000000000000000000000000000000000000000000000000000000000815260040161185d906132fb565b60405180910390fd5b806118937f360894a13ba1a3210667c828492db98dca3e2076cc3735a920a3ca505d382bbc60001b61180a565b60000160006101000a81548173ffffffffffffffffffffffffffffffffffffffff021916908373ffffffffffffffffffffffffffffffffffffffff16021790555050565b6118e083611993565b6000825111806118ed5750805b156118fe576118fc83836119e2565b505b505050565b6000816040516020016119169190613393565b604051602081830303815290604052805190602001209050919050565b60008060006119428585611a0f565b9150915061194f81611a60565b819250505092915050565b600060d08265ffffffffffff16901b60a08465ffffffffffff16901b85611982576000611985565b60015b60ff16171790509392505050565b61199c8161181e565b8073ffffffffffffffffffffffffffffffffffffffff167fbc7cd75a20ee27fd9adebab32041f755214dbc6bffa90cc0225b39da2e5c2d3b60405160405180910390a250565b6060611a07838360405180606001604052806027815260200161367960279139611bc6565b905092915050565b6000806041835103611a505760008060006020860151925060408601519150606086015160001a9050611a4487828585611c4c565b94509450505050611a59565b60006002915091505b9250929050565b60006004811115611a7457611a736133b9565b5b816004811115611a8757611a866133b9565b5b0315611bc35760016004811115611aa157611aa06133b9565b5b816004811115611ab457611ab36133b9565b5b03611af4576040517f08c379a0000000000000000000000000000000000000000000000000000000008152600401611aeb90613434565b60405180910390fd5b60026004811115611b0857611b076133b9565b5b816004811115611b1b57611b1a6133b9565b5b03611b5b576040517f08c379a0000000000000000000000000000000000000000000000000000000008152600401611b52906134a0565b60405180910390fd5b60036004811115611b6f57611b6e6133b9565b5b816004811115611b8257611b816133b9565b5b03611bc2576040517f08c379a0000000000000000000000000000000000000000000000000000000008152600401611bb990613532565b60405180910390fd5b5b50565b60606000808573ffffffffffffffffffffffffffffffffffffffff1685604051611bf09190612ff9565b600060405180830381855af49150503d8060008114611c2b576040519150601f19603f3d011682016040523d82523d6000602084013e611c30565b606091505b5091509150611c4186838387611d2e565b925050509392505050565b6000807f7fffffffffffffffffffffffffffffff5d576e7357a4501ddfe92f46681b20a08360001c1115611c87576000600391509150611d25565b600060018787878760405160008152602001604052604051611cac9493929190613561565b6020604051602081039080840390855afa158015611cce573d6000803e3d6000fd5b505050602060405103519050600073ffffffffffffffffffffffffffffffffffffffff168173ffffffffffffffffffffffffffffffffffffffff1603611d1c57600060019250925050611d25565b80600092509250505b94509492505050565b60608315611d90576000835103611d8857611d4885611707565b611d87576040517f08c379a0000000000000000000000000000000000000000000000000000000008152600401611d7e906135f2565b60405180910390fd5b5b829050611d9b565b611d9a8383611da3565b5b949350505050565b600082511115611db65781518083602001fd5b806040517f08c379a0000000000000000000000000000000000000000000000000000000008152600401611dea9190613656565b60405180910390fd5b6000604051905090565b600080fd5b600080fd5b600073ffffffffffffffffffffffffffffffffffffffff82169050919050565b6000611e3282611e07565b9050919050565b611e4281611e27565b8114611e4d57600080fd5b50565b600081359050611e5f81611e39565b92915050565b6000819050919050565b611e7881611e65565b8114611e8357600080fd5b50565b600081359050611e9581611e6f565b92915050565b600080fd5b600080fd5b600080fd5b60008083601f840112611ec057611ebf611e9b565b5b8235905067ffffffffffffffff811115611edd57611edc611ea0565b5b602083019150836001820283011115611ef957611ef8611ea5565b5b9250929050565b60008060008060008060008060c0898b031215611f2057611f1f611dfd565b5b6000611f2e8b828c01611e50565b9850506020611f3f8b828c01611e50565b9750506040611f508b828c01611e50565b9650506060611f618b828c01611e86565b955050608089013567ffffffffffffffff811115611f8257611f81611e02565b5b611f8e8b828c01611eaa565b945094505060a089013567ffffffffffffffff811115611fb157611fb0611e02565b5b611fbd8b828c01611eaa565b92509250509295985092959890939650565b60007fffffffff0000000000000000000000000000000000000000000000000000000082169050919050565b61200481611fcf565b811461200f57600080fd5b50565b60008135905061202181611ffb565b92915050565b60006020828403121561203d5761203c611dfd565b5b600061204b84828501612012565b91505092915050565b60008115159050919050565b61206981612054565b82525050565b60006020820190506120846000830184612060565b92915050565b6000806000806000608086880312156120a6576120a5611dfd565b5b60006120b488828901611e50565b95505060206120c588828901611e50565b94505060406120d688828901611e86565b935050606086013567ffffffffffffffff8111156120f7576120f6611e02565b5b61210388828901611eaa565b92509250509295509295909350565b61211b81611fcf565b82525050565b60006020820190506121366000830184612112565b92915050565b60008083601f84011261215257612151611e9b565b5b8235905067ffffffffffffffff81111561216f5761216e611ea0565b5b60208301915083602082028301111561218b5761218a611ea5565b5b9250929050565b60008083601f8401126121a8576121a7611e9b565b5b8235905067ffffffffffffffff8111156121c5576121c4611ea0565b5b6020830191508360208202830111156121e1576121e0611ea5565b5b9250929050565b6000806000806040858703121561220257612201611dfd565b5b600085013567ffffffffffffffff8111156122205761221f611e02565b5b61222c8782880161213c565b9450945050602085013567ffffffffffffffff81111561224f5761224e611e02565b5b61225b87828801612192565b925092505092959194509250565b60006020828403121561227f5761227e611dfd565b5b600061228d84828501611e50565b91505092915050565b600080fd5b600061016082840312156122b2576122b1612296565b5b81905092915050565b6000819050919050565b6122ce816122bb565b81146122d957600080fd5b50565b6000813590506122eb816122c5565b92915050565b60008060006060848603121561230a57612309611dfd565b5b600084013567ffffffffffffffff81111561232857612327611e02565b5b6123348682870161229b565b9350506020612345868287016122dc565b925050604061235686828701611e86565b9150509250925092565b61236981611e65565b82525050565b60006020820190506123846000830184612360565b92915050565b600065ffffffffffff82169050919050565b6123a58161238a565b82525050565b60006020820190506123c0600083018461239c565b92915050565b60006123d182611e07565b9050919050565b6123e1816123c6565b81146123ec57600080fd5b50565b6000813590506123fe816123d8565b92915050565b6000806040838503121561241b5761241a611dfd565b5b6000612429858286016123ef565b925050602061243a85828601611e86565b9150509250929050565b600080fd5b6000601f19601f8301169050919050565b7f4e487b7100000000000000000000000000000000000000000000000000000000600052604160045260246000fd5b61249282612449565b810181811067ffffffffffffffff821117156124b1576124b061245a565b5b80604052505050565b60006124c4611df3565b90506124d08282612489565b919050565b600067ffffffffffffffff8211156124f0576124ef61245a565b5b6124f982612449565b9050602081019050919050565b82818337600083830152505050565b6000612528612523846124d5565b6124ba565b90508281526020810184848401111561254457612543612444565b5b61254f848285612506565b509392505050565b600082601f83011261256c5761256b611e9b565b5b813561257c848260208601612515565b91505092915050565b6000806040838503121561259c5761259b611dfd565b5b60006125aa85828601611e50565b925050602083013567ffffffffffffffff8111156125cb576125ca611e02565b5b6125d785828601612557565b9150509250929050565b6125ea816122bb565b82525050565b600060208201905061260560008301846125e1565b92915050565b61261481611e27565b82525050565b600060208201905061262f600083018461260b565b92915050565b6000819050919050565b600061265a61265561265084611e07565b612635565b611e07565b9050919050565b600061266c8261263f565b9050919050565b600061267e82612661565b9050919050565b61268e81612673565b82525050565b60006020820190506126a96000830184612685565b92915050565b600080600080606085870312156126c9576126c8611dfd565b5b60006126d787828801611e50565b94505060206126e887828801611e86565b935050604085013567ffffffffffffffff81111561270957612708611e02565b5b61271587828801611eaa565b925092505092959194509250565b60008083601f84011261273957612738611e9b565b5b8235905067ffffffffffffffff81111561275657612755611ea0565b5b60208301915083602082028301111561277257612771611ea5565b5b9250929050565b60008060008060008060008060a0898b03121561279957612798611dfd565b5b60006127a78b828c01611e50565b98505060206127b88b828c01611e50565b975050604089013567ffffffffffffffff8111156127d9576127d8611e02565b5b6127e58b828c01612723565b9650965050606089013567ffffffffffffffff81111561280857612807611e02565b5b6128148b828c01612723565b9450945050608089013567ffffffffffffffff81111561283757612836611e02565b5b6128438b828c01611eaa565b92509250509295985092959890939650565b61285e8161238a565b811461286957600080fd5b50565b60008135905061287b81612855565b92915050565b60008060006060848603121561289a57612899611dfd565b5b60006128a886828701611e50565b93505060206128b98682870161286c565b92505060406128ca8682870161286c565b9150509250925092565b60008060008060008060a087890312156128f1576128f0611dfd565b5b60006128ff89828a01611e50565b965050602061291089828a01611e50565b955050604061292189828a01611e86565b945050606061293289828a01611e86565b935050608087013567ffffffffffffffff81111561295357612952611e02565b5b61295f89828a01611eaa565b92509250509295509295509295565b600082825260208201905092915050565b7f77726f6e67206172726179206c656e6774687300000000000000000000000000600082015250565b60006129b560138361296e565b91506129c08261297f565b602082019050919050565b600060208201905081810360008301526129e4816129a8565b9050919050565b7f4e487b7100000000000000000000000000000000000000000000000000000000600052603260045260246000fd5b600080fd5b600080fd5b600080fd5b60008083356001602003843603038112612a4657612a45612a1a565b5b80840192508235915067ffffffffffffffff821115612a6857612a67612a1f565b5b602083019250600182023603831315612a8457612a83612a24565b5b509250929050565b7f4e487b7100000000000000000000000000000000000000000000000000000000600052601160045260246000fd5b6000612ac682611e65565b91507fffffffffffffffffffffffffffffffffffffffffffffffffffffffffffffffff8203612af857612af7612a8c565b5b600182019050919050565b7f46756e6374696f6e206d7573742062652063616c6c6564207468726f7567682060008201527f64656c656761746563616c6c0000000000000000000000000000000000000000602082015250565b6000612b5f602c8361296e565b9150612b6a82612b03565b604082019050919050565b60006020820190508181036000830152612b8e81612b52565b9050919050565b7f46756e6374696f6e206d7573742062652063616c6c6564207468726f7567682060008201527f6163746976652070726f78790000000000000000000000000000000000000000602082015250565b6000612bf1602c8361296e565b9150612bfc82612b95565b604082019050919050565b60006020820190508181036000830152612c2081612be4565b9050919050565b612c30816123c6565b82525050565b6000604082019050612c4b6000830185612c27565b612c586020830184612360565b9392505050565b7f555550535570677261646561626c653a206d757374206e6f742062652063616c60008201527f6c6564207468726f7567682064656c656761746563616c6c0000000000000000602082015250565b6000612cbb60388361296e565b9150612cc682612c5f565b604082019050919050565b60006020820190508181036000830152612cea81612cae565b9050919050565b600081519050612d0081611e6f565b92915050565b600060208284031215612d1c57612d1b611dfd565b5b6000612d2a84828501612cf1565b91505092915050565b7f496e697469616c697a61626c653a20636f6e747261637420697320616c72656160008201527f647920696e697469616c697a6564000000000000000000000000000000000000602082015250565b6000612d8f602e8361296e565b9150612d9a82612d33565b604082019050919050565b60006020820190508181036000830152612dbe81612d82565b9050919050565b6000819050919050565b600060ff82169050919050565b6000612df7612df2612ded84612dc5565b612635565b612dcf565b9050919050565b612e0781612ddc565b82525050565b6000602082019050612e226000830184612dfe565b92915050565b7f77726f6e6720756e74696c2f6166746572000000000000000000000000000000600082015250565b6000612e5e60118361296e565b9150612e6982612e28565b602082019050919050565b60006020820190508181036000830152612e8d81612e51565b9050919050565b6000819050919050565b600077ffffffffffffffffffffffffffffffffffffffffffffffff82169050919050565b6000612edd612ed8612ed384612e94565b612635565b612e9e565b9050919050565b612eed81612ec2565b82525050565b6000604082019050612f08600083018561260b565b612f156020830184612ee4565b9392505050565b7f6163636f756e743a206e6f74204f776e6572206f7220456e747279506f696e74600082015250565b6000612f5260208361296e565b9150612f5d82612f1c565b602082019050919050565b60006020820190508181036000830152612f8181612f45565b9050919050565b600081519050919050565b600081905092915050565b60005b83811015612fbc578082015181840152602081019050612fa1565b60008484015250505050565b6000612fd382612f88565b612fdd8185612f93565b9350612fed818560208601612f9e565b80840191505092915050565b60006130058284612fc8565b915081905092915050565b60008151905061301f816122c5565b92915050565b60006020828403121561303b5761303a611dfd565b5b600061304984828501613010565b91505092915050565b7f45524331393637557067726164653a206e657720696d706c656d656e7461746960008201527f6f6e206973206e6f742055555053000000000000000000000000000000000000602082015250565b60006130ae602e8361296e565b91506130b982613052565b604082019050919050565b600060208201905081810360008301526130dd816130a1565b9050919050565b7f45524331393637557067726164653a20756e737570706f727465642070726f7860008201527f6961626c65555549440000000000000000000000000000000000000000000000602082015250565b600061314060298361296e565b915061314b826130e4565b604082019050919050565b6000602082019050818103600083015261316f81613133565b9050919050565b7f6163636f756e743a206e6f742066726f6d20456e747279506f696e7400000000600082015250565b60006131ac601c8361296e565b91506131b782613176565b602082019050919050565b600060208201905081810360008301526131db8161319f565b9050919050565b50565b60006131f2600083612f93565b91506131fd826131e2565b600082019050919050565b6000613213826131e5565b9150819050919050565b7f6f6e6c79206f776e657200000000000000000000000000000000000000000000600082015250565b6000613253600a8361296e565b915061325e8261321d565b602082019050919050565b6000602082019050818103600083015261328281613246565b9050919050565b7f455243313936373a206e657720696d706c656d656e746174696f6e206973206e60008201527f6f74206120636f6e747261637400000000000000000000000000000000000000602082015250565b60006132e5602d8361296e565b91506132f082613289565b604082019050919050565b60006020820190508181036000830152613314816132d8565b9050919050565b600081905092915050565b7f19457468657265756d205369676e6564204d6573736167653a0a333200000000600082015250565b600061335c601c8361331b565b915061336782613326565b601c82019050919050565b6000819050919050565b61338d613388826122bb565b613372565b82525050565b600061339e8261334f565b91506133aa828461337c565b60208201915081905092915050565b7f4e487b7100000000000000000000000000000000000000000000000000000000600052602160045260246000fd5b7f45434453413a20696e76616c6964207369676e61747572650000000000000000600082015250565b600061341e60188361296e565b9150613429826133e8565b602082019050919050565b6000602082019050818103600083015261344d81613411565b9050919050565b7f45434453413a20696e76616c6964207369676e6174757265206c656e67746800600082015250565b600061348a601f8361296e565b915061349582613454565b602082019050919050565b600060208201905081810360008301526134b98161347d565b9050919050565b7f45434453413a20696e76616c6964207369676e6174757265202773272076616c60008201527f7565000000000000000000000000000000000000000000000000000000000000602082015250565b600061351c60228361296e565b9150613527826134c0565b604082019050919050565b6000602082019050818103600083015261354b8161350f565b9050919050565b61355b81612dcf565b82525050565b600060808201905061357660008301876125e1565b6135836020830186613552565b61359060408301856125e1565b61359d60608301846125e1565b95945050505050565b7f416464726573733a2063616c6c20746f206e6f6e2d636f6e7472616374000000600082015250565b60006135dc601d8361296e565b91506135e7826135a6565b602082019050919050565b6000602082019050818103600083015261360b816135cf565b9050919050565b600081519050919050565b600061362882613612565b613632818561296e565b9350613642818560208601612f9e565b61364b81612449565b840191505092915050565b60006020820190508181036000830152613670818461361d565b90509291505056fe416464726573733a206c6f772d6c6576656c2064656c65676174652063616c6c206661696c6564a2646970667358221220f848d0cf672891feda505fac06a7b13370cb26ecaf2dbbee2c5c3b87329c089c64736f6c63430008110033",
  "linkReferences": {},
  "deployedLinkReferences": {}
}