{
  "_format": "hh-sol-artifact-1",
  "contractName": "BLSAccountFactory",
  "sourceName": "contracts/samples/bls/BLSAccountFactory.sol",
  "abi": [
    {
      "inputs": [
        {
          "internalType": "contract IEntryPoint",
          "name": "entryPoint",
          "type": "address"
        },
        {
          "internalType": "address",
          "name": "aggregator",
          "type": "address"
        }
      ],
      "stateMutability": "nonpayable",
      "type": "constructor"
    },
    {
      "inputs": [],
      "name": "accountImplementation",
      "outputs": [
        {
          "internalType": "contract BLSAccount",
          "name": "",
          "type": "address"
        }
      ],
      "stateMutability": "view",
      "type": "function"
    },
    {
      "inputs": [
        {
          "internalType": "uint256",
          "name": "salt",
          "type": "uint256"
        },
        {
          "internalType": "uint256[4]",
          "name": "aPublicKey",
          "type": "uint256[4]"
        }
      ],
      "name": "createAccount",
      "outputs": [
        {
          "internalType": "contract BLSAccount",
          "name": "",
          "type": "address"
        }
      ],
      "stateMutability": "nonpayable",
      "type": "function"
    },
    {
      "inputs": [
        {
          "internalType": "uint256",
          "name": "salt",
          "type": "uint256"
        },
        {
          "internalType": "uint256[4]",
          "name": "aPublicKey",
          "type": "uint256[4]"
        }
      ],
      "name": "getAddress",
      "outputs": [
        {
          "internalType": "address",
          "name": "",
          "type": "address"
        }
      ],
      "stateMutability": "view",
      "type": "function"
    }
  ],
  "bytecode": "0x60a06040523480156200001157600080fd5b50604051620052773803806200527783398181016040528101906200003791906200016a565b81816040516200004790620000ad565b620000549291906200022d565b604051809103906000f08015801562000071573d6000803e3d6000fd5b5073ffffffffffffffffffffffffffffffffffffffff1660808173ffffffffffffffffffffffffffffffffffffffff168152505050506200025a565b613914806200196383390190565b600080fd5b600073ffffffffffffffffffffffffffffffffffffffff82169050919050565b6000620000ed82620000c0565b9050919050565b60006200010182620000e0565b9050919050565b6200011381620000f4565b81146200011f57600080fd5b50565b600081519050620001338162000108565b92915050565b6200014481620000e0565b81146200015057600080fd5b50565b600081519050620001648162000139565b92915050565b60008060408385031215620001845762000183620000bb565b5b6000620001948582860162000122565b9250506020620001a78582860162000153565b9150509250929050565b6000819050919050565b6000620001dc620001d6620001d084620000c0565b620001b1565b620000c0565b9050919050565b6000620001f082620001bb565b9050919050565b60006200020482620001e3565b9050919050565b6200021681620001f7565b82525050565b6200022781620000e0565b82525050565b60006040820190506200024460008301856200020b565b6200025360208301846200021c565b9392505050565b6080516116e0620002836000396000818160db015281816101d901526102cb01526116e06000f3fe60806040523480156200001157600080fd5b5060043610620000465760003560e01c806311464fbe146200004b57806319c2a1b2146200006d578063de3398dd14620000a3575b600080fd5b62000055620000d9565b60405162000064919062000476565b60405180910390f35b6200008b600480360381019062000085919062000507565b620000fd565b6040516200009a919062000476565b60405180910390f35b620000c16004803603810190620000bb9190620006ac565b62000299565b604051620000d0919062000718565b60405180910390f35b7f000000000000000000000000000000000000000000000000000000000000000081565b6000808290506080600036905062000116919062000764565b81146200015a576040517f08c379a0000000000000000000000000000000000000000000000000000000008152600401620001519062000800565b60405180910390fd5b60006200019f85856004806020026040519081016040528092919082600460200280828437600081840152601f19601f82011690508083019250505050505062000299565b905060008173ffffffffffffffffffffffffffffffffffffffff163b90506000811115620001d35781935050505062000293565b8560001b7f0000000000000000000000000000000000000000000000000000000000000000866040516024016200020b91906200083d565b60405160208183030381529060405263ee472f3660e01b6020820180517bffffffffffffffffffffffffffffffffffffffffffffffffffffffff83818316178352505050506040516200025e90620003dd565b6200026b929190620008e3565b8190604051809103906000f59050801580156200028c573d6000803e3d6000fd5b5093505050505b92915050565b6000620003938360001b60405180602001620002b590620003dd565b6020820181038252601f19601f820116604052507f000000000000000000000000000000000000000000000000000000000000000085604051602401620002fd9190620009d2565b60405160208183030381529060405263ee472f3660e01b6020820180517bffffffffffffffffffffffffffffffffffffffffffffffffffffffff838183161783525050505060405160200162000355929190620008e3565b6040516020818303038152906040526040516020016200037792919062000a31565b604051602081830303815290604052805190602001206200039b565b905092915050565b6000620003aa838330620003b2565b905092915050565b6000604051836040820152846020820152828152600b810160ff815360558120925050509392505050565b610c518062000a5a83390190565b600073ffffffffffffffffffffffffffffffffffffffff82169050919050565b6000819050919050565b600062000436620004306200042a84620003eb565b6200040b565b620003eb565b9050919050565b60006200044a8262000415565b9050919050565b60006200045e826200043d565b9050919050565b620004708162000451565b82525050565b60006020820190506200048d600083018462000465565b92915050565b6000604051905090565b600080fd5b6000819050919050565b620004b781620004a2565b8114620004c357600080fd5b50565b600081359050620004d781620004ac565b92915050565b600080fd5b600081905082602060040282011115620005015762000500620004dd565b5b92915050565b60008060a083850312156200052157620005206200049d565b5b60006200053185828601620004c6565b92505060206200054485828601620004e2565b9150509250929050565b600080fd5b6000601f19601f8301169050919050565b7f4e487b7100000000000000000000000000000000000000000000000000000000600052604160045260246000fd5b6200059e8262000553565b810181811067ffffffffffffffff82111715620005c057620005bf62000564565b5b80604052505050565b6000620005d562000493565b9050620005e3828262000593565b919050565b600067ffffffffffffffff82111562000606576200060562000564565b5b602082029050919050565b6000620006286200062284620005e8565b620005c9565b90508060208402830185811115620006455762000644620004dd565b5b835b818110156200067257806200065d8882620004c6565b84526020840193505060208101905062000647565b5050509392505050565b600082601f8301126200069457620006936200054e565b5b6004620006a384828562000611565b91505092915050565b60008060a08385031215620006c657620006c56200049d565b5b6000620006d685828601620004c6565b9250506020620006e9858286016200067c565b9150509250929050565b60006200070082620003eb565b9050919050565b6200071281620006f3565b82525050565b60006020820190506200072f600083018462000707565b92915050565b7f4e487b7100000000000000000000000000000000000000000000000000000000600052601160045260246000fd5b60006200077182620004a2565b91506200077e83620004a2565b925082820390508181111562000799576200079862000735565b5b92915050565b600082825260208201905092915050565b7f77726f6e67207075626b6579206f666673657400000000000000000000000000600082015250565b6000620007e86013836200079f565b9150620007f582620007b0565b602082019050919050565b600060208201905081810360008301526200081b81620007d9565b9050919050565b82818337505050565b620008396080838362000822565b5050565b60006080820190506200085460008301846200082b565b92915050565b600081519050919050565b600082825260208201905092915050565b60005b838110156200089657808201518184015260208101905062000879565b60008484015250505050565b6000620008af826200085a565b620008bb818562000865565b9350620008cd81856020860162000876565b620008d88162000553565b840191505092915050565b6000604082019050620008fa600083018562000707565b81810360208301526200090e8184620008a2565b90509392505050565b600060049050919050565b600081905092915050565b6000819050919050565b6200094281620004a2565b82525050565b600062000956838362000937565b60208301905092915050565b6000602082019050919050565b6200097a8162000917565b62000986818462000922565b925062000993826200092d565b8060005b83811015620009ca578151620009ae878262000948565b9650620009bb8362000962565b92505060018101905062000997565b505050505050565b6000608082019050620009e960008301846200096f565b92915050565b600081905092915050565b600062000a07826200085a565b62000a138185620009ef565b935062000a2581856020860162000876565b80840191505092915050565b600062000a3f8285620009fa565b915062000a4d8284620009fa565b9150819050939250505056fe608060405260405162000c5138038062000c51833981810160405281019062000029919062000580565b6200003d828260006200004560201b60201c565b5050620007d7565b62000056836200008860201b60201c565b600082511180620000645750805b156200008357620000818383620000df60201b620000371760201c565b505b505050565b62000099816200011560201b60201c565b8073ffffffffffffffffffffffffffffffffffffffff167fbc7cd75a20ee27fd9adebab32041f755214dbc6bffa90cc0225b39da2e5c2d3b60405160405180910390a250565b60606200010d838360405180606001604052806027815260200162000c2a60279139620001eb60201b60201c565b905092915050565b6200012b816200027d60201b620000641760201c565b6200016d576040517f08c379a000000000000000000000000000000000000000000000000000000000815260040162000164906200066d565b60405180910390fd5b80620001a77f360894a13ba1a3210667c828492db98dca3e2076cc3735a920a3ca505d382bbc60001b620002a060201b620000871760201c565b60000160006101000a81548173ffffffffffffffffffffffffffffffffffffffff021916908373ffffffffffffffffffffffffffffffffffffffff16021790555050565b60606000808573ffffffffffffffffffffffffffffffffffffffff1685604051620002179190620006dc565b600060405180830381855af49150503d806000811462000254576040519150601f19603f3d011682016040523d82523d6000602084013e62000259565b606091505b50915091506200027286838387620002aa60201b60201c565b925050509392505050565b6000808273ffffffffffffffffffffffffffffffffffffffff163b119050919050565b6000819050919050565b606083156200031a5760008351036200031157620002ce856200027d60201b60201c565b62000310576040517f08c379a0000000000000000000000000000000000000000000000000000000008152600401620003079062000745565b60405180910390fd5b5b8290506200032d565b6200032c83836200033560201b60201c565b5b949350505050565b600082511115620003495781518083602001fd5b806040517f08c379a00000000000000000000000000000000000000000000000000000000081526004016200037f9190620007b3565b60405180910390fd5b6000604051905090565b600080fd5b600080fd5b600073ffffffffffffffffffffffffffffffffffffffff82169050919050565b6000620003c9826200039c565b9050919050565b620003db81620003bc565b8114620003e757600080fd5b50565b600081519050620003fb81620003d0565b92915050565b600080fd5b600080fd5b6000601f19601f8301169050919050565b7f4e487b7100000000000000000000000000000000000000000000000000000000600052604160045260246000fd5b62000456826200040b565b810181811067ffffffffffffffff821117156200047857620004776200041c565b5b80604052505050565b60006200048d62000388565b90506200049b82826200044b565b919050565b600067ffffffffffffffff821115620004be57620004bd6200041c565b5b620004c9826200040b565b9050602081019050919050565b60005b83811015620004f6578082015181840152602081019050620004d9565b60008484015250505050565b6000620005196200051384620004a0565b62000481565b90508281526020810184848401111562000538576200053762000406565b5b62000545848285620004d6565b509392505050565b600082601f83011262000565576200056462000401565b5b81516200057784826020860162000502565b91505092915050565b600080604083850312156200059a576200059962000392565b5b6000620005aa85828601620003ea565b925050602083015167ffffffffffffffff811115620005ce57620005cd62000397565b5b620005dc858286016200054d565b9150509250929050565b600082825260208201905092915050565b7f455243313936373a206e657720696d706c656d656e746174696f6e206973206e60008201527f6f74206120636f6e747261637400000000000000000000000000000000000000602082015250565b600062000655602d83620005e6565b91506200066282620005f7565b604082019050919050565b60006020820190508181036000830152620006888162000646565b9050919050565b600081519050919050565b600081905092915050565b6000620006b2826200068f565b620006be81856200069a565b9350620006d0818560208601620004d6565b80840191505092915050565b6000620006ea8284620006a5565b915081905092915050565b7f416464726573733a2063616c6c20746f206e6f6e2d636f6e7472616374000000600082015250565b60006200072d601d83620005e6565b91506200073a82620006f5565b602082019050919050565b6000602082019050818103600083015262000760816200071e565b9050919050565b600081519050919050565b60006200077f8262000767565b6200078b8185620005e6565b93506200079d818560208601620004d6565b620007a8816200040b565b840191505092915050565b60006020820190508181036000830152620007cf818462000772565b905092915050565b61044380620007e76000396000f3fe6080604052366100135761001161001d565b005b61001b61001d565b005b610025610091565b610035610030610093565b6100a2565b565b606061005c83836040518060600160405280602781526020016103e7602791396100c8565b905092915050565b6000808273ffffffffffffffffffffffffffffffffffffffff163b119050919050565b6000819050919050565b565b600061009d61014e565b905090565b3660008037600080366000845af43d6000803e80600081146100c3573d6000f35b3d6000fd5b60606000808573ffffffffffffffffffffffffffffffffffffffff16856040516100f291906102db565b600060405180830381855af49150503d806000811461012d576040519150601f19603f3d011682016040523d82523d6000602084013e610132565b606091505b5091509150610143868383876101a5565b925050509392505050565b600061017c7f360894a13ba1a3210667c828492db98dca3e2076cc3735a920a3ca505d382bbc60001b610087565b60000160009054906101000a900473ffffffffffffffffffffffffffffffffffffffff16905090565b606083156102075760008351036101ff576101bf85610064565b6101fe576040517f08c379a00000000000000000000000000000000000000000000000000000000081526004016101f59061034f565b60405180910390fd5b5b829050610212565b610211838361021a565b5b949350505050565b60008251111561022d5781518083602001fd5b806040517f08c379a000000000000000000000000000000000000000000000000000000000815260040161026191906103c4565b60405180910390fd5b600081519050919050565b600081905092915050565b60005b8381101561029e578082015181840152602081019050610283565b60008484015250505050565b60006102b58261026a565b6102bf8185610275565b93506102cf818560208601610280565b80840191505092915050565b60006102e782846102aa565b915081905092915050565b600082825260208201905092915050565b7f416464726573733a2063616c6c20746f206e6f6e2d636f6e7472616374000000600082015250565b6000610339601d836102f2565b915061034482610303565b602082019050919050565b600060208201905081810360008301526103688161032c565b9050919050565b600081519050919050565b6000601f19601f8301169050919050565b60006103968261036f565b6103a081856102f2565b93506103b0818560208601610280565b6103b98161037a565b840191505092915050565b600060208201905081810360008301526103de818461038b565b90509291505056fe416464726573733a206c6f772d6c6576656c2064656c65676174652063616c6c206661696c6564a2646970667358221220e57dd3eafc9985be746025b6d82d4f011b9a7bb3db56f9a1eb7eadfddd376b6064736f6c63430008110033416464726573733a206c6f772d6c6576656c2064656c65676174652063616c6c206661696c6564a264697066735822122075f2eda4ac42bfdc9039a083eb07baa02b298baa6bb9a040321d036b223354a664736f6c6343000811003360e06040523073ffffffffffffffffffffffffffffffffffffffff1660809073ffffffffffffffffffffffffffffffffffffffff168152503480156200004457600080fd5b50604051620039143803806200391483398181016040528101906200006a919062000262565b818073ffffffffffffffffffffffffffffffffffffffff1660a08173ffffffffffffffffffffffffffffffffffffffff1681525050620000af620000ec60201b60201c565b508073ffffffffffffffffffffffffffffffffffffffff1660c08173ffffffffffffffffffffffffffffffffffffffff168152505050506200038d565b600060019054906101000a900460ff16156200013f576040517f08c379a0000000000000000000000000000000000000000000000000000000008152600401620001369062000330565b60405180910390fd5b60ff801660008054906101000a900460ff1660ff161015620001b15760ff6000806101000a81548160ff021916908360ff1602179055507f7f26b83ff96e1f2b6a682f133852f6798a09c465da95921460cefb384740249860ff604051620001a8919062000370565b60405180910390a15b565b600080fd5b600073ffffffffffffffffffffffffffffffffffffffff82169050919050565b6000620001e582620001b8565b9050919050565b6000620001f982620001d8565b9050919050565b6200020b81620001ec565b81146200021757600080fd5b50565b6000815190506200022b8162000200565b92915050565b6200023c81620001d8565b81146200024857600080fd5b50565b6000815190506200025c8162000231565b92915050565b600080604083850312156200027c576200027b620001b3565b5b60006200028c858286016200021a565b92505060206200029f858286016200024b565b9150509250929050565b600082825260208201905092915050565b7f496e697469616c697a61626c653a20636f6e747261637420697320696e69746960008201527f616c697a696e6700000000000000000000000000000000000000000000000000602082015250565b600062000318602783620002a9565b91506200032582620002ba565b604082019050919050565b600060208201905081810360008301526200034b8162000309565b9050919050565b600060ff82169050919050565b6200036a8162000352565b82525050565b60006020820190506200038760008301846200035f565b92915050565b60805160a05160c05161352d620003e76000396000818161079101526116bc015260008181610c82015261185d0152600081816107b50152818161084301528181610a6501528181610af30152610ba3015261352d6000f3fe6080604052600436106101385760003560e01c806352d1902d116100ab578063c399ec881161006f578063c399ec8814610400578063c4d66de81461042b578063d087d28814610454578063e02afbae1461047f578063ee472f36146104aa578063f23a6e61146104d35761013f565b806352d1902d146103195780638da5cb5b14610344578063b0d691fe1461036f578063b61d27f61461039a578063bc197c81146103c35761013f565b8063245a7bfc116100fd578063245a7bfc146102395780633659cfe6146102645780633a871cdd1461028d5780634a58db19146102ca5780634d44560d146102d45780634f1ef286146102fd5761013f565b806223de291461014457806301ffc9a71461016d578063150b7a02146101aa57806318dfb3c7146101e757806318fc5c44146102105761013f565b3661013f57005b600080fd5b34801561015057600080fd5b5061016b60048036038101906101669190611d55565b610510565b005b34801561017957600080fd5b50610194600480360381019061018f9190611e7c565b61051a565b6040516101a19190611ec4565b60405180910390f35b3480156101b657600080fd5b506101d160048036038101906101cc9190611edf565b610654565b6040516101de9190611f76565b60405180910390f35b3480156101f357600080fd5b5061020e6004803603810190610209919061203d565b610669565b005b34801561021c57600080fd5b50610237600480360381019061023291906121fb565b61077b565b005b34801561024557600080fd5b5061024e61078f565b60405161025b9190612237565b60405180910390f35b34801561027057600080fd5b5061028b60048036038101906102869190612252565b6107b3565b005b34801561029957600080fd5b506102b460048036038101906102af91906122da565b61093b565b6040516102c19190612358565b60405180910390f35b6102d261096e565b005b3480156102e057600080fd5b506102fb60048036038101906102f691906123b1565b6109e3565b005b610317600480360381019061031291906124a6565b610a63565b005b34801561032557600080fd5b5061032e610b9f565b60405161033b9190612511565b60405180910390f35b34801561035057600080fd5b50610359610c58565b6040516103669190612237565b60405180910390f35b34801561037b57600080fd5b50610384610c7e565b604051610391919061258b565b60405180910390f35b3480156103a657600080fd5b506103c160048036038101906103bc91906125a6565b610ca6565b005b3480156103cf57600080fd5b506103ea60048036038101906103e59190612670565b610d03565b6040516103f79190611f76565b60405180910390f35b34801561040c57600080fd5b50610415610d1b565b6040516104229190612358565b60405180910390f35b34801561043757600080fd5b50610452600480360381019061044d9190612252565b610da3565b005b34801561046057600080fd5b50610469610ee3565b6040516104769190612358565b60405180910390f35b34801561048b57600080fd5b50610494610f6e565b6040516104a191906127f7565b60405180910390f35b3480156104b657600080fd5b506104d160048036038101906104cc91906121fb565b610fb9565b005b3480156104df57600080fd5b506104fa60048036038101906104f59190612812565b611103565b6040516105079190611f76565b60405180910390f35b5050505050505050565b60007f150b7a02000000000000000000000000000000000000000000000000000000007bffffffffffffffffffffffffffffffffffffffffffffffffffffffff1916827bffffffffffffffffffffffffffffffffffffffffffffffffffffffff191614806105e557507f4e2312e0000000000000000000000000000000000000000000000000000000007bffffffffffffffffffffffffffffffffffffffffffffffffffffffff1916827bffffffffffffffffffffffffffffffffffffffffffffffffffffffff1916145b8061064d57507f01ffc9a7000000000000000000000000000000000000000000000000000000007bffffffffffffffffffffffffffffffffffffffffffffffffffffffff1916827bffffffffffffffffffffffffffffffffffffffffffffffffffffffff1916145b9050919050565b600063150b7a0260e01b905095945050505050565b610671611119565b8181905084849050146106b9576040517f08c379a00000000000000000000000000000000000000000000000000000000081526004016106b090612909565b60405180910390fd5b60005b84849050811015610774576107618585838181106106dd576106dc612929565b5b90506020020160208101906106f29190612252565b600085858581811061070757610706612929565b5b90506020028101906107199190612967565b8080601f016020809104026020016040519081016040528093929190818152602001838380828437600081840152601f19601f820116905080830192505050505050506111e8565b808061076c906129f9565b9150506106bc565b5050505050565b61078361126c565b61078c81611334565b50565b7f000000000000000000000000000000000000000000000000000000000000000081565b7f000000000000000000000000000000000000000000000000000000000000000073ffffffffffffffffffffffffffffffffffffffff163073ffffffffffffffffffffffffffffffffffffffff1603610841576040517f08c379a000000000000000000000000000000000000000000000000000000000815260040161083890612ab3565b60405180910390fd5b7f000000000000000000000000000000000000000000000000000000000000000073ffffffffffffffffffffffffffffffffffffffff16610880611383565b73ffffffffffffffffffffffffffffffffffffffff16146108d6576040517f08c379a00000000000000000000000000000000000000000000000000000000081526004016108cd90612b45565b60405180910390fd5b6108df816113da565b61093881600067ffffffffffffffff8111156108fe576108fd6120cf565b5b6040519080825280601f01601f1916602001820160405280156109305781602001600182028036833780820191505090505b5060006113e5565b50565b6000610945611553565b61094f84846115ca565b905061095e846020013561171f565b61096782611722565b9392505050565b610976610c7e565b73ffffffffffffffffffffffffffffffffffffffff1663b760faf934306040518363ffffffff1660e01b81526004016109af9190612237565b6000604051808303818588803b1580156109c857600080fd5b505af11580156109dc573d6000803e3d6000fd5b5050505050565b6109eb61126c565b6109f3610c7e565b73ffffffffffffffffffffffffffffffffffffffff1663205c287883836040518363ffffffff1660e01b8152600401610a2d929190612b74565b600060405180830381600087803b158015610a4757600080fd5b505af1158015610a5b573d6000803e3d6000fd5b505050505050565b7f000000000000000000000000000000000000000000000000000000000000000073ffffffffffffffffffffffffffffffffffffffff163073ffffffffffffffffffffffffffffffffffffffff1603610af1576040517f08c379a0000000000000000000000000000000000000000000000000000000008152600401610ae890612ab3565b60405180910390fd5b7f000000000000000000000000000000000000000000000000000000000000000073ffffffffffffffffffffffffffffffffffffffff16610b30611383565b73ffffffffffffffffffffffffffffffffffffffff1614610b86576040517f08c379a0000000000000000000000000000000000000000000000000000000008152600401610b7d90612b45565b60405180910390fd5b610b8f826113da565b610b9b828260016113e5565b5050565b60007f000000000000000000000000000000000000000000000000000000000000000073ffffffffffffffffffffffffffffffffffffffff163073ffffffffffffffffffffffffffffffffffffffff1614610c2f576040517f08c379a0000000000000000000000000000000000000000000000000000000008152600401610c2690612c0f565b60405180910390fd5b7f360894a13ba1a3210667c828492db98dca3e2076cc3735a920a3ca505d382bbc60001b905090565b600060029054906101000a900473ffffffffffffffffffffffffffffffffffffffff1681565b60007f0000000000000000000000000000000000000000000000000000000000000000905090565b610cae611119565b610cfd848484848080601f016020809104026020016040519081016040528093929190818152602001838380828437600081840152601f19601f820116905080830192505050505050506111e8565b50505050565b600063bc197c8160e01b905098975050505050505050565b6000610d25610c7e565b73ffffffffffffffffffffffffffffffffffffffff166370a08231306040518263ffffffff1660e01b8152600401610d5d9190612237565b602060405180830381865afa158015610d7a573d6000803e3d6000fd5b505050506040513d601f19601f82011682018060405250810190610d9e9190612c44565b905090565b60008060019054906101000a900460ff16159050808015610dd45750600160008054906101000a900460ff1660ff16105b80610e015750610de3306117be565b158015610e005750600160008054906101000a900460ff1660ff16145b5b610e40576040517f08c379a0000000000000000000000000000000000000000000000000000000008152600401610e3790612ce3565b60405180910390fd5b60016000806101000a81548160ff021916908360ff1602179055508015610e7d576001600060016101000a81548160ff0219169083151502179055505b610e86826117e1565b8015610edf5760008060016101000a81548160ff0219169083151502179055507f7f26b83ff96e1f2b6a682f133852f6798a09c465da95921460cefb38474024986001604051610ed69190612d4b565b60405180910390a15b5050565b6000610eed610c7e565b73ffffffffffffffffffffffffffffffffffffffff166335567e1a3060006040518363ffffffff1660e01b8152600401610f28929190612dc5565b602060405180830381865afa158015610f45573d6000803e3d6000fd5b505050506040513d601f19601f82011682018060405250810190610f699190612c44565b905090565b610f76611bc9565b6001600480602002604051908101604052809291908260048015610faf576020028201915b815481526020019060010190808311610f9b575b5050505050905090565b60008060019054906101000a900460ff16159050808015610fea5750600160008054906101000a900460ff1660ff16105b806110175750610ff9306117be565b1580156110165750600160008054906101000a900460ff1660ff16145b5b611056576040517f08c379a000000000000000000000000000000000000000000000000000000000815260040161104d90612ce3565b60405180910390fd5b60016000806101000a81548160ff021916908360ff1602179055508015611093576001600060016101000a81548160ff0219169083151502179055505b61109d60006117e1565b6110a682611334565b80156110ff5760008060016101000a81548160ff0219169083151502179055507f7f26b83ff96e1f2b6a682f133852f6798a09c465da95921460cefb384740249860016040516110f69190612d4b565b60405180910390a15b5050565b600063f23a6e6160e01b90509695505050505050565b611121610c7e565b73ffffffffffffffffffffffffffffffffffffffff163373ffffffffffffffffffffffffffffffffffffffff1614806111a75750600060029054906101000a900473ffffffffffffffffffffffffffffffffffffffff1673ffffffffffffffffffffffffffffffffffffffff163373ffffffffffffffffffffffffffffffffffffffff16145b6111e6576040517f08c379a00000000000000000000000000000000000000000000000000000000081526004016111dd90612e3a565b60405180910390fd5b565b6000808473ffffffffffffffffffffffffffffffffffffffff1684846040516112119190612ecb565b60006040518083038185875af1925050503d806000811461124e576040519150601f19603f3d011682016040523d82523d6000602084013e611253565b606091505b50915091508161126557805160208201fd5b5050505050565b600060029054906101000a900473ffffffffffffffffffffffffffffffffffffffff1673ffffffffffffffffffffffffffffffffffffffff163373ffffffffffffffffffffffffffffffffffffffff1614806112f357503073ffffffffffffffffffffffffffffffffffffffff163373ffffffffffffffffffffffffffffffffffffffff16145b611332576040517f08c379a000000000000000000000000000000000000000000000000000000000815260040161132990612f2e565b60405180910390fd5b565b7f42e4c4ce1432650f17e41c4ea77ed12c0ab20b229d3ffd84a2ebc9f8abb25a83600182604051611366929190613012565b60405180910390a180600190600461137f929190611beb565b5050565b60006113b17f360894a13ba1a3210667c828492db98dca3e2076cc3735a920a3ca505d382bbc60001b6118c1565b60000160009054906101000a900473ffffffffffffffffffffffffffffffffffffffff16905090565b6113e261126c565b50565b6114117f4910fdfa16fed3260ed0e7147f7cc6da11a60208b5b9406d12a635614ffd914360001b6118cb565b60000160009054906101000a900460ff161561143557611430836118d5565b61154e565b8273ffffffffffffffffffffffffffffffffffffffff166352d1902d6040518163ffffffff1660e01b8152600401602060405180830381865afa92505050801561149d57506040513d601f19601f8201168201806040525081019061149a9190613051565b60015b6114dc576040517f08c379a00000000000000000000000000000000000000000000000000000000081526004016114d3906130f0565b60405180910390fd5b7f360894a13ba1a3210667c828492db98dca3e2076cc3735a920a3ca505d382bbc60001b8114611541576040517f08c379a000000000000000000000000000000000000000000000000000000000815260040161153890613182565b60405180910390fd5b5061154d83838361198e565b5b505050565b61155b610c7e565b73ffffffffffffffffffffffffffffffffffffffff163373ffffffffffffffffffffffffffffffffffffffff16146115c8576040517f08c379a00000000000000000000000000000000000000000000000000000000081526004016115bf906131ee565b60405180910390fd5b565b6000808380604001906115dd9190612967565b9050146116ac5760006115ee610f6e565b6040516020016115fe91906127f7565b604051602081830303815290604052805190602001209050808480604001906116279190612967565b60808780604001906116399190612967565b9050611645919061320e565b9080926116549392919061324c565b6040516116629291906132ac565b6040518091039020146116aa576040517f08c379a00000000000000000000000000000000000000000000000000000000081526004016116a190613311565b60405180910390fd5b505b61171760405180606001604052807f000000000000000000000000000000000000000000000000000000000000000073ffffffffffffffffffffffffffffffffffffffff168152602001600065ffffffffffff168152602001600065ffffffffffff168152506119ba565b905092915050565b50565b600081146117bb5760003373ffffffffffffffffffffffffffffffffffffffff16827fffffffffffffffffffffffffffffffffffffffffffffffffffffffffffffffff9060405161177290613357565b600060405180830381858888f193505050503d80600081146117b0576040519150601f19603f3d011682016040523d82523d6000602084013e6117b5565b606091505b50509050505b50565b6000808273ffffffffffffffffffffffffffffffffffffffff163b119050919050565b80600060026101000a81548173ffffffffffffffffffffffffffffffffffffffff021916908373ffffffffffffffffffffffffffffffffffffffff160217905550600060029054906101000a900473ffffffffffffffffffffffffffffffffffffffff1673ffffffffffffffffffffffffffffffffffffffff167f000000000000000000000000000000000000000000000000000000000000000073ffffffffffffffffffffffffffffffffffffffff167f47e55c76e7a6f1fd8996a1da8008c1ea29699cca35e7bcd057f2dec313b6e5de60405160405180910390a350565b6000819050919050565b6000819050919050565b6118de816117be565b61191d576040517f08c379a0000000000000000000000000000000000000000000000000000000008152600401611914906133de565b60405180910390fd5b8061194a7f360894a13ba1a3210667c828492db98dca3e2076cc3735a920a3ca505d382bbc60001b6118c1565b60000160006101000a81548173ffffffffffffffffffffffffffffffffffffffff021916908373ffffffffffffffffffffffffffffffffffffffff16021790555050565b61199783611a02565b6000825111806119a45750805b156119b5576119b38383611a51565b505b505050565b600060d0826020015165ffffffffffff16901b60a0836040015165ffffffffffff16901b836000015173ffffffffffffffffffffffffffffffffffffffff1617179050919050565b611a0b816118d5565b8073ffffffffffffffffffffffffffffffffffffffff167fbc7cd75a20ee27fd9adebab32041f755214dbc6bffa90cc0225b39da2e5c2d3b60405160405180910390a250565b6060611a7683836040518060600160405280602781526020016134d160279139611a7e565b905092915050565b60606000808573ffffffffffffffffffffffffffffffffffffffff1685604051611aa89190612ecb565b600060405180830381855af49150503d8060008114611ae3576040519150601f19603f3d011682016040523d82523d6000602084013e611ae8565b606091505b5091509150611af986838387611b04565b925050509392505050565b60608315611b66576000835103611b5e57611b1e856117be565b611b5d576040517f08c379a0000000000000000000000000000000000000000000000000000000008152600401611b549061344a565b60405180910390fd5b5b829050611b71565b611b708383611b79565b5b949350505050565b600082511115611b8c5781518083602001fd5b806040517f08c379a0000000000000000000000000000000000000000000000000000000008152600401611bc091906134ae565b60405180910390fd5b6040518060800160405280600490602082028036833780820191505090505090565b8260048101928215611c1a579160200282015b82811115611c19578251825591602001919060010190611bfe565b5b509050611c279190611c2b565b5090565b5b80821115611c44576000816000905550600101611c2c565b5090565b6000604051905090565b600080fd5b600080fd5b600073ffffffffffffffffffffffffffffffffffffffff82169050919050565b6000611c8782611c5c565b9050919050565b611c9781611c7c565b8114611ca257600080fd5b50565b600081359050611cb481611c8e565b92915050565b6000819050919050565b611ccd81611cba565b8114611cd857600080fd5b50565b600081359050611cea81611cc4565b92915050565b600080fd5b600080fd5b600080fd5b60008083601f840112611d1557611d14611cf0565b5b8235905067ffffffffffffffff811115611d3257611d31611cf5565b5b602083019150836001820283011115611d4e57611d4d611cfa565b5b9250929050565b60008060008060008060008060c0898b031215611d7557611d74611c52565b5b6000611d838b828c01611ca5565b9850506020611d948b828c01611ca5565b9750506040611da58b828c01611ca5565b9650506060611db68b828c01611cdb565b955050608089013567ffffffffffffffff811115611dd757611dd6611c57565b5b611de38b828c01611cff565b945094505060a089013567ffffffffffffffff811115611e0657611e05611c57565b5b611e128b828c01611cff565b92509250509295985092959890939650565b60007fffffffff0000000000000000000000000000000000000000000000000000000082169050919050565b611e5981611e24565b8114611e6457600080fd5b50565b600081359050611e7681611e50565b92915050565b600060208284031215611e9257611e91611c52565b5b6000611ea084828501611e67565b91505092915050565b60008115159050919050565b611ebe81611ea9565b82525050565b6000602082019050611ed96000830184611eb5565b92915050565b600080600080600060808688031215611efb57611efa611c52565b5b6000611f0988828901611ca5565b9550506020611f1a88828901611ca5565b9450506040611f2b88828901611cdb565b935050606086013567ffffffffffffffff811115611f4c57611f4b611c57565b5b611f5888828901611cff565b92509250509295509295909350565b611f7081611e24565b82525050565b6000602082019050611f8b6000830184611f67565b92915050565b60008083601f840112611fa757611fa6611cf0565b5b8235905067ffffffffffffffff811115611fc457611fc3611cf5565b5b602083019150836020820283011115611fe057611fdf611cfa565b5b9250929050565b60008083601f840112611ffd57611ffc611cf0565b5b8235905067ffffffffffffffff81111561201a57612019611cf5565b5b60208301915083602082028301111561203657612035611cfa565b5b9250929050565b6000806000806040858703121561205757612056611c52565b5b600085013567ffffffffffffffff81111561207557612074611c57565b5b61208187828801611f91565b9450945050602085013567ffffffffffffffff8111156120a4576120a3611c57565b5b6120b087828801611fe7565b925092505092959194509250565b6000601f19601f8301169050919050565b7f4e487b7100000000000000000000000000000000000000000000000000000000600052604160045260246000fd5b612107826120be565b810181811067ffffffffffffffff82111715612126576121256120cf565b5b80604052505050565b6000612139611c48565b905061214582826120fe565b919050565b600067ffffffffffffffff821115612165576121646120cf565b5b602082029050919050565b600061218361217e8461214a565b61212f565b9050806020840283018581111561219d5761219c611cfa565b5b835b818110156121c657806121b28882611cdb565b84526020840193505060208101905061219f565b5050509392505050565b600082601f8301126121e5576121e4611cf0565b5b60046121f2848285612170565b91505092915050565b60006080828403121561221157612210611c52565b5b600061221f848285016121d0565b91505092915050565b61223181611c7c565b82525050565b600060208201905061224c6000830184612228565b92915050565b60006020828403121561226857612267611c52565b5b600061227684828501611ca5565b91505092915050565b600080fd5b6000610160828403121561229b5761229a61227f565b5b81905092915050565b6000819050919050565b6122b7816122a4565b81146122c257600080fd5b50565b6000813590506122d4816122ae565b92915050565b6000806000606084860312156122f3576122f2611c52565b5b600084013567ffffffffffffffff81111561231157612310611c57565b5b61231d86828701612284565b935050602061232e868287016122c5565b925050604061233f86828701611cdb565b9150509250925092565b61235281611cba565b82525050565b600060208201905061236d6000830184612349565b92915050565b600061237e82611c5c565b9050919050565b61238e81612373565b811461239957600080fd5b50565b6000813590506123ab81612385565b92915050565b600080604083850312156123c8576123c7611c52565b5b60006123d68582860161239c565b92505060206123e785828601611cdb565b9150509250929050565b600080fd5b600067ffffffffffffffff821115612411576124106120cf565b5b61241a826120be565b9050602081019050919050565b82818337600083830152505050565b6000612449612444846123f6565b61212f565b905082815260208101848484011115612465576124646123f1565b5b612470848285612427565b509392505050565b600082601f83011261248d5761248c611cf0565b5b813561249d848260208601612436565b91505092915050565b600080604083850312156124bd576124bc611c52565b5b60006124cb85828601611ca5565b925050602083013567ffffffffffffffff8111156124ec576124eb611c57565b5b6124f885828601612478565b9150509250929050565b61250b816122a4565b82525050565b60006020820190506125266000830184612502565b92915050565b6000819050919050565b600061255161254c61254784611c5c565b61252c565b611c5c565b9050919050565b600061256382612536565b9050919050565b600061257582612558565b9050919050565b6125858161256a565b82525050565b60006020820190506125a0600083018461257c565b92915050565b600080600080606085870312156125c0576125bf611c52565b5b60006125ce87828801611ca5565b94505060206125df87828801611cdb565b935050604085013567ffffffffffffffff811115612600576125ff611c57565b5b61260c87828801611cff565b925092505092959194509250565b60008083601f8401126126305761262f611cf0565b5b8235905067ffffffffffffffff81111561264d5761264c611cf5565b5b60208301915083602082028301111561266957612668611cfa565b5b9250929050565b60008060008060008060008060a0898b0312156126905761268f611c52565b5b600061269e8b828c01611ca5565b98505060206126af8b828c01611ca5565b975050604089013567ffffffffffffffff8111156126d0576126cf611c57565b5b6126dc8b828c0161261a565b9650965050606089013567ffffffffffffffff8111156126ff576126fe611c57565b5b61270b8b828c0161261a565b9450945050608089013567ffffffffffffffff81111561272e5761272d611c57565b5b61273a8b828c01611cff565b92509250509295985092959890939650565b600060049050919050565b600081905092915050565b6000819050919050565b61277581611cba565b82525050565b6000612787838361276c565b60208301905092915050565b6000602082019050919050565b6127a98161274c565b6127b38184612757565b92506127be82612762565b8060005b838110156127ef5781516127d6878261277b565b96506127e183612793565b9250506001810190506127c2565b505050505050565b600060808201905061280c60008301846127a0565b92915050565b60008060008060008060a0878903121561282f5761282e611c52565b5b600061283d89828a01611ca5565b965050602061284e89828a01611ca5565b955050604061285f89828a01611cdb565b945050606061287089828a01611cdb565b935050608087013567ffffffffffffffff81111561289157612890611c57565b5b61289d89828a01611cff565b92509250509295509295509295565b600082825260208201905092915050565b7f77726f6e67206172726179206c656e6774687300000000000000000000000000600082015250565b60006128f36013836128ac565b91506128fe826128bd565b602082019050919050565b60006020820190508181036000830152612922816128e6565b9050919050565b7f4e487b7100000000000000000000000000000000000000000000000000000000600052603260045260246000fd5b600080fd5b600080fd5b600080fd5b6000808335600160200384360303811261298457612983612958565b5b80840192508235915067ffffffffffffffff8211156129a6576129a561295d565b5b6020830192506001820236038313156129c2576129c1612962565b5b509250929050565b7f4e487b7100000000000000000000000000000000000000000000000000000000600052601160045260246000fd5b6000612a0482611cba565b91507fffffffffffffffffffffffffffffffffffffffffffffffffffffffffffffffff8203612a3657612a356129ca565b5b600182019050919050565b7f46756e6374696f6e206d7573742062652063616c6c6564207468726f7567682060008201527f64656c656761746563616c6c0000000000000000000000000000000000000000602082015250565b6000612a9d602c836128ac565b9150612aa882612a41565b604082019050919050565b60006020820190508181036000830152612acc81612a90565b9050919050565b7f46756e6374696f6e206d7573742062652063616c6c6564207468726f7567682060008201527f6163746976652070726f78790000000000000000000000000000000000000000602082015250565b6000612b2f602c836128ac565b9150612b3a82612ad3565b604082019050919050565b60006020820190508181036000830152612b5e81612b22565b9050919050565b612b6e81612373565b82525050565b6000604082019050612b896000830185612b65565b612b966020830184612349565b9392505050565b7f555550535570677261646561626c653a206d757374206e6f742062652063616c60008201527f6c6564207468726f7567682064656c656761746563616c6c0000000000000000602082015250565b6000612bf96038836128ac565b9150612c0482612b9d565b604082019050919050565b60006020820190508181036000830152612c2881612bec565b9050919050565b600081519050612c3e81611cc4565b92915050565b600060208284031215612c5a57612c59611c52565b5b6000612c6884828501612c2f565b91505092915050565b7f496e697469616c697a61626c653a20636f6e747261637420697320616c72656160008201527f647920696e697469616c697a6564000000000000000000000000000000000000602082015250565b6000612ccd602e836128ac565b9150612cd882612c71565b604082019050919050565b60006020820190508181036000830152612cfc81612cc0565b9050919050565b6000819050919050565b600060ff82169050919050565b6000612d35612d30612d2b84612d03565b61252c565b612d0d565b9050919050565b612d4581612d1a565b82525050565b6000602082019050612d606000830184612d3c565b92915050565b6000819050919050565b600077ffffffffffffffffffffffffffffffffffffffffffffffff82169050919050565b6000612daf612daa612da584612d66565b61252c565b612d70565b9050919050565b612dbf81612d94565b82525050565b6000604082019050612dda6000830185612228565b612de76020830184612db6565b9392505050565b7f6163636f756e743a206e6f74204f776e6572206f7220456e747279506f696e74600082015250565b6000612e246020836128ac565b9150612e2f82612dee565b602082019050919050565b60006020820190508181036000830152612e5381612e17565b9050919050565b600081519050919050565b600081905092915050565b60005b83811015612e8e578082015181840152602081019050612e73565b60008484015250505050565b6000612ea582612e5a565b612eaf8185612e65565b9350612ebf818560208601612e70565b80840191505092915050565b6000612ed78284612e9a565b915081905092915050565b7f6f6e6c79206f776e657200000000000000000000000000000000000000000000600082015250565b6000612f18600a836128ac565b9150612f2382612ee2565b602082019050919050565b60006020820190508181036000830152612f4781612f0b565b9050919050565b600060049050919050565b6000819050919050565b60008160001c9050919050565b6000819050919050565b6000612f8d612f8883612f63565b612f70565b9050919050565b6000612fa08254612f7a565b9050919050565b6000600182019050919050565b612fbd81612f4e565b612fc78184612757565b9250612fd282612f59565b8060005b8381101561300a57612fe782612f94565b612ff1878261277b565b9650612ffc83612fa7565b925050600181019050612fd6565b505050505050565b6000610100820190506130286000830185612fb4565b61303560808301846127a0565b9392505050565b60008151905061304b816122ae565b92915050565b60006020828403121561306757613066611c52565b5b60006130758482850161303c565b91505092915050565b7f45524331393637557067726164653a206e657720696d706c656d656e7461746960008201527f6f6e206973206e6f742055555053000000000000000000000000000000000000602082015250565b60006130da602e836128ac565b91506130e58261307e565b604082019050919050565b60006020820190508181036000830152613109816130cd565b9050919050565b7f45524331393637557067726164653a20756e737570706f727465642070726f7860008201527f6961626c65555549440000000000000000000000000000000000000000000000602082015250565b600061316c6029836128ac565b915061317782613110565b604082019050919050565b6000602082019050818103600083015261319b8161315f565b9050919050565b7f6163636f756e743a206e6f742066726f6d20456e747279506f696e7400000000600082015250565b60006131d8601c836128ac565b91506131e3826131a2565b602082019050919050565b60006020820190508181036000830152613207816131cb565b9050919050565b600061321982611cba565b915061322483611cba565b925082820390508181111561323c5761323b6129ca565b5b92915050565b600080fd5b600080fd5b600080858511156132605761325f613242565b5b8386111561327157613270613247565b5b6001850283019150848603905094509492505050565b60006132938385612e65565b93506132a0838584612427565b82840190509392505050565b60006132b9828486613287565b91508190509392505050565b7f77726f6e67207075626b65790000000000000000000000000000000000000000600082015250565b60006132fb600c836128ac565b9150613306826132c5565b602082019050919050565b6000602082019050818103600083015261332a816132ee565b9050919050565b50565b6000613341600083612e65565b915061334c82613331565b600082019050919050565b600061336282613334565b9150819050919050565b7f455243313936373a206e657720696d706c656d656e746174696f6e206973206e60008201527f6f74206120636f6e747261637400000000000000000000000000000000000000602082015250565b60006133c8602d836128ac565b91506133d38261336c565b604082019050919050565b600060208201905081810360008301526133f7816133bb565b9050919050565b7f416464726573733a2063616c6c20746f206e6f6e2d636f6e7472616374000000600082015250565b6000613434601d836128ac565b915061343f826133fe565b602082019050919050565b6000602082019050818103600083015261346381613427565b9050919050565b600081519050919050565b60006134808261346a565b61348a81856128ac565b935061349a818560208601612e70565b6134a3816120be565b840191505092915050565b600060208201905081810360008301526134c88184613475565b90509291505056fe416464726573733a206c6f772d6c6576656c2064656c65676174652063616c6c206661696c6564a2646970667358221220e9a5c3900c9a69389a5b7b0860929654d54f24002ff5c78df28125451dbf340c64736f6c63430008110033",
  "linkReferences": {},
  "deployedLinkReferences": {}
}