{
  "_format": "hh-sol-artifact-1",
  "contractName": "SimpleAccountFactory",
  "sourceName": "contracts/samples/SimpleAccountFactory.sol",
  "abi": [
    {
      "inputs": [
        {
          "internalType": "contract IEntryPoint",
          "name": "_entryPoint",
          "type": "address"
        }
      ],
      "stateMutability": "nonpayable",
      "type": "constructor"
    },
    {
      "inputs": [
        {
          "internalType": "address",
          "name": "owner",
          "type": "address"
        },
        {
          "internalType": "uint256",
          "name": "salt",
          "type": "uint256"
        }
      ],
      "name": "accountExists",
      "outputs": [
        {
          "internalType": "bool",
          "name": "",
          "type": "bool"
        }
      ],
      "stateMutability": "view",
      "type": "function"
    },
    {
      "inputs": [],
      "name": "accountImplementation",
      "outputs": [
        {
          "internalType": "contract SimpleAccount",
          "name": "",
          "type": "address"
        }
      ],
      "stateMutability": "view",
      "type": "function"
    },
    {
      "inputs": [
        {
          "internalType": "address",
          "name": "account",
          "type": "address"
        }
      ],
      "name": "balanceOf",
      "outputs": [
        {
          "internalType": "uint256",
          "name": "",
          "type": "uint256"
        }
      ],
      "stateMutability": "view",
      "type": "function"
    },
    {
      "inputs": [
        {
          "internalType": "address",
          "name": "owner",
          "type": "address"
        },
        {
          "internalType": "uint256",
          "name": "salt",
          "type": "uint256"
        }
      ],
      "name": "createAccount",
      "outputs": [
        {
          "internalType": "contract SimpleAccount",
          "name": "",
          "type": "address"
        }
      ],
      "stateMutability": "nonpayable",
      "type": "function"
    },
    {
      "inputs": [
        {
          "internalType": "address",
          "name": "account",
          "type": "address"
        }
      ],
      "name": "fundWallet",
      "outputs": [],
      "stateMutability": "payable",
      "type": "function"
    },
    {
      "inputs": [
        {
          "internalType": "address",
          "name": "newaddress",
          "type": "address"
        },
        {
          "internalType": "uint256",
          "name": "newsalt",
          "type": "uint256"
        }
      ],
      "name": "getCreatedAddress",
      "outputs": [
        {
          "internalType": "address",
          "name": "",
          "type": "address"
        }
      ],
      "stateMutability": "view",
      "type": "function"
    }
  ],
  "bytecode": "0x60a06040523480156200001157600080fd5b5060405162004e1838038062004e18833981810160405281019062000037919062000136565b806040516200004690620000aa565b620000529190620001d3565b604051809103906000f0801580156200006f573d6000803e3d6000fd5b5073ffffffffffffffffffffffffffffffffffffffff1660808173ffffffffffffffffffffffffffffffffffffffff168152505050620001f0565b61361e80620017fa83390190565b600080fd5b600073ffffffffffffffffffffffffffffffffffffffff82169050919050565b6000620000ea82620000bd565b9050919050565b6000620000fe82620000dd565b9050919050565b6200011081620000f1565b81146200011c57600080fd5b50565b600081519050620001308162000105565b92915050565b6000602082840312156200014f576200014e620000b8565b5b60006200015f848285016200011f565b91505092915050565b6000819050919050565b6000620001936200018d6200018784620000bd565b62000168565b620000bd565b9050919050565b6000620001a78262000172565b9050919050565b6000620001bb826200019a565b9050919050565b620001cd81620001ae565b82525050565b6000602082019050620001ea6000830184620001c2565b92915050565b6080516115e06200021a600039600081816101c301528181610217015261039001526115e06000f3fe6080604052600436106200005c5760003560e01c806311464fbe1462000061578063139cc1ca14620000915780632161bd3d14620000d55780635fbfb9cf146200011957806370a08231146200015d578063ed97bab314620001a1575b600080fd5b3480156200006e57600080fd5b5062000079620001c1565b60405162000088919062000606565b60405180910390f35b3480156200009e57600080fd5b50620000bd6004803603810190620000b79190620006a8565b620001e5565b604051620000cc919062000700565b60405180910390f35b348015620000e257600080fd5b50620001016004803603810190620000fb9190620006a8565b6200031f565b6040516200011091906200073a565b60405180910390f35b3480156200012657600080fd5b506200014560048036038101906200013f9190620006a8565b6200035a565b60405162000154919062000606565b60405180910390f35b3480156200016a57600080fd5b5062000189600480360381019062000183919062000757565b62000489565b6040516200019891906200079a565b60405180910390f35b620001bf6004803603810190620001b9919062000757565b620004d1565b005b7f000000000000000000000000000000000000000000000000000000000000000081565b6000620003178260001b6040518060200162000201906200056d565b6020820181038252601f19601f820116604052507f00000000000000000000000000000000000000000000000000000000000000008660405160240162000249919062000700565b6040516020818303038152906040527fc4d66de8000000000000000000000000000000000000000000000000000000007bffffffffffffffffffffffffffffffffffffffffffffffffffffffff19166020820180517bffffffffffffffffffffffffffffffffffffffffffffffffffffffff8381831617835250505050604051602001620002d992919062000851565b604051602081830303815290604052604051602001620002fb929190620008c7565b604051602081830303815290604052805190602001206200052b565b905092915050565b6000806200032e8484620001e5565b905060008173ffffffffffffffffffffffffffffffffffffffff163b9050600081119250505092915050565b60006200036883836200031f565b15620003885760006200037c8484620001e5565b90508091505062000483565b60008260001b7f000000000000000000000000000000000000000000000000000000000000000085604051602401620003c2919062000700565b6040516020818303038152906040527fc4d66de8000000000000000000000000000000000000000000000000000000007bffffffffffffffffffffffffffffffffffffffffffffffffffffffff19166020820180517bffffffffffffffffffffffffffffffffffffffffffffffffffffffff83818316178352505050506040516200044d906200056d565b6200045a92919062000851565b8190604051809103906000f59050801580156200047b573d6000803e3d6000fd5b509050809150505b92915050565b60008060008373ffffffffffffffffffffffffffffffffffffffff1673ffffffffffffffffffffffffffffffffffffffff168152602001908152602001600020549050919050565b346000808373ffffffffffffffffffffffffffffffffffffffff1673ffffffffffffffffffffffffffffffffffffffff16815260200190815260200160002060008282546200052191906200091e565b9250508190555050565b60006200053a83833062000542565b905092915050565b6000604051836040820152846020820152828152600b810160ff815360558120925050509392505050565b610c51806200095a83390190565b600073ffffffffffffffffffffffffffffffffffffffff82169050919050565b6000819050919050565b6000620005c6620005c0620005ba846200057b565b6200059b565b6200057b565b9050919050565b6000620005da82620005a5565b9050919050565b6000620005ee82620005cd565b9050919050565b6200060081620005e1565b82525050565b60006020820190506200061d6000830184620005f5565b92915050565b600080fd5b600062000635826200057b565b9050919050565b620006478162000628565b81146200065357600080fd5b50565b60008135905062000667816200063c565b92915050565b6000819050919050565b62000682816200066d565b81146200068e57600080fd5b50565b600081359050620006a28162000677565b92915050565b60008060408385031215620006c257620006c162000623565b5b6000620006d28582860162000656565b9250506020620006e58582860162000691565b9150509250929050565b620006fa8162000628565b82525050565b6000602082019050620007176000830184620006ef565b92915050565b60008115159050919050565b62000734816200071d565b82525050565b600060208201905062000751600083018462000729565b92915050565b60006020828403121562000770576200076f62000623565b5b6000620007808482850162000656565b91505092915050565b62000794816200066d565b82525050565b6000602082019050620007b1600083018462000789565b92915050565b600081519050919050565b600082825260208201905092915050565b60005b83811015620007f3578082015181840152602081019050620007d6565b60008484015250505050565b6000601f19601f8301169050919050565b60006200081d82620007b7565b620008298185620007c2565b93506200083b818560208601620007d3565b6200084681620007ff565b840191505092915050565b6000604082019050620008686000830185620006ef565b81810360208301526200087c818462000810565b90509392505050565b600081905092915050565b60006200089d82620007b7565b620008a9818562000885565b9350620008bb818560208601620007d3565b80840191505092915050565b6000620008d5828562000890565b9150620008e3828462000890565b91508190509392505050565b7f4e487b7100000000000000000000000000000000000000000000000000000000600052601160045260246000fd5b60006200092b826200066d565b915062000938836200066d565b9250828201905080821115620009535762000952620008ef565b5b9291505056fe608060405260405162000c5138038062000c51833981810160405281019062000029919062000580565b6200003d828260006200004560201b60201c565b5050620007d7565b62000056836200008860201b60201c565b600082511180620000645750805b156200008357620000818383620000df60201b620000371760201c565b505b505050565b62000099816200011560201b60201c565b8073ffffffffffffffffffffffffffffffffffffffff167fbc7cd75a20ee27fd9adebab32041f755214dbc6bffa90cc0225b39da2e5c2d3b60405160405180910390a250565b60606200010d838360405180606001604052806027815260200162000c2a60279139620001eb60201b60201c565b905092915050565b6200012b816200027d60201b620000641760201c565b6200016d576040517f08c379a000000000000000000000000000000000000000000000000000000000815260040162000164906200066d565b60405180910390fd5b80620001a77f360894a13ba1a3210667c828492db98dca3e2076cc3735a920a3ca505d382bbc60001b620002a060201b620000871760201c565b60000160006101000a81548173ffffffffffffffffffffffffffffffffffffffff021916908373ffffffffffffffffffffffffffffffffffffffff16021790555050565b60606000808573ffffffffffffffffffffffffffffffffffffffff1685604051620002179190620006dc565b600060405180830381855af49150503d806000811462000254576040519150601f19603f3d011682016040523d82523d6000602084013e62000259565b606091505b50915091506200027286838387620002aa60201b60201c565b925050509392505050565b6000808273ffffffffffffffffffffffffffffffffffffffff163b119050919050565b6000819050919050565b606083156200031a5760008351036200031157620002ce856200027d60201b60201c565b62000310576040517f08c379a0000000000000000000000000000000000000000000000000000000008152600401620003079062000745565b60405180910390fd5b5b8290506200032d565b6200032c83836200033560201b60201c565b5b949350505050565b600082511115620003495781518083602001fd5b806040517f08c379a00000000000000000000000000000000000000000000000000000000081526004016200037f9190620007b3565b60405180910390fd5b6000604051905090565b600080fd5b600080fd5b600073ffffffffffffffffffffffffffffffffffffffff82169050919050565b6000620003c9826200039c565b9050919050565b620003db81620003bc565b8114620003e757600080fd5b50565b600081519050620003fb81620003d0565b92915050565b600080fd5b600080fd5b6000601f19601f8301169050919050565b7f4e487b7100000000000000000000000000000000000000000000000000000000600052604160045260246000fd5b62000456826200040b565b810181811067ffffffffffffffff821117156200047857620004776200041c565b5b80604052505050565b60006200048d62000388565b90506200049b82826200044b565b919050565b600067ffffffffffffffff821115620004be57620004bd6200041c565b5b620004c9826200040b565b9050602081019050919050565b60005b83811015620004f6578082015181840152602081019050620004d9565b60008484015250505050565b6000620005196200051384620004a0565b62000481565b90508281526020810184848401111562000538576200053762000406565b5b62000545848285620004d6565b509392505050565b600082601f83011262000565576200056462000401565b5b81516200057784826020860162000502565b91505092915050565b600080604083850312156200059a576200059962000392565b5b6000620005aa85828601620003ea565b925050602083015167ffffffffffffffff811115620005ce57620005cd62000397565b5b620005dc858286016200054d565b9150509250929050565b600082825260208201905092915050565b7f455243313936373a206e657720696d706c656d656e746174696f6e206973206e60008201527f6f74206120636f6e747261637400000000000000000000000000000000000000602082015250565b600062000655602d83620005e6565b91506200066282620005f7565b604082019050919050565b60006020820190508181036000830152620006888162000646565b9050919050565b600081519050919050565b600081905092915050565b6000620006b2826200068f565b620006be81856200069a565b9350620006d0818560208601620004d6565b80840191505092915050565b6000620006ea8284620006a5565b915081905092915050565b7f416464726573733a2063616c6c20746f206e6f6e2d636f6e7472616374000000600082015250565b60006200072d601d83620005e6565b91506200073a82620006f5565b602082019050919050565b6000602082019050818103600083015262000760816200071e565b9050919050565b600081519050919050565b60006200077f8262000767565b6200078b8185620005e6565b93506200079d818560208601620004d6565b620007a8816200040b565b840191505092915050565b60006020820190508181036000830152620007cf818462000772565b905092915050565b61044380620007e76000396000f3fe6080604052366100135761001161001d565b005b61001b61001d565b005b610025610091565b610035610030610093565b6100a2565b565b606061005c83836040518060600160405280602781526020016103e7602791396100c8565b905092915050565b6000808273ffffffffffffffffffffffffffffffffffffffff163b119050919050565b6000819050919050565b565b600061009d61014e565b905090565b3660008037600080366000845af43d6000803e80600081146100c3573d6000f35b3d6000fd5b60606000808573ffffffffffffffffffffffffffffffffffffffff16856040516100f291906102db565b600060405180830381855af49150503d806000811461012d576040519150601f19603f3d011682016040523d82523d6000602084013e610132565b606091505b5091509150610143868383876101a5565b925050509392505050565b600061017c7f360894a13ba1a3210667c828492db98dca3e2076cc3735a920a3ca505d382bbc60001b610087565b60000160009054906101000a900473ffffffffffffffffffffffffffffffffffffffff16905090565b606083156102075760008351036101ff576101bf85610064565b6101fe576040517f08c379a00000000000000000000000000000000000000000000000000000000081526004016101f59061034f565b60405180910390fd5b5b829050610212565b610211838361021a565b5b949350505050565b60008251111561022d5781518083602001fd5b806040517f08c379a000000000000000000000000000000000000000000000000000000000815260040161026191906103c4565b60405180910390fd5b600081519050919050565b600081905092915050565b60005b8381101561029e578082015181840152602081019050610283565b60008484015250505050565b60006102b58261026a565b6102bf8185610275565b93506102cf818560208601610280565b80840191505092915050565b60006102e782846102aa565b915081905092915050565b600082825260208201905092915050565b7f416464726573733a2063616c6c20746f206e6f6e2d636f6e7472616374000000600082015250565b6000610339601d836102f2565b915061034482610303565b602082019050919050565b600060208201905081810360008301526103688161032c565b9050919050565b600081519050919050565b6000601f19601f8301169050919050565b60006103968261036f565b6103a081856102f2565b93506103b0818560208601610280565b6103b98161037a565b840191505092915050565b600060208201905081810360008301526103de818461038b565b90509291505056fe416464726573733a206c6f772d6c6576656c2064656c65676174652063616c6c206661696c6564a2646970667358221220e57dd3eafc9985be746025b6d82d4f011b9a7bb3db56f9a1eb7eadfddd376b6064736f6c63430008110033416464726573733a206c6f772d6c6576656c2064656c65676174652063616c6c206661696c6564a26469706673582212207203a724ea7fc5e19898b6cdd5f058b3844c77759e8fdcb98e310c37f8eb4a5064736f6c6343000811003360c06040523073ffffffffffffffffffffffffffffffffffffffff1660809073ffffffffffffffffffffffffffffffffffffffff168152503480156200004457600080fd5b506040516200361e3803806200361e83398181016040528101906200006a9190620001fa565b8073ffffffffffffffffffffffffffffffffffffffff1660a08173ffffffffffffffffffffffffffffffffffffffff1681525050620000ae620000b560201b60201c565b5062000310565b600060019054906101000a900460ff161562000108576040517f08c379a0000000000000000000000000000000000000000000000000000000008152600401620000ff90620002b3565b60405180910390fd5b60ff801660008054906101000a900460ff1660ff1610156200017a5760ff6000806101000a81548160ff021916908360ff1602179055507f7f26b83ff96e1f2b6a682f133852f6798a09c465da95921460cefb384740249860ff604051620001719190620002f3565b60405180910390a15b565b600080fd5b600073ffffffffffffffffffffffffffffffffffffffff82169050919050565b6000620001ae8262000181565b9050919050565b6000620001c282620001a1565b9050919050565b620001d481620001b5565b8114620001e057600080fd5b50565b600081519050620001f481620001c9565b92915050565b6000602082840312156200021357620002126200017c565b5b60006200022384828501620001e3565b91505092915050565b600082825260208201905092915050565b7f496e697469616c697a61626c653a20636f6e747261637420697320696e69746960008201527f616c697a696e6700000000000000000000000000000000000000000000000000602082015250565b60006200029b6027836200022c565b9150620002a8826200023d565b604082019050919050565b60006020820190508181036000830152620002ce816200028c565b9050919050565b600060ff82169050919050565b620002ed81620002d5565b82525050565b60006020820190506200030a6000830184620002e2565b92915050565b60805160a0516132c56200035960003960008181610b7601526114f60152600081816106a90152818161073701528181610959015281816109e70152610a9701526132c56000f3fe60806040526004361061010c5760003560e01c806352d1902d11610095578063bc197c8111610064578063bc197c8114610343578063c399ec8814610380578063c4d66de8146103ab578063d087d288146103d4578063f23a6e61146103ff57610113565b806352d1902d146102995780638da5cb5b146102c4578063b0d691fe146102ef578063b61d27f61461031a57610113565b80633659cfe6116100dc5780633659cfe6146101e45780633a871cdd1461020d5780634a58db191461024a5780634d44560d146102545780634f1ef2861461027d57610113565b806223de291461011857806301ffc9a714610141578063150b7a021461017e57806318dfb3c7146101bb57610113565b3661011357005b600080fd5b34801561012457600080fd5b5061013f600480360381019061013a9190611c17565b61043c565b005b34801561014d57600080fd5b5061016860048036038101906101639190611d3e565b610446565b6040516101759190611d86565b60405180910390f35b34801561018a57600080fd5b506101a560048036038101906101a09190611da1565b610580565b6040516101b29190611e38565b60405180910390f35b3480156101c757600080fd5b506101e260048036038101906101dd9190611eff565b610595565b005b3480156101f057600080fd5b5061020b60048036038101906102069190611f80565b6106a7565b005b34801561021957600080fd5b50610234600480360381019061022f9190612008565b61082f565b6040516102419190612086565b60405180910390f35b610252610862565b005b34801561026057600080fd5b5061027b600480360381019061027691906120df565b6108d7565b005b61029760048036038101906102929190612260565b610957565b005b3480156102a557600080fd5b506102ae610a93565b6040516102bb91906122cb565b60405180910390f35b3480156102d057600080fd5b506102d9610b4c565b6040516102e691906122f5565b60405180910390f35b3480156102fb57600080fd5b50610304610b72565b604051610311919061236f565b60405180910390f35b34801561032657600080fd5b50610341600480360381019061033c919061238a565b610b9a565b005b34801561034f57600080fd5b5061036a60048036038101906103659190612454565b610bf7565b6040516103779190611e38565b60405180910390f35b34801561038c57600080fd5b50610395610c0f565b6040516103a29190612086565b60405180910390f35b3480156103b757600080fd5b506103d260048036038101906103cd9190611f80565b610c97565b005b3480156103e057600080fd5b506103e9610dd7565b6040516103f69190612086565b60405180910390f35b34801561040b57600080fd5b5061042660048036038101906104219190612530565b610e62565b6040516104339190611e38565b60405180910390f35b5050505050505050565b60007f150b7a02000000000000000000000000000000000000000000000000000000007bffffffffffffffffffffffffffffffffffffffffffffffffffffffff1916827bffffffffffffffffffffffffffffffffffffffffffffffffffffffff1916148061051157507f4e2312e0000000000000000000000000000000000000000000000000000000007bffffffffffffffffffffffffffffffffffffffffffffffffffffffff1916827bffffffffffffffffffffffffffffffffffffffffffffffffffffffff1916145b8061057957507f01ffc9a7000000000000000000000000000000000000000000000000000000007bffffffffffffffffffffffffffffffffffffffffffffffffffffffff1916827bffffffffffffffffffffffffffffffffffffffffffffffffffffffff1916145b9050919050565b600063150b7a0260e01b905095945050505050565b61059d610e78565b8181905084849050146105e5576040517f08c379a00000000000000000000000000000000000000000000000000000000081526004016105dc90612627565b60405180910390fd5b60005b848490508110156106a05761068d85858381811061060957610608612647565b5b905060200201602081019061061e9190611f80565b600085858581811061063357610632612647565b5b90506020028101906106459190612685565b8080601f016020809104026020016040519081016040528093929190818152602001838380828437600081840152601f19601f82011690508083019250505050505050610f47565b808061069890612717565b9150506105e8565b5050505050565b7f000000000000000000000000000000000000000000000000000000000000000073ffffffffffffffffffffffffffffffffffffffff163073ffffffffffffffffffffffffffffffffffffffff1603610735576040517f08c379a000000000000000000000000000000000000000000000000000000000815260040161072c906127d1565b60405180910390fd5b7f000000000000000000000000000000000000000000000000000000000000000073ffffffffffffffffffffffffffffffffffffffff16610774610fcb565b73ffffffffffffffffffffffffffffffffffffffff16146107ca576040517f08c379a00000000000000000000000000000000000000000000000000000000081526004016107c190612863565b60405180910390fd5b6107d381611022565b61082c81600067ffffffffffffffff8111156107f2576107f1612135565b5b6040519080825280601f01601f1916602001820160405280156108245781602001600182028036833780820191505090505b50600061102d565b50565b600061083961119b565b6108438484611212565b905061085284602001356112f0565b61085b826112f3565b9392505050565b61086a610b72565b73ffffffffffffffffffffffffffffffffffffffff1663b760faf934306040518363ffffffff1660e01b81526004016108a391906122f5565b6000604051808303818588803b1580156108bc57600080fd5b505af11580156108d0573d6000803e3d6000fd5b5050505050565b6108df61138f565b6108e7610b72565b73ffffffffffffffffffffffffffffffffffffffff1663205c287883836040518363ffffffff1660e01b8152600401610921929190612892565b600060405180830381600087803b15801561093b57600080fd5b505af115801561094f573d6000803e3d6000fd5b505050505050565b7f000000000000000000000000000000000000000000000000000000000000000073ffffffffffffffffffffffffffffffffffffffff163073ffffffffffffffffffffffffffffffffffffffff16036109e5576040517f08c379a00000000000000000000000000000000000000000000000000000000081526004016109dc906127d1565b60405180910390fd5b7f000000000000000000000000000000000000000000000000000000000000000073ffffffffffffffffffffffffffffffffffffffff16610a24610fcb565b73ffffffffffffffffffffffffffffffffffffffff1614610a7a576040517f08c379a0000000000000000000000000000000000000000000000000000000008152600401610a7190612863565b60405180910390fd5b610a8382611022565b610a8f8282600161102d565b5050565b60007f000000000000000000000000000000000000000000000000000000000000000073ffffffffffffffffffffffffffffffffffffffff163073ffffffffffffffffffffffffffffffffffffffff1614610b23576040517f08c379a0000000000000000000000000000000000000000000000000000000008152600401610b1a9061292d565b60405180910390fd5b7f360894a13ba1a3210667c828492db98dca3e2076cc3735a920a3ca505d382bbc60001b905090565b600060029054906101000a900473ffffffffffffffffffffffffffffffffffffffff1681565b60007f0000000000000000000000000000000000000000000000000000000000000000905090565b610ba2610e78565b610bf1848484848080601f016020809104026020016040519081016040528093929190818152602001838380828437600081840152601f19601f82011690508083019250505050505050610f47565b50505050565b600063bc197c8160e01b905098975050505050505050565b6000610c19610b72565b73ffffffffffffffffffffffffffffffffffffffff166370a08231306040518263ffffffff1660e01b8152600401610c5191906122f5565b602060405180830381865afa158015610c6e573d6000803e3d6000fd5b505050506040513d601f19601f82011682018060405250810190610c929190612962565b905090565b60008060019054906101000a900460ff16159050808015610cc85750600160008054906101000a900460ff1660ff16105b80610cf55750610cd730611457565b158015610cf45750600160008054906101000a900460ff1660ff16145b5b610d34576040517f08c379a0000000000000000000000000000000000000000000000000000000008152600401610d2b90612a01565b60405180910390fd5b60016000806101000a81548160ff021916908360ff1602179055508015610d71576001600060016101000a81548160ff0219169083151502179055505b610d7a8261147a565b8015610dd35760008060016101000a81548160ff0219169083151502179055507f7f26b83ff96e1f2b6a682f133852f6798a09c465da95921460cefb38474024986001604051610dca9190612a69565b60405180910390a15b5050565b6000610de1610b72565b73ffffffffffffffffffffffffffffffffffffffff166335567e1a3060006040518363ffffffff1660e01b8152600401610e1c929190612ae3565b602060405180830381865afa158015610e39573d6000803e3d6000fd5b505050506040513d601f19601f82011682018060405250810190610e5d9190612962565b905090565b600063f23a6e6160e01b90509695505050505050565b610e80610b72565b73ffffffffffffffffffffffffffffffffffffffff163373ffffffffffffffffffffffffffffffffffffffff161480610f065750600060029054906101000a900473ffffffffffffffffffffffffffffffffffffffff1673ffffffffffffffffffffffffffffffffffffffff163373ffffffffffffffffffffffffffffffffffffffff16145b610f45576040517f08c379a0000000000000000000000000000000000000000000000000000000008152600401610f3c90612b58565b60405180910390fd5b565b6000808473ffffffffffffffffffffffffffffffffffffffff168484604051610f709190612be9565b60006040518083038185875af1925050503d8060008114610fad576040519150601f19603f3d011682016040523d82523d6000602084013e610fb2565b606091505b509150915081610fc457805160208201fd5b5050505050565b6000610ff97f360894a13ba1a3210667c828492db98dca3e2076cc3735a920a3ca505d382bbc60001b61155a565b60000160009054906101000a900473ffffffffffffffffffffffffffffffffffffffff16905090565b61102a61138f565b50565b6110597f4910fdfa16fed3260ed0e7147f7cc6da11a60208b5b9406d12a635614ffd914360001b611564565b60000160009054906101000a900460ff161561107d576110788361156e565b611196565b8273ffffffffffffffffffffffffffffffffffffffff166352d1902d6040518163ffffffff1660e01b8152600401602060405180830381865afa9250505080156110e557506040513d601f19601f820116820180604052508101906110e29190612c15565b60015b611124576040517f08c379a000000000000000000000000000000000000000000000000000000000815260040161111b90612cb4565b60405180910390fd5b7f360894a13ba1a3210667c828492db98dca3e2076cc3735a920a3ca505d382bbc60001b8114611189576040517f08c379a000000000000000000000000000000000000000000000000000000000815260040161118090612d46565b60405180910390fd5b50611195838383611627565b5b505050565b6111a3610b72565b73ffffffffffffffffffffffffffffffffffffffff163373ffffffffffffffffffffffffffffffffffffffff1614611210576040517f08c379a000000000000000000000000000000000000000000000000000000000815260040161120790612db2565b60405180910390fd5b565b60008061121e83611653565b9050611286848061014001906112349190612685565b8080601f016020809104026020016040519081016040528093929190818152602001838380828437600081840152601f19601f820116905080830192505050505050508261168390919063ffffffff16565b73ffffffffffffffffffffffffffffffffffffffff16600060029054906101000a900473ffffffffffffffffffffffffffffffffffffffff1673ffffffffffffffffffffffffffffffffffffffff16146112e45760019150506112ea565b60009150505b92915050565b50565b6000811461138c5760003373ffffffffffffffffffffffffffffffffffffffff16827fffffffffffffffffffffffffffffffffffffffffffffffffffffffffffffffff9060405161134390612df8565b600060405180830381858888f193505050503d8060008114611381576040519150601f19603f3d011682016040523d82523d6000602084013e611386565b606091505b50509050505b50565b600060029054906101000a900473ffffffffffffffffffffffffffffffffffffffff1673ffffffffffffffffffffffffffffffffffffffff163373ffffffffffffffffffffffffffffffffffffffff16148061141657503073ffffffffffffffffffffffffffffffffffffffff163373ffffffffffffffffffffffffffffffffffffffff16145b611455576040517f08c379a000000000000000000000000000000000000000000000000000000000815260040161144c90612e59565b60405180910390fd5b565b6000808273ffffffffffffffffffffffffffffffffffffffff163b119050919050565b80600060026101000a81548173ffffffffffffffffffffffffffffffffffffffff021916908373ffffffffffffffffffffffffffffffffffffffff160217905550600060029054906101000a900473ffffffffffffffffffffffffffffffffffffffff1673ffffffffffffffffffffffffffffffffffffffff167f000000000000000000000000000000000000000000000000000000000000000073ffffffffffffffffffffffffffffffffffffffff167f47e55c76e7a6f1fd8996a1da8008c1ea29699cca35e7bcd057f2dec313b6e5de60405160405180910390a350565b6000819050919050565b6000819050919050565b61157781611457565b6115b6576040517f08c379a00000000000000000000000000000000000000000000000000000000081526004016115ad90612eeb565b60405180910390fd5b806115e37f360894a13ba1a3210667c828492db98dca3e2076cc3735a920a3ca505d382bbc60001b61155a565b60000160006101000a81548173ffffffffffffffffffffffffffffffffffffffff021916908373ffffffffffffffffffffffffffffffffffffffff16021790555050565b611630836116aa565b60008251118061163d5750805b1561164e5761164c83836116f9565b505b505050565b6000816040516020016116669190612f83565b604051602081830303815290604052805190602001209050919050565b60008060006116928585611726565b9150915061169f81611777565b819250505092915050565b6116b38161156e565b8073ffffffffffffffffffffffffffffffffffffffff167fbc7cd75a20ee27fd9adebab32041f755214dbc6bffa90cc0225b39da2e5c2d3b60405160405180910390a250565b606061171e8383604051806060016040528060278152602001613269602791396118dd565b905092915050565b60008060418351036117675760008060006020860151925060408601519150606086015160001a905061175b87828585611963565b94509450505050611770565b60006002915091505b9250929050565b6000600481111561178b5761178a612fa9565b5b81600481111561179e5761179d612fa9565b5b03156118da57600160048111156117b8576117b7612fa9565b5b8160048111156117cb576117ca612fa9565b5b0361180b576040517f08c379a000000000000000000000000000000000000000000000000000000000815260040161180290613024565b60405180910390fd5b6002600481111561181f5761181e612fa9565b5b81600481111561183257611831612fa9565b5b03611872576040517f08c379a000000000000000000000000000000000000000000000000000000000815260040161186990613090565b60405180910390fd5b6003600481111561188657611885612fa9565b5b81600481111561189957611898612fa9565b5b036118d9576040517f08c379a00000000000000000000000000000000000000000000000000000000081526004016118d090613122565b60405180910390fd5b5b50565b60606000808573ffffffffffffffffffffffffffffffffffffffff16856040516119079190612be9565b600060405180830381855af49150503d8060008114611942576040519150601f19603f3d011682016040523d82523d6000602084013e611947565b606091505b509150915061195886838387611a45565b925050509392505050565b6000807f7fffffffffffffffffffffffffffffff5d576e7357a4501ddfe92f46681b20a08360001c111561199e576000600391509150611a3c565b6000600187878787604051600081526020016040526040516119c39493929190613151565b6020604051602081039080840390855afa1580156119e5573d6000803e3d6000fd5b505050602060405103519050600073ffffffffffffffffffffffffffffffffffffffff168173ffffffffffffffffffffffffffffffffffffffff1603611a3357600060019250925050611a3c565b80600092509250505b94509492505050565b60608315611aa7576000835103611a9f57611a5f85611457565b611a9e576040517f08c379a0000000000000000000000000000000000000000000000000000000008152600401611a95906131e2565b60405180910390fd5b5b829050611ab2565b611ab18383611aba565b5b949350505050565b600082511115611acd5781518083602001fd5b806040517f08c379a0000000000000000000000000000000000000000000000000000000008152600401611b019190613246565b60405180910390fd5b6000604051905090565b600080fd5b600080fd5b600073ffffffffffffffffffffffffffffffffffffffff82169050919050565b6000611b4982611b1e565b9050919050565b611b5981611b3e565b8114611b6457600080fd5b50565b600081359050611b7681611b50565b92915050565b6000819050919050565b611b8f81611b7c565b8114611b9a57600080fd5b50565b600081359050611bac81611b86565b92915050565b600080fd5b600080fd5b600080fd5b60008083601f840112611bd757611bd6611bb2565b5b8235905067ffffffffffffffff811115611bf457611bf3611bb7565b5b602083019150836001820283011115611c1057611c0f611bbc565b5b9250929050565b60008060008060008060008060c0898b031215611c3757611c36611b14565b5b6000611c458b828c01611b67565b9850506020611c568b828c01611b67565b9750506040611c678b828c01611b67565b9650506060611c788b828c01611b9d565b955050608089013567ffffffffffffffff811115611c9957611c98611b19565b5b611ca58b828c01611bc1565b945094505060a089013567ffffffffffffffff811115611cc857611cc7611b19565b5b611cd48b828c01611bc1565b92509250509295985092959890939650565b60007fffffffff0000000000000000000000000000000000000000000000000000000082169050919050565b611d1b81611ce6565b8114611d2657600080fd5b50565b600081359050611d3881611d12565b92915050565b600060208284031215611d5457611d53611b14565b5b6000611d6284828501611d29565b91505092915050565b60008115159050919050565b611d8081611d6b565b82525050565b6000602082019050611d9b6000830184611d77565b92915050565b600080600080600060808688031215611dbd57611dbc611b14565b5b6000611dcb88828901611b67565b9550506020611ddc88828901611b67565b9450506040611ded88828901611b9d565b935050606086013567ffffffffffffffff811115611e0e57611e0d611b19565b5b611e1a88828901611bc1565b92509250509295509295909350565b611e3281611ce6565b82525050565b6000602082019050611e4d6000830184611e29565b92915050565b60008083601f840112611e6957611e68611bb2565b5b8235905067ffffffffffffffff811115611e8657611e85611bb7565b5b602083019150836020820283011115611ea257611ea1611bbc565b5b9250929050565b60008083601f840112611ebf57611ebe611bb2565b5b8235905067ffffffffffffffff811115611edc57611edb611bb7565b5b602083019150836020820283011115611ef857611ef7611bbc565b5b9250929050565b60008060008060408587031215611f1957611f18611b14565b5b600085013567ffffffffffffffff811115611f3757611f36611b19565b5b611f4387828801611e53565b9450945050602085013567ffffffffffffffff811115611f6657611f65611b19565b5b611f7287828801611ea9565b925092505092959194509250565b600060208284031215611f9657611f95611b14565b5b6000611fa484828501611b67565b91505092915050565b600080fd5b60006101608284031215611fc957611fc8611fad565b5b81905092915050565b6000819050919050565b611fe581611fd2565b8114611ff057600080fd5b50565b60008135905061200281611fdc565b92915050565b60008060006060848603121561202157612020611b14565b5b600084013567ffffffffffffffff81111561203f5761203e611b19565b5b61204b86828701611fb2565b935050602061205c86828701611ff3565b925050604061206d86828701611b9d565b9150509250925092565b61208081611b7c565b82525050565b600060208201905061209b6000830184612077565b92915050565b60006120ac82611b1e565b9050919050565b6120bc816120a1565b81146120c757600080fd5b50565b6000813590506120d9816120b3565b92915050565b600080604083850312156120f6576120f5611b14565b5b6000612104858286016120ca565b925050602061211585828601611b9d565b9150509250929050565b600080fd5b6000601f19601f8301169050919050565b7f4e487b7100000000000000000000000000000000000000000000000000000000600052604160045260246000fd5b61216d82612124565b810181811067ffffffffffffffff8211171561218c5761218b612135565b5b80604052505050565b600061219f611b0a565b90506121ab8282612164565b919050565b600067ffffffffffffffff8211156121cb576121ca612135565b5b6121d482612124565b9050602081019050919050565b82818337600083830152505050565b60006122036121fe846121b0565b612195565b90508281526020810184848401111561221f5761221e61211f565b5b61222a8482856121e1565b509392505050565b600082601f83011261224757612246611bb2565b5b81356122578482602086016121f0565b91505092915050565b6000806040838503121561227757612276611b14565b5b600061228585828601611b67565b925050602083013567ffffffffffffffff8111156122a6576122a5611b19565b5b6122b285828601612232565b9150509250929050565b6122c581611fd2565b82525050565b60006020820190506122e060008301846122bc565b92915050565b6122ef81611b3e565b82525050565b600060208201905061230a60008301846122e6565b92915050565b6000819050919050565b600061233561233061232b84611b1e565b612310565b611b1e565b9050919050565b60006123478261231a565b9050919050565b60006123598261233c565b9050919050565b6123698161234e565b82525050565b60006020820190506123846000830184612360565b92915050565b600080600080606085870312156123a4576123a3611b14565b5b60006123b287828801611b67565b94505060206123c387828801611b9d565b935050604085013567ffffffffffffffff8111156123e4576123e3611b19565b5b6123f087828801611bc1565b925092505092959194509250565b60008083601f84011261241457612413611bb2565b5b8235905067ffffffffffffffff81111561243157612430611bb7565b5b60208301915083602082028301111561244d5761244c611bbc565b5b9250929050565b60008060008060008060008060a0898b03121561247457612473611b14565b5b60006124828b828c01611b67565b98505060206124938b828c01611b67565b975050604089013567ffffffffffffffff8111156124b4576124b3611b19565b5b6124c08b828c016123fe565b9650965050606089013567ffffffffffffffff8111156124e3576124e2611b19565b5b6124ef8b828c016123fe565b9450945050608089013567ffffffffffffffff81111561251257612511611b19565b5b61251e8b828c01611bc1565b92509250509295985092959890939650565b60008060008060008060a0878903121561254d5761254c611b14565b5b600061255b89828a01611b67565b965050602061256c89828a01611b67565b955050604061257d89828a01611b9d565b945050606061258e89828a01611b9d565b935050608087013567ffffffffffffffff8111156125af576125ae611b19565b5b6125bb89828a01611bc1565b92509250509295509295509295565b600082825260208201905092915050565b7f77726f6e67206172726179206c656e6774687300000000000000000000000000600082015250565b60006126116013836125ca565b915061261c826125db565b602082019050919050565b6000602082019050818103600083015261264081612604565b9050919050565b7f4e487b7100000000000000000000000000000000000000000000000000000000600052603260045260246000fd5b600080fd5b600080fd5b600080fd5b600080833560016020038436030381126126a2576126a1612676565b5b80840192508235915067ffffffffffffffff8211156126c4576126c361267b565b5b6020830192506001820236038313156126e0576126df612680565b5b509250929050565b7f4e487b7100000000000000000000000000000000000000000000000000000000600052601160045260246000fd5b600061272282611b7c565b91507fffffffffffffffffffffffffffffffffffffffffffffffffffffffffffffffff8203612754576127536126e8565b5b600182019050919050565b7f46756e6374696f6e206d7573742062652063616c6c6564207468726f7567682060008201527f64656c656761746563616c6c0000000000000000000000000000000000000000602082015250565b60006127bb602c836125ca565b91506127c68261275f565b604082019050919050565b600060208201905081810360008301526127ea816127ae565b9050919050565b7f46756e6374696f6e206d7573742062652063616c6c6564207468726f7567682060008201527f6163746976652070726f78790000000000000000000000000000000000000000602082015250565b600061284d602c836125ca565b9150612858826127f1565b604082019050919050565b6000602082019050818103600083015261287c81612840565b9050919050565b61288c816120a1565b82525050565b60006040820190506128a76000830185612883565b6128b46020830184612077565b9392505050565b7f555550535570677261646561626c653a206d757374206e6f742062652063616c60008201527f6c6564207468726f7567682064656c656761746563616c6c0000000000000000602082015250565b60006129176038836125ca565b9150612922826128bb565b604082019050919050565b600060208201905081810360008301526129468161290a565b9050919050565b60008151905061295c81611b86565b92915050565b60006020828403121561297857612977611b14565b5b60006129868482850161294d565b91505092915050565b7f496e697469616c697a61626c653a20636f6e747261637420697320616c72656160008201527f647920696e697469616c697a6564000000000000000000000000000000000000602082015250565b60006129eb602e836125ca565b91506129f68261298f565b604082019050919050565b60006020820190508181036000830152612a1a816129de565b9050919050565b6000819050919050565b600060ff82169050919050565b6000612a53612a4e612a4984612a21565b612310565b612a2b565b9050919050565b612a6381612a38565b82525050565b6000602082019050612a7e6000830184612a5a565b92915050565b6000819050919050565b600077ffffffffffffffffffffffffffffffffffffffffffffffff82169050919050565b6000612acd612ac8612ac384612a84565b612310565b612a8e565b9050919050565b612add81612ab2565b82525050565b6000604082019050612af860008301856122e6565b612b056020830184612ad4565b9392505050565b7f6163636f756e743a206e6f74204f776e6572206f7220456e747279506f696e74600082015250565b6000612b426020836125ca565b9150612b4d82612b0c565b602082019050919050565b60006020820190508181036000830152612b7181612b35565b9050919050565b600081519050919050565b600081905092915050565b60005b83811015612bac578082015181840152602081019050612b91565b60008484015250505050565b6000612bc382612b78565b612bcd8185612b83565b9350612bdd818560208601612b8e565b80840191505092915050565b6000612bf58284612bb8565b915081905092915050565b600081519050612c0f81611fdc565b92915050565b600060208284031215612c2b57612c2a611b14565b5b6000612c3984828501612c00565b91505092915050565b7f45524331393637557067726164653a206e657720696d706c656d656e7461746960008201527f6f6e206973206e6f742055555053000000000000000000000000000000000000602082015250565b6000612c9e602e836125ca565b9150612ca982612c42565b604082019050919050565b60006020820190508181036000830152612ccd81612c91565b9050919050565b7f45524331393637557067726164653a20756e737570706f727465642070726f7860008201527f6961626c65555549440000000000000000000000000000000000000000000000602082015250565b6000612d306029836125ca565b9150612d3b82612cd4565b604082019050919050565b60006020820190508181036000830152612d5f81612d23565b9050919050565b7f6163636f756e743a206e6f742066726f6d20456e747279506f696e7400000000600082015250565b6000612d9c601c836125ca565b9150612da782612d66565b602082019050919050565b60006020820190508181036000830152612dcb81612d8f565b9050919050565b50565b6000612de2600083612b83565b9150612ded82612dd2565b600082019050919050565b6000612e0382612dd5565b9150819050919050565b7f6f6e6c79206f776e657200000000000000000000000000000000000000000000600082015250565b6000612e43600a836125ca565b9150612e4e82612e0d565b602082019050919050565b60006020820190508181036000830152612e7281612e36565b9050919050565b7f455243313936373a206e657720696d706c656d656e746174696f6e206973206e60008201527f6f74206120636f6e747261637400000000000000000000000000000000000000602082015250565b6000612ed5602d836125ca565b9150612ee082612e79565b604082019050919050565b60006020820190508181036000830152612f0481612ec8565b9050919050565b600081905092915050565b7f19457468657265756d205369676e6564204d6573736167653a0a333200000000600082015250565b6000612f4c601c83612f0b565b9150612f5782612f16565b601c82019050919050565b6000819050919050565b612f7d612f7882611fd2565b612f62565b82525050565b6000612f8e82612f3f565b9150612f9a8284612f6c565b60208201915081905092915050565b7f4e487b7100000000000000000000000000000000000000000000000000000000600052602160045260246000fd5b7f45434453413a20696e76616c6964207369676e61747572650000000000000000600082015250565b600061300e6018836125ca565b915061301982612fd8565b602082019050919050565b6000602082019050818103600083015261303d81613001565b9050919050565b7f45434453413a20696e76616c6964207369676e6174757265206c656e67746800600082015250565b600061307a601f836125ca565b915061308582613044565b602082019050919050565b600060208201905081810360008301526130a98161306d565b9050919050565b7f45434453413a20696e76616c6964207369676e6174757265202773272076616c60008201527f7565000000000000000000000000000000000000000000000000000000000000602082015250565b600061310c6022836125ca565b9150613117826130b0565b604082019050919050565b6000602082019050818103600083015261313b816130ff565b9050919050565b61314b81612a2b565b82525050565b600060808201905061316660008301876122bc565b6131736020830186613142565b61318060408301856122bc565b61318d60608301846122bc565b95945050505050565b7f416464726573733a2063616c6c20746f206e6f6e2d636f6e7472616374000000600082015250565b60006131cc601d836125ca565b91506131d782613196565b602082019050919050565b600060208201905081810360008301526131fb816131bf565b9050919050565b600081519050919050565b600061321882613202565b61322281856125ca565b9350613232818560208601612b8e565b61323b81612124565b840191505092915050565b60006020820190508181036000830152613260818461320d565b90509291505056fe416464726573733a206c6f772d6c6576656c2064656c65676174652063616c6c206661696c6564a2646970667358221220a4325ab2749c970c9caffbf8d784e1ba74c983081525e7f87fa151d7f502126e64736f6c63430008110033",
  "linkReferences": {},
  "deployedLinkReferences": {}
}