{
  "_format": "hh-sol-artifact-1",
  "contractName": "TestAggregatedAccountFactory",
  "sourceName": "contracts/test/TestAggregatedAccountFactory.sol",
  "abi": [
    {
      "inputs": [
        {
          "internalType": "contract IEntryPoint",
          "name": "anEntryPoint",
          "type": "address"
        },
        {
          "internalType": "address",
          "name": "anAggregator",
          "type": "address"
        }
      ],
      "stateMutability": "nonpayable",
      "type": "constructor"
    },
    {
      "inputs": [],
      "name": "accountImplementation",
      "outputs": [
        {
          "internalType": "contract TestAggregatedAccount",
          "name": "",
          "type": "address"
        }
      ],
      "stateMutability": "view",
      "type": "function"
    },
    {
      "inputs": [
        {
          "internalType": "address",
          "name": "owner",
          "type": "address"
        },
        {
          "internalType": "uint256",
          "name": "salt",
          "type": "uint256"
        }
      ],
      "name": "createAccount",
      "outputs": [
        {
          "internalType": "contract TestAggregatedAccount",
          "name": "ret",
          "type": "address"
        }
      ],
      "stateMutability": "nonpayable",
      "type": "function"
    },
    {
      "inputs": [
        {
          "internalType": "address",
          "name": "owner",
          "type": "address"
        },
        {
          "internalType": "uint256",
          "name": "salt",
          "type": "uint256"
        }
      ],
      "name": "getAddress",
      "outputs": [
        {
          "internalType": "address",
          "name": "",
          "type": "address"
        }
      ],
      "stateMutability": "view",
      "type": "function"
    }
  ],
  "bytecode": "0x60a06040523480156200001157600080fd5b50604051620046a5380380620046a583398181016040528101906200003791906200016a565b81816040516200004790620000ad565b620000549291906200022d565b604051809103906000f08015801562000071573d6000803e3d6000fd5b5073ffffffffffffffffffffffffffffffffffffffff1660808173ffffffffffffffffffffffffffffffffffffffff168152505050506200025a565b61316b806200153a83390190565b600080fd5b600073ffffffffffffffffffffffffffffffffffffffff82169050919050565b6000620000ed82620000c0565b9050919050565b60006200010182620000e0565b9050919050565b6200011381620000f4565b81146200011f57600080fd5b50565b600081519050620001338162000108565b92915050565b6200014481620000e0565b81146200015057600080fd5b50565b600081519050620001648162000139565b92915050565b60008060408385031215620001845762000183620000bb565b5b6000620001948582860162000122565b9250506020620001a78582860162000153565b9150509250929050565b6000819050919050565b6000620001dc620001d6620001d084620000c0565b620001b1565b620000c0565b9050919050565b6000620001f082620001bb565b9050919050565b60006200020482620001e3565b9050919050565b6200021681620001f7565b82525050565b6200022781620000e0565b82525050565b60006040820190506200024460008301856200020b565b6200025360208301846200021c565b9392505050565b6080516112b7620002836000396000818160db01528181610145015261023601526112b76000f3fe60806040523480156200001157600080fd5b5060043610620000465760003560e01c806311464fbe146200004b5780635fbfb9cf146200006d5780638cb84e1814620000a3575b600080fd5b62000055620000d9565b604051620000649190620003e1565b60405180910390f35b6200008b600480360381019062000085919062000483565b620000fd565b6040516200009a9190620003e1565b60405180910390f35b620000c16004803603810190620000bb919062000483565b62000204565b604051620000d09190620004db565b60405180910390f35b7f000000000000000000000000000000000000000000000000000000000000000081565b6000806200010c848462000204565b905060008173ffffffffffffffffffffffffffffffffffffffff163b905060008111156200013f578192505050620001fe565b8360001b7f000000000000000000000000000000000000000000000000000000000000000086604051602401620001779190620004db565b60405160208183030381529060405263c4d66de860e01b6020820180517bffffffffffffffffffffffffffffffffffffffffffffffffffffffff8381831617835250505050604051620001ca9062000348565b620001d792919062000592565b8190604051809103906000f5905080158015620001f8573d6000803e3d6000fd5b50925050505b92915050565b6000620002fe8260001b60405180602001620002209062000348565b6020820181038252601f19601f820116604052507f000000000000000000000000000000000000000000000000000000000000000086604051602401620002689190620004db565b60405160208183030381529060405263c4d66de860e01b6020820180517bffffffffffffffffffffffffffffffffffffffffffffffffffffffff8381831617835250505050604051602001620002c092919062000592565b604051602081830303815290604052604051602001620002e292919062000608565b6040516020818303038152906040528051906020012062000306565b905092915050565b6000620003158383306200031d565b905092915050565b6000604051836040820152846020820152828152600b810160ff815360558120925050509392505050565b610c51806200063183390190565b600073ffffffffffffffffffffffffffffffffffffffff82169050919050565b6000819050919050565b6000620003a16200039b620003958462000356565b62000376565b62000356565b9050919050565b6000620003b58262000380565b9050919050565b6000620003c982620003a8565b9050919050565b620003db81620003bc565b82525050565b6000602082019050620003f86000830184620003d0565b92915050565b600080fd5b6000620004108262000356565b9050919050565b620004228162000403565b81146200042e57600080fd5b50565b600081359050620004428162000417565b92915050565b6000819050919050565b6200045d8162000448565b81146200046957600080fd5b50565b6000813590506200047d8162000452565b92915050565b600080604083850312156200049d576200049c620003fe565b5b6000620004ad8582860162000431565b9250506020620004c0858286016200046c565b9150509250929050565b620004d58162000403565b82525050565b6000602082019050620004f26000830184620004ca565b92915050565b600081519050919050565b600082825260208201905092915050565b60005b838110156200053457808201518184015260208101905062000517565b60008484015250505050565b6000601f19601f8301169050919050565b60006200055e82620004f8565b6200056a818562000503565b93506200057c81856020860162000514565b620005878162000540565b840191505092915050565b6000604082019050620005a96000830185620004ca565b8181036020830152620005bd818462000551565b90509392505050565b600081905092915050565b6000620005de82620004f8565b620005ea8185620005c6565b9350620005fc81856020860162000514565b80840191505092915050565b6000620006168285620005d1565b9150620006248284620005d1565b9150819050939250505056fe608060405260405162000c5138038062000c51833981810160405281019062000029919062000580565b6200003d828260006200004560201b60201c565b5050620007d7565b62000056836200008860201b60201c565b600082511180620000645750805b156200008357620000818383620000df60201b620000371760201c565b505b505050565b62000099816200011560201b60201c565b8073ffffffffffffffffffffffffffffffffffffffff167fbc7cd75a20ee27fd9adebab32041f755214dbc6bffa90cc0225b39da2e5c2d3b60405160405180910390a250565b60606200010d838360405180606001604052806027815260200162000c2a60279139620001eb60201b60201c565b905092915050565b6200012b816200027d60201b620000641760201c565b6200016d576040517f08c379a000000000000000000000000000000000000000000000000000000000815260040162000164906200066d565b60405180910390fd5b80620001a77f360894a13ba1a3210667c828492db98dca3e2076cc3735a920a3ca505d382bbc60001b620002a060201b620000871760201c565b60000160006101000a81548173ffffffffffffffffffffffffffffffffffffffff021916908373ffffffffffffffffffffffffffffffffffffffff16021790555050565b60606000808573ffffffffffffffffffffffffffffffffffffffff1685604051620002179190620006dc565b600060405180830381855af49150503d806000811462000254576040519150601f19603f3d011682016040523d82523d6000602084013e62000259565b606091505b50915091506200027286838387620002aa60201b60201c565b925050509392505050565b6000808273ffffffffffffffffffffffffffffffffffffffff163b119050919050565b6000819050919050565b606083156200031a5760008351036200031157620002ce856200027d60201b60201c565b62000310576040517f08c379a0000000000000000000000000000000000000000000000000000000008152600401620003079062000745565b60405180910390fd5b5b8290506200032d565b6200032c83836200033560201b60201c565b5b949350505050565b600082511115620003495781518083602001fd5b806040517f08c379a00000000000000000000000000000000000000000000000000000000081526004016200037f9190620007b3565b60405180910390fd5b6000604051905090565b600080fd5b600080fd5b600073ffffffffffffffffffffffffffffffffffffffff82169050919050565b6000620003c9826200039c565b9050919050565b620003db81620003bc565b8114620003e757600080fd5b50565b600081519050620003fb81620003d0565b92915050565b600080fd5b600080fd5b6000601f19601f8301169050919050565b7f4e487b7100000000000000000000000000000000000000000000000000000000600052604160045260246000fd5b62000456826200040b565b810181811067ffffffffffffffff821117156200047857620004776200041c565b5b80604052505050565b60006200048d62000388565b90506200049b82826200044b565b919050565b600067ffffffffffffffff821115620004be57620004bd6200041c565b5b620004c9826200040b565b9050602081019050919050565b60005b83811015620004f6578082015181840152602081019050620004d9565b60008484015250505050565b6000620005196200051384620004a0565b62000481565b90508281526020810184848401111562000538576200053762000406565b5b62000545848285620004d6565b509392505050565b600082601f83011262000565576200056462000401565b5b81516200057784826020860162000502565b91505092915050565b600080604083850312156200059a576200059962000392565b5b6000620005aa85828601620003ea565b925050602083015167ffffffffffffffff811115620005ce57620005cd62000397565b5b620005dc858286016200054d565b9150509250929050565b600082825260208201905092915050565b7f455243313936373a206e657720696d706c656d656e746174696f6e206973206e60008201527f6f74206120636f6e747261637400000000000000000000000000000000000000602082015250565b600062000655602d83620005e6565b91506200066282620005f7565b604082019050919050565b60006020820190508181036000830152620006888162000646565b9050919050565b600081519050919050565b600081905092915050565b6000620006b2826200068f565b620006be81856200069a565b9350620006d0818560208601620004d6565b80840191505092915050565b6000620006ea8284620006a5565b915081905092915050565b7f416464726573733a2063616c6c20746f206e6f6e2d636f6e7472616374000000600082015250565b60006200072d601d83620005e6565b91506200073a82620006f5565b602082019050919050565b6000602082019050818103600083015262000760816200071e565b9050919050565b600081519050919050565b60006200077f8262000767565b6200078b8185620005e6565b93506200079d818560208601620004d6565b620007a8816200040b565b840191505092915050565b60006020820190508181036000830152620007cf818462000772565b905092915050565b61044380620007e76000396000f3fe6080604052366100135761001161001d565b005b61001b61001d565b005b610025610091565b610035610030610093565b6100a2565b565b606061005c83836040518060600160405280602781526020016103e7602791396100c8565b905092915050565b6000808273ffffffffffffffffffffffffffffffffffffffff163b119050919050565b6000819050919050565b565b600061009d61014e565b905090565b3660008037600080366000845af43d6000803e80600081146100c3573d6000f35b3d6000fd5b60606000808573ffffffffffffffffffffffffffffffffffffffff16856040516100f291906102db565b600060405180830381855af49150503d806000811461012d576040519150601f19603f3d011682016040523d82523d6000602084013e610132565b606091505b5091509150610143868383876101a5565b925050509392505050565b600061017c7f360894a13ba1a3210667c828492db98dca3e2076cc3735a920a3ca505d382bbc60001b610087565b60000160009054906101000a900473ffffffffffffffffffffffffffffffffffffffff16905090565b606083156102075760008351036101ff576101bf85610064565b6101fe576040517f08c379a00000000000000000000000000000000000000000000000000000000081526004016101f59061034f565b60405180910390fd5b5b829050610212565b610211838361021a565b5b949350505050565b60008251111561022d5781518083602001fd5b806040517f08c379a000000000000000000000000000000000000000000000000000000000815260040161026191906103c4565b60405180910390fd5b600081519050919050565b600081905092915050565b60005b8381101561029e578082015181840152602081019050610283565b60008484015250505050565b60006102b58261026a565b6102bf8185610275565b93506102cf818560208601610280565b80840191505092915050565b60006102e782846102aa565b915081905092915050565b600082825260208201905092915050565b7f416464726573733a2063616c6c20746f206e6f6e2d636f6e7472616374000000600082015250565b6000610339601d836102f2565b915061034482610303565b602082019050919050565b600060208201905081810360008301526103688161032c565b9050919050565b600081519050919050565b6000601f19601f8301169050919050565b60006103968261036f565b6103a081856102f2565b93506103b0818560208601610280565b6103b98161037a565b840191505092915050565b600060208201905081810360008301526103de818461038b565b90509291505056fe416464726573733a206c6f772d6c6576656c2064656c65676174652063616c6c206661696c6564a2646970667358221220e57dd3eafc9985be746025b6d82d4f011b9a7bb3db56f9a1eb7eadfddd376b6064736f6c63430008110033416464726573733a206c6f772d6c6576656c2064656c65676174652063616c6c206661696c6564a264697066735822122051aa27f08738ebe832b295d580eae710dbc295f638dfe81b78c88ffc7013ec4264736f6c6343000811003360e06040523073ffffffffffffffffffffffffffffffffffffffff1660809073ffffffffffffffffffffffffffffffffffffffff168152503480156200004457600080fd5b506040516200316b3803806200316b83398181016040528101906200006a919062000262565b818073ffffffffffffffffffffffffffffffffffffffff1660a08173ffffffffffffffffffffffffffffffffffffffff1681525050620000af620000ec60201b60201c565b508073ffffffffffffffffffffffffffffffffffffffff1660c08173ffffffffffffffffffffffffffffffffffffffff168152505050506200038d565b600060019054906101000a900460ff16156200013f576040517f08c379a0000000000000000000000000000000000000000000000000000000008152600401620001369062000330565b60405180910390fd5b60ff801660008054906101000a900460ff1660ff161015620001b15760ff6000806101000a81548160ff021916908360ff1602179055507f7f26b83ff96e1f2b6a682f133852f6798a09c465da95921460cefb384740249860ff604051620001a8919062000370565b60405180910390a15b565b600080fd5b600073ffffffffffffffffffffffffffffffffffffffff82169050919050565b6000620001e582620001b8565b9050919050565b6000620001f982620001d8565b9050919050565b6200020b81620001ec565b81146200021757600080fd5b50565b6000815190506200022b8162000200565b92915050565b6200023c81620001d8565b81146200024857600080fd5b50565b6000815190506200025c8162000231565b92915050565b600080604083850312156200027c576200027b620001b3565b5b60006200028c858286016200021a565b92505060206200029f858286016200024b565b9150509250929050565b600082825260208201905092915050565b7f496e697469616c697a61626c653a20636f6e747261637420697320696e69746960008201527f616c697a696e6700000000000000000000000000000000000000000000000000602082015250565b600062000318602783620002a9565b91506200032582620002ba565b604082019050919050565b600060208201905081810360008301526200034b8162000309565b9050919050565b600060ff82169050919050565b6200036a8162000352565b82525050565b60006020820190506200038760008301846200035f565b92915050565b60805160a05160c051612d84620003e7600039600081816106df015261127f015260008181610bd001526114e801526000818161070301528181610791015281816109b301528181610a410152610af10152612d846000f3fe6080604052600436106101175760003560e01c80634f1ef286116100a0578063bc197c8111610064578063bc197c8114610379578063c399ec88146103b6578063c4d66de8146103e1578063d087d2881461040a578063f23a6e61146104355761011e565b80634f1ef286146102b357806352d1902d146102cf5780638da5cb5b146102fa578063b0d691fe14610325578063b61d27f6146103505761011e565b8063245a7bfc116100e7578063245a7bfc146101ef5780633659cfe61461021a5780633a871cdd146102435780634a58db19146102805780634d44560d1461028a5761011e565b806223de291461012357806301ffc9a71461014c578063150b7a021461018957806318dfb3c7146101c65761011e565b3661011e57005b600080fd5b34801561012f57600080fd5b5061014a60048036038101906101459190611961565b610472565b005b34801561015857600080fd5b50610173600480360381019061016e9190611a88565b61047c565b6040516101809190611ad0565b60405180910390f35b34801561019557600080fd5b506101b060048036038101906101ab9190611aeb565b6105b6565b6040516101bd9190611b82565b60405180910390f35b3480156101d257600080fd5b506101ed60048036038101906101e89190611c49565b6105cb565b005b3480156101fb57600080fd5b506102046106dd565b6040516102119190611cd9565b60405180910390f35b34801561022657600080fd5b50610241600480360381019061023c9190611cf4565b610701565b005b34801561024f57600080fd5b5061026a60048036038101906102659190611d7c565b610889565b6040516102779190611dfa565b60405180910390f35b6102886108bc565b005b34801561029657600080fd5b506102b160048036038101906102ac9190611e53565b610931565b005b6102cd60048036038101906102c89190611fd4565b6109b1565b005b3480156102db57600080fd5b506102e4610aed565b6040516102f1919061203f565b60405180910390f35b34801561030657600080fd5b5061030f610ba6565b60405161031c9190611cd9565b60405180910390f35b34801561033157600080fd5b5061033a610bcc565b60405161034791906120b9565b60405180910390f35b34801561035c57600080fd5b50610377600480360381019061037291906120d4565b610bf4565b005b34801561038557600080fd5b506103a0600480360381019061039b919061219e565b610c51565b6040516103ad9190611b82565b60405180910390f35b3480156103c257600080fd5b506103cb610c69565b6040516103d89190611dfa565b60405180910390f35b3480156103ed57600080fd5b5061040860048036038101906104039190611cf4565b610cf1565b005b34801561041657600080fd5b5061041f610e32565b60405161042c9190611dfa565b60405180910390f35b34801561044157600080fd5b5061045c6004803603810190610457919061227a565b610ebd565b6040516104699190611b82565b60405180910390f35b5050505050505050565b60007f150b7a02000000000000000000000000000000000000000000000000000000007bffffffffffffffffffffffffffffffffffffffffffffffffffffffff1916827bffffffffffffffffffffffffffffffffffffffffffffffffffffffff1916148061054757507f4e2312e0000000000000000000000000000000000000000000000000000000007bffffffffffffffffffffffffffffffffffffffffffffffffffffffff1916827bffffffffffffffffffffffffffffffffffffffffffffffffffffffff1916145b806105af57507f01ffc9a7000000000000000000000000000000000000000000000000000000007bffffffffffffffffffffffffffffffffffffffffffffffffffffffff1916827bffffffffffffffffffffffffffffffffffffffffffffffffffffffff1916145b9050919050565b600063150b7a0260e01b905095945050505050565b6105d3610ed3565b81819050848490501461061b576040517f08c379a000000000000000000000000000000000000000000000000000000000815260040161061290612371565b60405180910390fd5b60005b848490508110156106d6576106c385858381811061063f5761063e612391565b5b90506020020160208101906106549190611cf4565b600085858581811061066957610668612391565b5b905060200281019061067b91906123cf565b8080601f016020809104026020016040519081016040528093929190818152602001838380828437600081840152601f19601f82011690508083019250505050505050610fa2565b80806106ce90612461565b91505061061e565b5050505050565b7f000000000000000000000000000000000000000000000000000000000000000081565b7f000000000000000000000000000000000000000000000000000000000000000073ffffffffffffffffffffffffffffffffffffffff163073ffffffffffffffffffffffffffffffffffffffff160361078f576040517f08c379a00000000000000000000000000000000000000000000000000000000081526004016107869061251b565b60405180910390fd5b7f000000000000000000000000000000000000000000000000000000000000000073ffffffffffffffffffffffffffffffffffffffff166107ce611026565b73ffffffffffffffffffffffffffffffffffffffff1614610824576040517f08c379a000000000000000000000000000000000000000000000000000000000815260040161081b906125ad565b60405180910390fd5b61082d8161107d565b61088681600067ffffffffffffffff81111561084c5761084b611ea9565b5b6040519080825280601f01601f19166020018201604052801561087e5781602001600182028036833780820191505090505b506000611088565b50565b60006108936111f6565b61089d848461126d565b90506108ac84602001356112e2565b6108b5826112e5565b9392505050565b6108c4610bcc565b73ffffffffffffffffffffffffffffffffffffffff1663b760faf934306040518363ffffffff1660e01b81526004016108fd9190611cd9565b6000604051808303818588803b15801561091657600080fd5b505af115801561092a573d6000803e3d6000fd5b5050505050565b610939611381565b610941610bcc565b73ffffffffffffffffffffffffffffffffffffffff1663205c287883836040518363ffffffff1660e01b815260040161097b9291906125dc565b600060405180830381600087803b15801561099557600080fd5b505af11580156109a9573d6000803e3d6000fd5b505050505050565b7f000000000000000000000000000000000000000000000000000000000000000073ffffffffffffffffffffffffffffffffffffffff163073ffffffffffffffffffffffffffffffffffffffff1603610a3f576040517f08c379a0000000000000000000000000000000000000000000000000000000008152600401610a369061251b565b60405180910390fd5b7f000000000000000000000000000000000000000000000000000000000000000073ffffffffffffffffffffffffffffffffffffffff16610a7e611026565b73ffffffffffffffffffffffffffffffffffffffff1614610ad4576040517f08c379a0000000000000000000000000000000000000000000000000000000008152600401610acb906125ad565b60405180910390fd5b610add8261107d565b610ae982826001611088565b5050565b60007f000000000000000000000000000000000000000000000000000000000000000073ffffffffffffffffffffffffffffffffffffffff163073ffffffffffffffffffffffffffffffffffffffff1614610b7d576040517f08c379a0000000000000000000000000000000000000000000000000000000008152600401610b7490612677565b60405180910390fd5b7f360894a13ba1a3210667c828492db98dca3e2076cc3735a920a3ca505d382bbc60001b905090565b600060029054906101000a900473ffffffffffffffffffffffffffffffffffffffff1681565b60007f0000000000000000000000000000000000000000000000000000000000000000905090565b610bfc610ed3565b610c4b848484848080601f016020809104026020016040519081016040528093929190818152602001838380828437600081840152601f19601f82011690508083019250505050505050610fa2565b50505050565b600063bc197c8160e01b905098975050505050505050565b6000610c73610bcc565b73ffffffffffffffffffffffffffffffffffffffff166370a08231306040518263ffffffff1660e01b8152600401610cab9190611cd9565b602060405180830381865afa158015610cc8573d6000803e3d6000fd5b505050506040513d601f19601f82011682018060405250810190610cec91906126ac565b905090565b60008060019054906101000a900460ff16159050808015610d225750600160008054906101000a900460ff1660ff16105b80610d4f5750610d3130611449565b158015610d4e5750600160008054906101000a900460ff1660ff16145b5b610d8e576040517f08c379a0000000000000000000000000000000000000000000000000000000008152600401610d859061274b565b60405180910390fd5b60016000806101000a81548160ff021916908360ff1602179055508015610dcb576001600060016101000a81548160ff0219169083151502179055505b610dd5600061146c565b8015610e2e5760008060016101000a81548160ff0219169083151502179055507f7f26b83ff96e1f2b6a682f133852f6798a09c465da95921460cefb38474024986001604051610e2591906127b3565b60405180910390a15b5050565b6000610e3c610bcc565b73ffffffffffffffffffffffffffffffffffffffff166335567e1a3060006040518363ffffffff1660e01b8152600401610e7792919061282d565b602060405180830381865afa158015610e94573d6000803e3d6000fd5b505050506040513d601f19601f82011682018060405250810190610eb891906126ac565b905090565b600063f23a6e6160e01b90509695505050505050565b610edb610bcc565b73ffffffffffffffffffffffffffffffffffffffff163373ffffffffffffffffffffffffffffffffffffffff161480610f615750600060029054906101000a900473ffffffffffffffffffffffffffffffffffffffff1673ffffffffffffffffffffffffffffffffffffffff163373ffffffffffffffffffffffffffffffffffffffff16145b610fa0576040517f08c379a0000000000000000000000000000000000000000000000000000000008152600401610f97906128a2565b60405180910390fd5b565b6000808473ffffffffffffffffffffffffffffffffffffffff168484604051610fcb9190612933565b60006040518083038185875af1925050503d8060008114611008576040519150601f19603f3d011682016040523d82523d6000602084013e61100d565b606091505b50915091508161101f57805160208201fd5b5050505050565b60006110547f360894a13ba1a3210667c828492db98dca3e2076cc3735a920a3ca505d382bbc60001b61154c565b60000160009054906101000a900473ffffffffffffffffffffffffffffffffffffffff16905090565b611085611381565b50565b6110b47f4910fdfa16fed3260ed0e7147f7cc6da11a60208b5b9406d12a635614ffd914360001b611556565b60000160009054906101000a900460ff16156110d8576110d383611560565b6111f1565b8273ffffffffffffffffffffffffffffffffffffffff166352d1902d6040518163ffffffff1660e01b8152600401602060405180830381865afa92505050801561114057506040513d601f19601f8201168201806040525081019061113d919061295f565b60015b61117f576040517f08c379a0000000000000000000000000000000000000000000000000000000008152600401611176906129fe565b60405180910390fd5b7f360894a13ba1a3210667c828492db98dca3e2076cc3735a920a3ca505d382bbc60001b81146111e4576040517f08c379a00000000000000000000000000000000000000000000000000000000081526004016111db90612a90565b60405180910390fd5b506111f0838383611619565b5b505050565b6111fe610bcc565b73ffffffffffffffffffffffffffffffffffffffff163373ffffffffffffffffffffffffffffffffffffffff161461126b576040517f08c379a000000000000000000000000000000000000000000000000000000000815260040161126290612afc565b60405180910390fd5b565b60006112da60405180606001604052807f000000000000000000000000000000000000000000000000000000000000000073ffffffffffffffffffffffffffffffffffffffff168152602001600065ffffffffffff168152602001600065ffffffffffff16815250611645565b905092915050565b50565b6000811461137e5760003373ffffffffffffffffffffffffffffffffffffffff16827fffffffffffffffffffffffffffffffffffffffffffffffffffffffffffffffff9060405161133590612b42565b600060405180830381858888f193505050503d8060008114611373576040519150601f19603f3d011682016040523d82523d6000602084013e611378565b606091505b50509050505b50565b600060029054906101000a900473ffffffffffffffffffffffffffffffffffffffff1673ffffffffffffffffffffffffffffffffffffffff163373ffffffffffffffffffffffffffffffffffffffff16148061140857503073ffffffffffffffffffffffffffffffffffffffff163373ffffffffffffffffffffffffffffffffffffffff16145b611447576040517f08c379a000000000000000000000000000000000000000000000000000000000815260040161143e90612ba3565b60405180910390fd5b565b6000808273ffffffffffffffffffffffffffffffffffffffff163b119050919050565b80600060026101000a81548173ffffffffffffffffffffffffffffffffffffffff021916908373ffffffffffffffffffffffffffffffffffffffff160217905550600060029054906101000a900473ffffffffffffffffffffffffffffffffffffffff1673ffffffffffffffffffffffffffffffffffffffff167f000000000000000000000000000000000000000000000000000000000000000073ffffffffffffffffffffffffffffffffffffffff167f47e55c76e7a6f1fd8996a1da8008c1ea29699cca35e7bcd057f2dec313b6e5de60405160405180910390a350565b6000819050919050565b6000819050919050565b61156981611449565b6115a8576040517f08c379a000000000000000000000000000000000000000000000000000000000815260040161159f90612c35565b60405180910390fd5b806115d57f360894a13ba1a3210667c828492db98dca3e2076cc3735a920a3ca505d382bbc60001b61154c565b60000160006101000a81548173ffffffffffffffffffffffffffffffffffffffff021916908373ffffffffffffffffffffffffffffffffffffffff16021790555050565b6116228361168d565b60008251118061162f5750805b156116405761163e83836116dc565b505b505050565b600060d0826020015165ffffffffffff16901b60a0836040015165ffffffffffff16901b836000015173ffffffffffffffffffffffffffffffffffffffff1617179050919050565b61169681611560565b8073ffffffffffffffffffffffffffffffffffffffff167fbc7cd75a20ee27fd9adebab32041f755214dbc6bffa90cc0225b39da2e5c2d3b60405160405180910390a250565b60606117018383604051806060016040528060278152602001612d2860279139611709565b905092915050565b60606000808573ffffffffffffffffffffffffffffffffffffffff16856040516117339190612933565b600060405180830381855af49150503d806000811461176e576040519150601f19603f3d011682016040523d82523d6000602084013e611773565b606091505b50915091506117848683838761178f565b925050509392505050565b606083156117f15760008351036117e9576117a985611449565b6117e8576040517f08c379a00000000000000000000000000000000000000000000000000000000081526004016117df90612ca1565b60405180910390fd5b5b8290506117fc565b6117fb8383611804565b5b949350505050565b6000825111156118175781518083602001fd5b806040517f08c379a000000000000000000000000000000000000000000000000000000000815260040161184b9190612d05565b60405180910390fd5b6000604051905090565b600080fd5b600080fd5b600073ffffffffffffffffffffffffffffffffffffffff82169050919050565b600061189382611868565b9050919050565b6118a381611888565b81146118ae57600080fd5b50565b6000813590506118c08161189a565b92915050565b6000819050919050565b6118d9816118c6565b81146118e457600080fd5b50565b6000813590506118f6816118d0565b92915050565b600080fd5b600080fd5b600080fd5b60008083601f840112611921576119206118fc565b5b8235905067ffffffffffffffff81111561193e5761193d611901565b5b60208301915083600182028301111561195a57611959611906565b5b9250929050565b60008060008060008060008060c0898b0312156119815761198061185e565b5b600061198f8b828c016118b1565b98505060206119a08b828c016118b1565b97505060406119b18b828c016118b1565b96505060606119c28b828c016118e7565b955050608089013567ffffffffffffffff8111156119e3576119e2611863565b5b6119ef8b828c0161190b565b945094505060a089013567ffffffffffffffff811115611a1257611a11611863565b5b611a1e8b828c0161190b565b92509250509295985092959890939650565b60007fffffffff0000000000000000000000000000000000000000000000000000000082169050919050565b611a6581611a30565b8114611a7057600080fd5b50565b600081359050611a8281611a5c565b92915050565b600060208284031215611a9e57611a9d61185e565b5b6000611aac84828501611a73565b91505092915050565b60008115159050919050565b611aca81611ab5565b82525050565b6000602082019050611ae56000830184611ac1565b92915050565b600080600080600060808688031215611b0757611b0661185e565b5b6000611b15888289016118b1565b9550506020611b26888289016118b1565b9450506040611b37888289016118e7565b935050606086013567ffffffffffffffff811115611b5857611b57611863565b5b611b648882890161190b565b92509250509295509295909350565b611b7c81611a30565b82525050565b6000602082019050611b976000830184611b73565b92915050565b60008083601f840112611bb357611bb26118fc565b5b8235905067ffffffffffffffff811115611bd057611bcf611901565b5b602083019150836020820283011115611bec57611beb611906565b5b9250929050565b60008083601f840112611c0957611c086118fc565b5b8235905067ffffffffffffffff811115611c2657611c25611901565b5b602083019150836020820283011115611c4257611c41611906565b5b9250929050565b60008060008060408587031215611c6357611c6261185e565b5b600085013567ffffffffffffffff811115611c8157611c80611863565b5b611c8d87828801611b9d565b9450945050602085013567ffffffffffffffff811115611cb057611caf611863565b5b611cbc87828801611bf3565b925092505092959194509250565b611cd381611888565b82525050565b6000602082019050611cee6000830184611cca565b92915050565b600060208284031215611d0a57611d0961185e565b5b6000611d18848285016118b1565b91505092915050565b600080fd5b60006101608284031215611d3d57611d3c611d21565b5b81905092915050565b6000819050919050565b611d5981611d46565b8114611d6457600080fd5b50565b600081359050611d7681611d50565b92915050565b600080600060608486031215611d9557611d9461185e565b5b600084013567ffffffffffffffff811115611db357611db2611863565b5b611dbf86828701611d26565b9350506020611dd086828701611d67565b9250506040611de1868287016118e7565b9150509250925092565b611df4816118c6565b82525050565b6000602082019050611e0f6000830184611deb565b92915050565b6000611e2082611868565b9050919050565b611e3081611e15565b8114611e3b57600080fd5b50565b600081359050611e4d81611e27565b92915050565b60008060408385031215611e6a57611e6961185e565b5b6000611e7885828601611e3e565b9250506020611e89858286016118e7565b9150509250929050565b600080fd5b6000601f19601f8301169050919050565b7f4e487b7100000000000000000000000000000000000000000000000000000000600052604160045260246000fd5b611ee182611e98565b810181811067ffffffffffffffff82111715611f0057611eff611ea9565b5b80604052505050565b6000611f13611854565b9050611f1f8282611ed8565b919050565b600067ffffffffffffffff821115611f3f57611f3e611ea9565b5b611f4882611e98565b9050602081019050919050565b82818337600083830152505050565b6000611f77611f7284611f24565b611f09565b905082815260208101848484011115611f9357611f92611e93565b5b611f9e848285611f55565b509392505050565b600082601f830112611fbb57611fba6118fc565b5b8135611fcb848260208601611f64565b91505092915050565b60008060408385031215611feb57611fea61185e565b5b6000611ff9858286016118b1565b925050602083013567ffffffffffffffff81111561201a57612019611863565b5b61202685828601611fa6565b9150509250929050565b61203981611d46565b82525050565b60006020820190506120546000830184612030565b92915050565b6000819050919050565b600061207f61207a61207584611868565b61205a565b611868565b9050919050565b600061209182612064565b9050919050565b60006120a382612086565b9050919050565b6120b381612098565b82525050565b60006020820190506120ce60008301846120aa565b92915050565b600080600080606085870312156120ee576120ed61185e565b5b60006120fc878288016118b1565b945050602061210d878288016118e7565b935050604085013567ffffffffffffffff81111561212e5761212d611863565b5b61213a8782880161190b565b925092505092959194509250565b60008083601f84011261215e5761215d6118fc565b5b8235905067ffffffffffffffff81111561217b5761217a611901565b5b60208301915083602082028301111561219757612196611906565b5b9250929050565b60008060008060008060008060a0898b0312156121be576121bd61185e565b5b60006121cc8b828c016118b1565b98505060206121dd8b828c016118b1565b975050604089013567ffffffffffffffff8111156121fe576121fd611863565b5b61220a8b828c01612148565b9650965050606089013567ffffffffffffffff81111561222d5761222c611863565b5b6122398b828c01612148565b9450945050608089013567ffffffffffffffff81111561225c5761225b611863565b5b6122688b828c0161190b565b92509250509295985092959890939650565b60008060008060008060a087890312156122975761229661185e565b5b60006122a589828a016118b1565b96505060206122b689828a016118b1565b95505060406122c789828a016118e7565b94505060606122d889828a016118e7565b935050608087013567ffffffffffffffff8111156122f9576122f8611863565b5b61230589828a0161190b565b92509250509295509295509295565b600082825260208201905092915050565b7f77726f6e67206172726179206c656e6774687300000000000000000000000000600082015250565b600061235b601383612314565b915061236682612325565b602082019050919050565b6000602082019050818103600083015261238a8161234e565b9050919050565b7f4e487b7100000000000000000000000000000000000000000000000000000000600052603260045260246000fd5b600080fd5b600080fd5b600080fd5b600080833560016020038436030381126123ec576123eb6123c0565b5b80840192508235915067ffffffffffffffff82111561240e5761240d6123c5565b5b60208301925060018202360383131561242a576124296123ca565b5b509250929050565b7f4e487b7100000000000000000000000000000000000000000000000000000000600052601160045260246000fd5b600061246c826118c6565b91507fffffffffffffffffffffffffffffffffffffffffffffffffffffffffffffffff820361249e5761249d612432565b5b600182019050919050565b7f46756e6374696f6e206d7573742062652063616c6c6564207468726f7567682060008201527f64656c656761746563616c6c0000000000000000000000000000000000000000602082015250565b6000612505602c83612314565b9150612510826124a9565b604082019050919050565b60006020820190508181036000830152612534816124f8565b9050919050565b7f46756e6374696f6e206d7573742062652063616c6c6564207468726f7567682060008201527f6163746976652070726f78790000000000000000000000000000000000000000602082015250565b6000612597602c83612314565b91506125a28261253b565b604082019050919050565b600060208201905081810360008301526125c68161258a565b9050919050565b6125d681611e15565b82525050565b60006040820190506125f160008301856125cd565b6125fe6020830184611deb565b9392505050565b7f555550535570677261646561626c653a206d757374206e6f742062652063616c60008201527f6c6564207468726f7567682064656c656761746563616c6c0000000000000000602082015250565b6000612661603883612314565b915061266c82612605565b604082019050919050565b6000602082019050818103600083015261269081612654565b9050919050565b6000815190506126a6816118d0565b92915050565b6000602082840312156126c2576126c161185e565b5b60006126d084828501612697565b91505092915050565b7f496e697469616c697a61626c653a20636f6e747261637420697320616c72656160008201527f647920696e697469616c697a6564000000000000000000000000000000000000602082015250565b6000612735602e83612314565b9150612740826126d9565b604082019050919050565b6000602082019050818103600083015261276481612728565b9050919050565b6000819050919050565b600060ff82169050919050565b600061279d6127986127938461276b565b61205a565b612775565b9050919050565b6127ad81612782565b82525050565b60006020820190506127c860008301846127a4565b92915050565b6000819050919050565b600077ffffffffffffffffffffffffffffffffffffffffffffffff82169050919050565b600061281761281261280d846127ce565b61205a565b6127d8565b9050919050565b612827816127fc565b82525050565b60006040820190506128426000830185611cca565b61284f602083018461281e565b9392505050565b7f6163636f756e743a206e6f74204f776e6572206f7220456e747279506f696e74600082015250565b600061288c602083612314565b915061289782612856565b602082019050919050565b600060208201905081810360008301526128bb8161287f565b9050919050565b600081519050919050565b600081905092915050565b60005b838110156128f65780820151818401526020810190506128db565b60008484015250505050565b600061290d826128c2565b61291781856128cd565b93506129278185602086016128d8565b80840191505092915050565b600061293f8284612902565b915081905092915050565b60008151905061295981611d50565b92915050565b6000602082840312156129755761297461185e565b5b60006129838482850161294a565b91505092915050565b7f45524331393637557067726164653a206e657720696d706c656d656e7461746960008201527f6f6e206973206e6f742055555053000000000000000000000000000000000000602082015250565b60006129e8602e83612314565b91506129f38261298c565b604082019050919050565b60006020820190508181036000830152612a17816129db565b9050919050565b7f45524331393637557067726164653a20756e737570706f727465642070726f7860008201527f6961626c65555549440000000000000000000000000000000000000000000000602082015250565b6000612a7a602983612314565b9150612a8582612a1e565b604082019050919050565b60006020820190508181036000830152612aa981612a6d565b9050919050565b7f6163636f756e743a206e6f742066726f6d20456e747279506f696e7400000000600082015250565b6000612ae6601c83612314565b9150612af182612ab0565b602082019050919050565b60006020820190508181036000830152612b1581612ad9565b9050919050565b50565b6000612b2c6000836128cd565b9150612b3782612b1c565b600082019050919050565b6000612b4d82612b1f565b9150819050919050565b7f6f6e6c79206f776e657200000000000000000000000000000000000000000000600082015250565b6000612b8d600a83612314565b9150612b9882612b57565b602082019050919050565b60006020820190508181036000830152612bbc81612b80565b9050919050565b7f455243313936373a206e657720696d706c656d656e746174696f6e206973206e60008201527f6f74206120636f6e747261637400000000000000000000000000000000000000602082015250565b6000612c1f602d83612314565b9150612c2a82612bc3565b604082019050919050565b60006020820190508181036000830152612c4e81612c12565b9050919050565b7f416464726573733a2063616c6c20746f206e6f6e2d636f6e7472616374000000600082015250565b6000612c8b601d83612314565b9150612c9682612c55565b602082019050919050565b60006020820190508181036000830152612cba81612c7e565b9050919050565b600081519050919050565b6000612cd782612cc1565b612ce18185612314565b9350612cf18185602086016128d8565b612cfa81611e98565b840191505092915050565b60006020820190508181036000830152612d1f8184612ccc565b90509291505056fe416464726573733a206c6f772d6c6576656c2064656c65676174652063616c6c206661696c6564a2646970667358221220fe0734f88c98d441baf829481752fb803955a7263e86b40a909e18d3361e012e64736f6c63430008110033",
  "linkReferences": {},
  "deployedLinkReferences": {}
}