{
  "_format": "hh-sol-artifact-1",
  "contractName": "EIP4337Manager",
  "sourceName": "contracts/samples/gnosis/EIP4337Manager.sol",
  "abi": [
    {
      "inputs": [
        {
          "internalType": "address",
          "name": "anEntryPoint",
          "type": "address"
        }
      ],
      "stateMutability": "nonpayable",
      "type": "constructor"
    },
    {
      "inputs": [],
      "name": "eip4337Fallback",
      "outputs": [
        {
          "internalType": "address",
          "name": "",
          "type": "address"
        }
      ],
      "stateMutability": "view",
      "type": "function"
    },
    {
      "inputs": [],
      "name": "entryPoint",
      "outputs": [
        {
          "internalType": "address",
          "name": "",
          "type": "address"
        }
      ],
      "stateMutability": "view",
      "type": "function"
    },
    {
      "inputs": [
        {
          "internalType": "address",
          "name": "to",
          "type": "address"
        },
        {
          "internalType": "uint256",
          "name": "value",
          "type": "uint256"
        },
        {
          "internalType": "bytes",
          "name": "data",
          "type": "bytes"
        },
        {
          "internalType": "enum Enum.Operation",
          "name": "operation",
          "type": "uint8"
        }
      ],
      "name": "executeAndRevert",
      "outputs": [],
      "stateMutability": "nonpayable",
      "type": "function"
    },
    {
      "inputs": [
        {
          "internalType": "contract GnosisSafe",
          "name": "safe",
          "type": "address"
        }
      ],
      "name": "getCurrentEIP4337Manager",
      "outputs": [
        {
          "internalType": "address",
          "name": "prev",
          "type": "address"
        },
        {
          "internalType": "address",
          "name": "manager",
          "type": "address"
        }
      ],
      "stateMutability": "view",
      "type": "function"
    },
    {
      "inputs": [],
      "name": "getNonce",
      "outputs": [
        {
          "internalType": "uint256",
          "name": "",
          "type": "uint256"
        }
      ],
      "stateMutability": "view",
      "type": "function"
    },
    {
      "inputs": [
        {
          "internalType": "address",
          "name": "prevModule",
          "type": "address"
        },
        {
          "internalType": "contract EIP4337Manager",
          "name": "oldManager",
          "type": "address"
        },
        {
          "internalType": "contract EIP4337Manager",
          "name": "newManager",
          "type": "address"
        }
      ],
      "name": "replaceEIP4337Manager",
      "outputs": [],
      "stateMutability": "nonpayable",
      "type": "function"
    },
    {
      "inputs": [
        {
          "internalType": "contract EIP4337Manager",
          "name": "manager",
          "type": "address"
        }
      ],
      "name": "setup4337Modules",
      "outputs": [],
      "stateMutability": "nonpayable",
      "type": "function"
    },
    {
      "inputs": [
        {
          "internalType": "contract GnosisSafe",
          "name": "safe",
          "type": "address"
        },
        {
          "internalType": "contract EIP4337Manager",
          "name": "manager",
          "type": "address"
        }
      ],
      "name": "validateEip4337",
      "outputs": [],
      "stateMutability": "nonpayable",
      "type": "function"
    },
    {
      "inputs": [
        {
          "components": [
            {
              "internalType": "address",
              "name": "sender",
              "type": "address"
            },
            {
              "internalType": "uint256",
              "name": "nonce",
              "type": "uint256"
            },
            {
              "internalType": "bytes",
              "name": "initCode",
              "type": "bytes"
            },
            {
              "internalType": "bytes",
              "name": "callData",
              "type": "bytes"
            },
            {
              "internalType": "uint256",
              "name": "callGasLimit",
              "type": "uint256"
            },
            {
              "internalType": "uint256",
              "name": "verificationGasLimit",
              "type": "uint256"
            },
            {
              "internalType": "uint256",
              "name": "preVerificationGas",
              "type": "uint256"
            },
            {
              "internalType": "uint256",
              "name": "maxFeePerGas",
              "type": "uint256"
            },
            {
              "internalType": "uint256",
              "name": "maxPriorityFeePerGas",
              "type": "uint256"
            },
            {
              "internalType": "bytes",
              "name": "paymasterAndData",
              "type": "bytes"
            },
            {
              "internalType": "bytes",
              "name": "signature",
              "type": "bytes"
            }
          ],
          "internalType": "struct UserOperation",
          "name": "userOp",
          "type": "tuple"
        },
        {
          "internalType": "bytes32",
          "name": "userOpHash",
          "type": "bytes32"
        },
        {
          "internalType": "uint256",
          "name": "missingAccountFunds",
          "type": "uint256"
        }
      ],
      "name": "validateUserOp",
      "outputs": [
        {
          "internalType": "uint256",
          "name": "validationData",
          "type": "uint256"
        }
      ],
      "stateMutability": "nonpayable",
      "type": "function"
    }
  ],
  "bytecode": "0x60c06040523480156200001157600080fd5b5060405162004cbd38038062004cbd833981810160405281019062000037919062000156565b8073ffffffffffffffffffffffffffffffffffffffff1660a08173ffffffffffffffffffffffffffffffffffffffff1681525050306040516200007a90620000de565b62000086919062000199565b604051809103906000f080158015620000a3573d6000803e3d6000fd5b5073ffffffffffffffffffffffffffffffffffffffff1660808173ffffffffffffffffffffffffffffffffffffffff168152505050620001b6565b61193b806200338283390190565b600080fd5b600073ffffffffffffffffffffffffffffffffffffffff82169050919050565b60006200011e82620000f1565b9050919050565b620001308162000111565b81146200013c57600080fd5b50565b600081519050620001508162000125565b92915050565b6000602082840312156200016f576200016e620000ec565b5b60006200017f848285016200013f565b91505092915050565b620001938162000111565b82525050565b6000602082019050620001b0600083018462000188565b92915050565b60805160a05161318a620001f86000396000818161035701528181610bb801528181610da501526111d6015260008181610b600152610c46015261318a6000f3fe608060405234801561001057600080fd5b50600436106100935760003560e01c8063940d3c6011610066578063940d3c6014610133578063b0d691fe1461014f578063d041593b1461016d578063d087d28814610189578063efae6e06146101a757610093565b8063039b1728146100985780633a871cdd146100c957806345b1e0ca146100f957806370b8a01d14610115575b600080fd5b6100b260048036038101906100ad9190611b90565b6101c3565b6040516100c0929190611bde565b60405180910390f35b6100e360048036038101906100de9190611c98565b61031f565b6040516100f09190611d16565b60405180910390f35b610113600480360381019061010e9190611d6f565b6105f9565b005b61011d610b5e565b60405161012a9190611daf565b60405180910390f35b61014d60048036038101906101489190611f61565b610b82565b005b610157610da3565b6040516101649190611daf565b60405180910390f35b61018760048036038101906101829190611fe4565b610dc7565b005b6101916111d2565b60405161019e9190611d16565b60405180910390f35b6101c160048036038101906101bc9190612011565b611276565b005b6000806001915060008373ffffffffffffffffffffffffffffffffffffffff1663cc2f8452600160646040518363ffffffff1660e01b81526004016102099291906120a9565b600060405180830381865afa158015610226573d6000803e3d6000fd5b505050506040513d6000823e3d601f19601f8201168201806040525081019061024f91906121af565b50905060005b81518110156103105760008282815181106102735761027261220b565b5b602002602001015190508073ffffffffffffffffffffffffffffffffffffffff16632bcadc246040518163ffffffff1660e01b8152600401602060405180830381865afa9250505080156102e557506040513d601f19601f820116820180604052508101906102e2919061223a565b60015b156102f9578581955095505050505061031a565b80945050808061030890612296565b915050610255565b5060008092509250505b915091565b6000806000366014600036905061033691906122de565b9080926103459392919061231c565b90610350919061239b565b60601c90507f000000000000000000000000000000000000000000000000000000000000000073ffffffffffffffffffffffffffffffffffffffff168173ffffffffffffffffffffffffffffffffffffffff16146103e3576040517f08c379a00000000000000000000000000000000000000000000000000000000081526004016103da90612457565b60405180910390fd5b600030905060006103f386611723565b9050600061045d8880610140019061040b9190612486565b8080601f016020809104026020016040519081016040528093929190818152602001838380828437600081840152601f19601f820116905080830192505050505050508361175390919063ffffffff16565b90506001600454146104a4576040517f08c379a000000000000000000000000000000000000000000000000000000000815260040161049b90612535565b60405180910390fd5b8273ffffffffffffffffffffffffffffffffffffffff16632f54bf6e826040518263ffffffff1660e01b81526004016104dd9190611daf565b602060405180830381865afa1580156104fa573d6000803e3d6000fd5b505050506040513d601f19601f8201168201806040525081019061051e919061258d565b61052757600194505b67ffffffffffffffff8016886020013510610577576040517f08c379a000000000000000000000000000000000000000000000000000000000815260040161056e90612606565b60405180910390fd5b60008611156105ee5760008473ffffffffffffffffffffffffffffffffffffffff16876040516105a690612657565b60006040518083038185875af1925050503d80600081146105e3576040519150601f19603f3d011682016040523d82523d6000602084013e6105e8565b606091505b50509050505b505050509392505050565b6000604167ffffffffffffffff81111561061657610615611e11565b5b6040519080825280601f01601f1916602001820160405280156106485781602001600182028036833780820191505090505b509050601b60f81b816040815181106106645761066361220b565b5b60200101907effffffffffffffffffffffffffffffffffffffffffffffffffffffffffffff1916908160001a905350600160f81b816002815181106106ac576106ab61220b565b5b60200101907effffffffffffffffffffffffffffffffffffffffffffffffffffffffffffff1916908160001a905350600160f81b816023815181106106f4576106f361220b565b5b60200101907effffffffffffffffffffffffffffffffffffffffffffffffffffffffffffff1916908160001a90535060008273ffffffffffffffffffffffffffffffffffffffff1663b0d691fe6040518163ffffffff1660e01b8152600401602060405180830381865afa158015610770573d6000803e3d6000fd5b505050506040513d601f19601f82011682018060405250810190610794919061223a565b73ffffffffffffffffffffffffffffffffffffffff166335567e1a8560006040518363ffffffff1660e01b81526004016107cf9291906126cb565b602060405180830381865afa1580156107ec573d6000803e3d6000fd5b505050506040513d601f19601f820116820180604052508101906108109190612709565b905060006040518061016001604052808673ffffffffffffffffffffffffffffffffffffffff16815260200183815260200160405180602001604052806000815250815260200160405180602001604052806000815250815260200160008152602001620f424081526020016000815260200160008152602001600081526020016040518060200160405280600081525081526020018481525090506000600167ffffffffffffffff8111156108c9576108c8611e11565b5b60405190808252806020026020018201604052801561090257816020015b6108ef611a9c565b8152602001906001900390816108e75790505b509050818160008151811061091a5761091961220b565b5b602002602001018190525060008573ffffffffffffffffffffffffffffffffffffffff1663b0d691fe6040518163ffffffff1660e01b8152600401602060405180830381865afa158015610972573d6000803e3d6000fd5b505050506040513d601f19601f82011682018060405250810190610996919061223a565b90508073ffffffffffffffffffffffffffffffffffffffff16631fad948c83336040518363ffffffff1660e01b81526004016109d39291906129a8565b600060405180830381600087803b1580156109ed57600080fd5b505af19250505080156109fe575060015b610b1a573d8060008114610a2e576040519150601f19603f3d011682016040523d82523d6000602084013e610a33565b606091505b506000604051602401610a469190612a62565b6040516020818303038152906040527f220266b6000000000000000000000000000000000000000000000000000000007bffffffffffffffffffffffffffffffffffffffffffffffffffffffff19166020820180517bffffffffffffffffffffffffffffffffffffffffffffffffffffffff838183161783525050505080519060200120818051906020012014610b1457806040517f08c379a0000000000000000000000000000000000000000000000000000000008152600401610b0b9190612ad4565b60405180910390fd5b50610b55565b6040517f08c379a0000000000000000000000000000000000000000000000000000000008152600401610b4c90612b68565b60405180910390fd5b50505050505050565b7f000000000000000000000000000000000000000000000000000000000000000081565b6000803660146000369050610b9791906122de565b908092610ba69392919061231c565b90610bb1919061239b565b60601c90507f000000000000000000000000000000000000000000000000000000000000000073ffffffffffffffffffffffffffffffffffffffff168173ffffffffffffffffffffffffffffffffffffffff1614610c44576040517f08c379a0000000000000000000000000000000000000000000000000000000008152600401610c3b90612457565b60405180910390fd5b7f000000000000000000000000000000000000000000000000000000000000000073ffffffffffffffffffffffffffffffffffffffff163373ffffffffffffffffffffffffffffffffffffffff1614610cd2576040517f08c379a0000000000000000000000000000000000000000000000000000000008152600401610cc990612bfa565b60405180910390fd5b6000610d01868686867fffffffffffffffffffffffffffffffffffffffffffffffffffffffffffffffff61177a565b90506000610d2e7fffffffffffffffffffffffffffffffffffffffffffffffffffffffffffffffff6117d3565b905081610d9a57604481511015610d4457600080fd5b60048101905080806020019051810190610d5e9190612cbb565b6040517f08c379a0000000000000000000000000000000000000000000000000000000008152600401610d919190612ad4565b60405180910390fd5b50505050505050565b7f000000000000000000000000000000000000000000000000000000000000000081565b60003090508073ffffffffffffffffffffffffffffffffffffffff16632d9ad53d8373ffffffffffffffffffffffffffffffffffffffff1663b0d691fe6040518163ffffffff1660e01b8152600401602060405180830381865afa158015610e33573d6000803e3d6000fd5b505050506040513d601f19601f82011682018060405250810190610e57919061223a565b6040518263ffffffff1660e01b8152600401610e739190611daf565b602060405180830381865afa158015610e90573d6000803e3d6000fd5b505050506040513d601f19601f82011682018060405250810190610eb4919061258d565b15610ef4576040517f08c379a0000000000000000000000000000000000000000000000000000000008152600401610eeb90612d76565b60405180910390fd5b8073ffffffffffffffffffffffffffffffffffffffff16632d9ad53d8373ffffffffffffffffffffffffffffffffffffffff166370b8a01d6040518163ffffffff1660e01b8152600401602060405180830381865afa158015610f5b573d6000803e3d6000fd5b505050506040513d601f19601f82011682018060405250810190610f7f919061223a565b6040518263ffffffff1660e01b8152600401610f9b9190611daf565b602060405180830381865afa158015610fb8573d6000803e3d6000fd5b505050506040513d601f19601f82011682018060405250810190610fdc919061258d565b1561101c576040517f08c379a000000000000000000000000000000000000000000000000000000000815260040161101390612e08565b60405180910390fd5b8073ffffffffffffffffffffffffffffffffffffffff1663610b59258373ffffffffffffffffffffffffffffffffffffffff1663b0d691fe6040518163ffffffff1660e01b8152600401602060405180830381865afa158015611083573d6000803e3d6000fd5b505050506040513d601f19601f820116820180604052508101906110a7919061223a565b6040518263ffffffff1660e01b81526004016110c39190611daf565b600060405180830381600087803b1580156110dd57600080fd5b505af11580156110f1573d6000803e3d6000fd5b505050508073ffffffffffffffffffffffffffffffffffffffff1663610b59258373ffffffffffffffffffffffffffffffffffffffff166370b8a01d6040518163ffffffff1660e01b8152600401602060405180830381865afa15801561115c573d6000803e3d6000fd5b505050506040513d601f19601f82011682018060405250810190611180919061223a565b6040518263ffffffff1660e01b815260040161119c9190611daf565b600060405180830381600087803b1580156111b657600080fd5b505af11580156111ca573d6000803e3d6000fd5b505050505050565b60007f000000000000000000000000000000000000000000000000000000000000000073ffffffffffffffffffffffffffffffffffffffff166335567e1a3060006040518363ffffffff1660e01b81526004016112309291906126cb565b602060405180830381865afa15801561124d573d6000803e3d6000fd5b505050506040513d601f19601f820116820180604052508101906112719190612709565b905090565b600030905060008373ffffffffffffffffffffffffffffffffffffffff166370b8a01d6040518163ffffffff1660e01b8152600401602060405180830381865afa1580156112c8573d6000803e3d6000fd5b505050506040513d601f19601f820116820180604052508101906112ec919061223a565b90508173ffffffffffffffffffffffffffffffffffffffff16632d9ad53d826040518263ffffffff1660e01b81526004016113279190611daf565b602060405180830381865afa158015611344573d6000803e3d6000fd5b505050506040513d601f19601f82011682018060405250810190611368919061258d565b6113a7576040517f08c379a000000000000000000000000000000000000000000000000000000000815260040161139e90612e9a565b60405180910390fd5b8173ffffffffffffffffffffffffffffffffffffffff1663e009cfde828673ffffffffffffffffffffffffffffffffffffffff1663b0d691fe6040518163ffffffff1660e01b8152600401602060405180830381865afa15801561140f573d6000803e3d6000fd5b505050506040513d601f19601f82011682018060405250810190611433919061223a565b6040518363ffffffff1660e01b8152600401611450929190611bde565b600060405180830381600087803b15801561146a57600080fd5b505af115801561147e573d6000803e3d6000fd5b505050508173ffffffffffffffffffffffffffffffffffffffff1663e009cfde86836040518363ffffffff1660e01b81526004016114bd929190611bde565b600060405180830381600087803b1580156114d757600080fd5b505af11580156114eb573d6000803e3d6000fd5b5050505060008373ffffffffffffffffffffffffffffffffffffffff166370b8a01d6040518163ffffffff1660e01b8152600401602060405180830381865afa15801561153c573d6000803e3d6000fd5b505050506040513d601f19601f82011682018060405250810190611560919061223a565b90508273ffffffffffffffffffffffffffffffffffffffff1663610b59258573ffffffffffffffffffffffffffffffffffffffff1663b0d691fe6040518163ffffffff1660e01b8152600401602060405180830381865afa1580156115c9573d6000803e3d6000fd5b505050506040513d601f19601f820116820180604052508101906115ed919061223a565b6040518263ffffffff1660e01b81526004016116099190611daf565b600060405180830381600087803b15801561162357600080fd5b505af1158015611637573d6000803e3d6000fd5b505050508273ffffffffffffffffffffffffffffffffffffffff1663610b5925826040518263ffffffff1660e01b81526004016116749190611daf565b600060405180830381600087803b15801561168e57600080fd5b505af11580156116a2573d6000803e3d6000fd5b505050508273ffffffffffffffffffffffffffffffffffffffff1663f08a0323826040518263ffffffff1660e01b81526004016116df9190611daf565b600060405180830381600087803b1580156116f957600080fd5b505af115801561170d573d6000803e3d6000fd5b5050505061171b83856105f9565b505050505050565b6000816040516020016117369190612f32565b604051602081830303815290604052805190602001209050919050565b60008060006117628585611803565b9150915061176f81611854565b819250505092915050565b600060018081111561178f5761178e612f58565b5b8360018111156117a2576117a1612f58565b5b036117ba576000808551602087018986f490506117ca565b600080855160208701888a87f190505b95945050505050565b60603d828111156117e2578290505b604051602082018101604052818152816000602083013e8092505050919050565b60008060418351036118445760008060006020860151925060408601519150606086015160001a9050611838878285856119ba565b9450945050505061184d565b60006002915091505b9250929050565b6000600481111561186857611867612f58565b5b81600481111561187b5761187a612f58565b5b03156119b7576001600481111561189557611894612f58565b5b8160048111156118a8576118a7612f58565b5b036118e8576040517f08c379a00000000000000000000000000000000000000000000000000000000081526004016118df90612fd3565b60405180910390fd5b600260048111156118fc576118fb612f58565b5b81600481111561190f5761190e612f58565b5b0361194f576040517f08c379a00000000000000000000000000000000000000000000000000000000081526004016119469061303f565b60405180910390fd5b6003600481111561196357611962612f58565b5b81600481111561197657611975612f58565b5b036119b6576040517f08c379a00000000000000000000000000000000000000000000000000000000081526004016119ad906130d1565b60405180910390fd5b5b50565b6000807f7fffffffffffffffffffffffffffffff5d576e7357a4501ddfe92f46681b20a08360001c11156119f5576000600391509150611a93565b600060018787878760405160008152602001604052604051611a1a949392919061310f565b6020604051602081039080840390855afa158015611a3c573d6000803e3d6000fd5b505050602060405103519050600073ffffffffffffffffffffffffffffffffffffffff168173ffffffffffffffffffffffffffffffffffffffff1603611a8a57600060019250925050611a93565b80600092509250505b94509492505050565b604051806101600160405280600073ffffffffffffffffffffffffffffffffffffffff168152602001600081526020016060815260200160608152602001600081526020016000815260200160008152602001600081526020016000815260200160608152602001606081525090565b6000604051905090565b600080fd5b600080fd5b600073ffffffffffffffffffffffffffffffffffffffff82169050919050565b6000611b4b82611b20565b9050919050565b6000611b5d82611b40565b9050919050565b611b6d81611b52565b8114611b7857600080fd5b50565b600081359050611b8a81611b64565b92915050565b600060208284031215611ba657611ba5611b16565b5b6000611bb484828501611b7b565b91505092915050565b6000611bc882611b20565b9050919050565b611bd881611bbd565b82525050565b6000604082019050611bf36000830185611bcf565b611c006020830184611bcf565b9392505050565b600080fd5b60006101608284031215611c2357611c22611c07565b5b81905092915050565b6000819050919050565b611c3f81611c2c565b8114611c4a57600080fd5b50565b600081359050611c5c81611c36565b92915050565b6000819050919050565b611c7581611c62565b8114611c8057600080fd5b50565b600081359050611c9281611c6c565b92915050565b600080600060608486031215611cb157611cb0611b16565b5b600084013567ffffffffffffffff811115611ccf57611cce611b1b565b5b611cdb86828701611c0c565b9350506020611cec86828701611c4d565b9250506040611cfd86828701611c83565b9150509250925092565b611d1081611c62565b82525050565b6000602082019050611d2b6000830184611d07565b92915050565b6000611d3c82611bbd565b9050919050565b611d4c81611d31565b8114611d5757600080fd5b50565b600081359050611d6981611d43565b92915050565b60008060408385031215611d8657611d85611b16565b5b6000611d9485828601611b7b565b9250506020611da585828601611d5a565b9150509250929050565b6000602082019050611dc46000830184611bcf565b92915050565b611dd381611bbd565b8114611dde57600080fd5b50565b600081359050611df081611dca565b92915050565b600080fd5b600080fd5b6000601f19601f8301169050919050565b7f4e487b7100000000000000000000000000000000000000000000000000000000600052604160045260246000fd5b611e4982611e00565b810181811067ffffffffffffffff82111715611e6857611e67611e11565b5b80604052505050565b6000611e7b611b0c565b9050611e878282611e40565b919050565b600067ffffffffffffffff821115611ea757611ea6611e11565b5b611eb082611e00565b9050602081019050919050565b82818337600083830152505050565b6000611edf611eda84611e8c565b611e71565b905082815260208101848484011115611efb57611efa611dfb565b5b611f06848285611ebd565b509392505050565b600082601f830112611f2357611f22611df6565b5b8135611f33848260208601611ecc565b91505092915050565b60028110611f4957600080fd5b50565b600081359050611f5b81611f3c565b92915050565b60008060008060808587031215611f7b57611f7a611b16565b5b6000611f8987828801611de1565b9450506020611f9a87828801611c83565b935050604085013567ffffffffffffffff811115611fbb57611fba611b1b565b5b611fc787828801611f0e565b9250506060611fd887828801611f4c565b91505092959194509250565b600060208284031215611ffa57611ff9611b16565b5b600061200884828501611d5a565b91505092915050565b60008060006060848603121561202a57612029611b16565b5b600061203886828701611de1565b935050602061204986828701611d5a565b925050604061205a86828701611d5a565b9150509250925092565b6000819050919050565b6000819050919050565b600061209361208e61208984612064565b61206e565b611c62565b9050919050565b6120a381612078565b82525050565b60006040820190506120be6000830185611bcf565b6120cb602083018461209a565b9392505050565b600067ffffffffffffffff8211156120ed576120ec611e11565b5b602082029050602081019050919050565b600080fd5b60008151905061211281611dca565b92915050565b600061212b612126846120d2565b611e71565b9050808382526020820190506020840283018581111561214e5761214d6120fe565b5b835b8181101561217757806121638882612103565b845260208401935050602081019050612150565b5050509392505050565b600082601f83011261219657612195611df6565b5b81516121a6848260208601612118565b91505092915050565b600080604083850312156121c6576121c5611b16565b5b600083015167ffffffffffffffff8111156121e4576121e3611b1b565b5b6121f085828601612181565b925050602061220185828601612103565b9150509250929050565b7f4e487b7100000000000000000000000000000000000000000000000000000000600052603260045260246000fd5b6000602082840312156122505761224f611b16565b5b600061225e84828501612103565b91505092915050565b7f4e487b7100000000000000000000000000000000000000000000000000000000600052601160045260246000fd5b60006122a182611c62565b91507fffffffffffffffffffffffffffffffffffffffffffffffffffffffffffffffff82036122d3576122d2612267565b5b600182019050919050565b60006122e982611c62565b91506122f483611c62565b925082820390508181111561230c5761230b612267565b5b92915050565b600080fd5b600080fd5b600080858511156123305761232f612312565b5b8386111561234157612340612317565b5b6001850283019150848603905094509492505050565b600082905092915050565b60007fffffffffffffffffffffffffffffffffffffffff00000000000000000000000082169050919050565b600082821b905092915050565b60006123a78383612357565b826123b28135612362565b925060148210156123f2576123ed7fffffffffffffffffffffffffffffffffffffffff0000000000000000000000008360140360080261238e565b831692505b505092915050565b600082825260208201905092915050565b7f6163636f756e743a206e6f742066726f6d20656e747279706f696e7400000000600082015250565b6000612441601c836123fa565b915061244c8261240b565b602082019050919050565b6000602082019050818103600083015261247081612434565b9050919050565b600080fd5b600080fd5b600080fd5b600080833560016020038436030381126124a3576124a2612477565b5b80840192508235915067ffffffffffffffff8211156124c5576124c461247c565b5b6020830192506001820236038313156124e1576124e0612481565b5b509250929050565b7f6163636f756e743a206f6e6c79207468726573686f6c64203100000000000000600082015250565b600061251f6019836123fa565b915061252a826124e9565b602082019050919050565b6000602082019050818103600083015261254e81612512565b9050919050565b60008115159050919050565b61256a81612555565b811461257557600080fd5b50565b60008151905061258781612561565b92915050565b6000602082840312156125a3576125a2611b16565b5b60006125b184828501612578565b91505092915050565b7f6163636f756e743a206e6f6e73657175656e7469616c206e6f6e636500000000600082015250565b60006125f0601c836123fa565b91506125fb826125ba565b602082019050919050565b6000602082019050818103600083015261261f816125e3565b9050919050565b600081905092915050565b50565b6000612641600083612626565b915061264c82612631565b600082019050919050565b600061266282612634565b9150819050919050565b6000819050919050565b600077ffffffffffffffffffffffffffffffffffffffffffffffff82169050919050565b60006126b56126b06126ab8461266c565b61206e565b612676565b9050919050565b6126c58161269a565b82525050565b60006040820190506126e06000830185611bcf565b6126ed60208301846126bc565b9392505050565b60008151905061270381611c6c565b92915050565b60006020828403121561271f5761271e611b16565b5b600061272d848285016126f4565b91505092915050565b600081519050919050565b600082825260208201905092915050565b6000819050602082019050919050565b61276b81611bbd565b82525050565b61277a81611c62565b82525050565b600081519050919050565b600082825260208201905092915050565b60005b838110156127ba57808201518184015260208101905061279f565b60008484015250505050565b60006127d182612780565b6127db818561278b565b93506127eb81856020860161279c565b6127f481611e00565b840191505092915050565b6000610160830160008301516128186000860182612762565b50602083015161282b6020860182612771565b506040830151848203604086015261284382826127c6565b9150506060830151848203606086015261285d82826127c6565b91505060808301516128726080860182612771565b5060a083015161288560a0860182612771565b5060c083015161289860c0860182612771565b5060e08301516128ab60e0860182612771565b506101008301516128c0610100860182612771565b506101208301518482036101208601526128da82826127c6565b9150506101408301518482036101408601526128f682826127c6565b9150508091505092915050565b600061290f83836127ff565b905092915050565b6000602082019050919050565b600061292f82612736565b6129398185612741565b93508360208202850161294b85612752565b8060005b8581101561298757848403895281516129688582612903565b945061297383612917565b925060208a0199505060018101905061294f565b50829750879550505050505092915050565b6129a281611b40565b82525050565b600060408201905081810360008301526129c28185612924565b90506129d16020830184612999565b9392505050565b600060ff82169050919050565b6000612a006129fb6129f68461266c565b61206e565b6129d8565b9050919050565b612a10816129e5565b82525050565b7f41413234207369676e6174757265206572726f72000000000000000000000000600082015250565b6000612a4c6014836123fa565b9150612a5782612a16565b602082019050919050565b6000604082019050612a776000830184612a07565b8181036020830152612a8881612a3f565b905092915050565b600081519050919050565b6000612aa682612a90565b612ab081856123fa565b9350612ac081856020860161279c565b612ac981611e00565b840191505092915050565b60006020820190508181036000830152612aee8184612a9b565b905092915050565b7f76616c6964617465456970343333373a2068616e646c654f7073206d7573742060008201527f6661696c00000000000000000000000000000000000000000000000000000000602082015250565b6000612b526024836123fa565b9150612b5d82612af6565b604082019050919050565b60006020820190508181036000830152612b8181612b45565b9050919050565b7f6163636f756e743a206e6f742066726f6d204549503433333746616c6c62616360008201527f6b00000000000000000000000000000000000000000000000000000000000000602082015250565b6000612be46021836123fa565b9150612bef82612b88565b604082019050919050565b60006020820190508181036000830152612c1381612bd7565b9050919050565b600067ffffffffffffffff821115612c3557612c34611e11565b5b612c3e82611e00565b9050602081019050919050565b6000612c5e612c5984612c1a565b611e71565b905082815260208101848484011115612c7a57612c79611dfb565b5b612c8584828561279c565b509392505050565b600082601f830112612ca257612ca1611df6565b5b8151612cb2848260208601612c4b565b91505092915050565b600060208284031215612cd157612cd0611b16565b5b600082015167ffffffffffffffff811115612cef57612cee611b1b565b5b612cfb84828501612c8d565b91505092915050565b7f7365747570343333374d6f64756c65733a20656e747279706f696e7420616c7260008201527f6561647920656e61626c65640000000000000000000000000000000000000000602082015250565b6000612d60602c836123fa565b9150612d6b82612d04565b604082019050919050565b60006020820190508181036000830152612d8f81612d53565b9050919050565b7f7365747570343333374d6f64756c65733a206569703433333746616c6c62616360008201527f6b20616c726561647920656e61626c6564000000000000000000000000000000602082015250565b6000612df26031836123fa565b9150612dfd82612d96565b604082019050919050565b60006020820190508181036000830152612e2181612de5565b9050919050565b7f7265706c616365454950343333374d616e616765723a206f6c644d616e61676560008201527f72206973206e6f74206163746976650000000000000000000000000000000000602082015250565b6000612e84602f836123fa565b9150612e8f82612e28565b604082019050919050565b60006020820190508181036000830152612eb381612e77565b9050919050565b600081905092915050565b7f19457468657265756d205369676e6564204d6573736167653a0a333200000000600082015250565b6000612efb601c83612eba565b9150612f0682612ec5565b601c82019050919050565b6000819050919050565b612f2c612f2782611c2c565b612f11565b82525050565b6000612f3d82612eee565b9150612f498284612f1b565b60208201915081905092915050565b7f4e487b7100000000000000000000000000000000000000000000000000000000600052602160045260246000fd5b7f45434453413a20696e76616c6964207369676e61747572650000000000000000600082015250565b6000612fbd6018836123fa565b9150612fc882612f87565b602082019050919050565b60006020820190508181036000830152612fec81612fb0565b9050919050565b7f45434453413a20696e76616c6964207369676e6174757265206c656e67746800600082015250565b6000613029601f836123fa565b915061303482612ff3565b602082019050919050565b600060208201905081810360008301526130588161301c565b9050919050565b7f45434453413a20696e76616c6964207369676e6174757265202773272076616c60008201527f7565000000000000000000000000000000000000000000000000000000000000602082015250565b60006130bb6022836123fa565b91506130c68261305f565b604082019050919050565b600060208201905081810360008301526130ea816130ae565b9050919050565b6130fa81611c2c565b82525050565b613109816129d8565b82525050565b600060808201905061312460008301876130f1565b6131316020830186613100565b61313e60408301856130f1565b61314b60608301846130f1565b9594505050505056fea26469706673582212202e383dec2679a81cfd3f9b69d68e8cff637673204776d54d47421fe497f4d4f664736f6c6343000811003360a06040523480156200001157600080fd5b506040516200193b3803806200193b8339818101604052810190620000379190620000dc565b8073ffffffffffffffffffffffffffffffffffffffff1660808173ffffffffffffffffffffffffffffffffffffffff1681525050506200010e565b600080fd5b600073ffffffffffffffffffffffffffffffffffffffff82169050919050565b6000620000a48262000077565b9050919050565b620000b68162000097565b8114620000c257600080fd5b50565b600081519050620000d681620000ab565b92915050565b600060208284031215620000f557620000f462000072565b5b60006200010584828501620000c5565b91505092915050565b60805161180a62000131600039600081816104b20152610654015261180a6000f3fe608060405234801561001057600080fd5b50600436106100b35760003560e01c8063940d3c6011610071578063940d3c60146101b2578063a3f4df7e146101ce578063bc197c81146101ec578063d087d2881461021c578063f23a6e611461023a578063ffa1ad741461026a576100b3565b806223de29146100b857806301ffc9a7146100d4578063150b7a02146101045780631626ba7e146101345780632bcadc24146101645780633a871cdd14610182575b600080fd5b6100d260048036038101906100cd9190610aa1565b610288565b005b6100ee60048036038101906100e99190610bc8565b610292565b6040516100fb9190610c10565b60405180910390f35b61011e60048036038101906101199190610c2b565b6103cc565b60405161012b9190610cc2565b60405180910390f35b61014e60048036038101906101499190610e54565b6103e1565b60405161015b9190610cc2565b60405180910390f35b61016c6104b0565b6040516101799190610ebf565b60405180910390f35b61019c60048036038101906101979190610eff565b6104d4565b6040516101a99190610f7d565b60405180910390f35b6101cc60048036038101906101c79190610fbd565b6104ff565b005b6101d661050e565b6040516101e391906110bf565b60405180910390f35b61020660048036038101906102019190611137565b610547565b6040516102139190610cc2565b60405180910390f35b61022461055f565b6040516102319190610f7d565b60405180910390f35b610254600480360381019061024f9190611213565b610586565b6040516102619190610cc2565b60405180910390f35b61027261059c565b60405161027f91906110bf565b60405180910390f35b5050505050505050565b60007f4e2312e0000000000000000000000000000000000000000000000000000000007bffffffffffffffffffffffffffffffffffffffffffffffffffffffff1916827bffffffffffffffffffffffffffffffffffffffffffffffffffffffff1916148061035d57507f150b7a02000000000000000000000000000000000000000000000000000000007bffffffffffffffffffffffffffffffffffffffffffffffffffffffff1916827bffffffffffffffffffffffffffffffffffffffffffffffffffffffff1916145b806103c557507f01ffc9a7000000000000000000000000000000000000000000000000000000007bffffffffffffffffffffffffffffffffffffffffffffffffffffffff1916827bffffffffffffffffffffffffffffffffffffffffffffffffffffffff1916145b9050919050565b600063150b7a0260e01b905095945050505050565b6000806103ed846105d5565b90506000610404848361060590919063ffffffff16565b905060003390508073ffffffffffffffffffffffffffffffffffffffff16632f54bf6e836040518263ffffffff1660e01b81526004016104449190610ebf565b602060405180830381865afa158015610461573d6000803e3d6000fd5b505050506040513d601f19601f8201168201806040525081019061048591906112d9565b1561049c57631626ba7e60e01b93505050506104aa565b63ffffffff60e01b93505050505b92915050565b7f000000000000000000000000000000000000000000000000000000000000000081565b6000806104df61062c565b9050808060200190518101906104f5919061131b565b9150509392505050565b61050761062c565b5050505050565b6040518060400160405280601881526020017f44656661756c742043616c6c6261636b2048616e646c6572000000000000000081525081565b600063bc197c8160e01b905098975050505050505050565b60008061056a61062c565b905080806020019051810190610580919061131b565b91505090565b600063f23a6e6160e01b90509695505050505050565b6040518060400160405280600581526020017f312e302e3000000000000000000000000000000000000000000000000000000081525081565b6000816040516020016105e891906113c0565b604051602081830303815290604052805190602001209050919050565b600080600061061485856106fb565b915091506106218161074c565b819250505092915050565b606060003390506000808273ffffffffffffffffffffffffffffffffffffffff16635229073f7f00000000000000000000000000000000000000000000000000000000000000006000803660016040518663ffffffff1660e01b81526004016106999594939291906114e0565b6000604051808303816000875af11580156106b8573d6000803e3d6000fd5b505050506040513d6000823e3d601f19601f820116820180604052508101906106e1919061159e565b91509150816106f257805160208201fd5b80935050505090565b600080604183510361073c5760008060006020860151925060408601519150606086015160001a9050610730878285856108b2565b94509450505050610745565b60006002915091505b9250929050565b600060048111156107605761075f611469565b5b81600481111561077357610772611469565b5b03156108af576001600481111561078d5761078c611469565b5b8160048111156107a05761079f611469565b5b036107e0576040517f08c379a00000000000000000000000000000000000000000000000000000000081526004016107d790611646565b60405180910390fd5b600260048111156107f4576107f3611469565b5b81600481111561080757610806611469565b5b03610847576040517f08c379a000000000000000000000000000000000000000000000000000000000815260040161083e906116b2565b60405180910390fd5b6003600481111561085b5761085a611469565b5b81600481111561086e5761086d611469565b5b036108ae576040517f08c379a00000000000000000000000000000000000000000000000000000000081526004016108a590611744565b60405180910390fd5b5b50565b6000807f7fffffffffffffffffffffffffffffff5d576e7357a4501ddfe92f46681b20a08360001c11156108ed57600060039150915061098b565b600060018787878760405160008152602001604052604051610912949392919061178f565b6020604051602081039080840390855afa158015610934573d6000803e3d6000fd5b505050602060405103519050600073ffffffffffffffffffffffffffffffffffffffff168173ffffffffffffffffffffffffffffffffffffffff16036109825760006001925092505061098b565b80600092509250505b94509492505050565b6000604051905090565b600080fd5b600080fd5b600073ffffffffffffffffffffffffffffffffffffffff82169050919050565b60006109d3826109a8565b9050919050565b6109e3816109c8565b81146109ee57600080fd5b50565b600081359050610a00816109da565b92915050565b6000819050919050565b610a1981610a06565b8114610a2457600080fd5b50565b600081359050610a3681610a10565b92915050565b600080fd5b600080fd5b600080fd5b60008083601f840112610a6157610a60610a3c565b5b8235905067ffffffffffffffff811115610a7e57610a7d610a41565b5b602083019150836001820283011115610a9a57610a99610a46565b5b9250929050565b60008060008060008060008060c0898b031215610ac157610ac061099e565b5b6000610acf8b828c016109f1565b9850506020610ae08b828c016109f1565b9750506040610af18b828c016109f1565b9650506060610b028b828c01610a27565b955050608089013567ffffffffffffffff811115610b2357610b226109a3565b5b610b2f8b828c01610a4b565b945094505060a089013567ffffffffffffffff811115610b5257610b516109a3565b5b610b5e8b828c01610a4b565b92509250509295985092959890939650565b60007fffffffff0000000000000000000000000000000000000000000000000000000082169050919050565b610ba581610b70565b8114610bb057600080fd5b50565b600081359050610bc281610b9c565b92915050565b600060208284031215610bde57610bdd61099e565b5b6000610bec84828501610bb3565b91505092915050565b60008115159050919050565b610c0a81610bf5565b82525050565b6000602082019050610c256000830184610c01565b92915050565b600080600080600060808688031215610c4757610c4661099e565b5b6000610c55888289016109f1565b9550506020610c66888289016109f1565b9450506040610c7788828901610a27565b935050606086013567ffffffffffffffff811115610c9857610c976109a3565b5b610ca488828901610a4b565b92509250509295509295909350565b610cbc81610b70565b82525050565b6000602082019050610cd76000830184610cb3565b92915050565b6000819050919050565b610cf081610cdd565b8114610cfb57600080fd5b50565b600081359050610d0d81610ce7565b92915050565b600080fd5b6000601f19601f8301169050919050565b7f4e487b7100000000000000000000000000000000000000000000000000000000600052604160045260246000fd5b610d6182610d18565b810181811067ffffffffffffffff82111715610d8057610d7f610d29565b5b80604052505050565b6000610d93610994565b9050610d9f8282610d58565b919050565b600067ffffffffffffffff821115610dbf57610dbe610d29565b5b610dc882610d18565b9050602081019050919050565b82818337600083830152505050565b6000610df7610df284610da4565b610d89565b905082815260208101848484011115610e1357610e12610d13565b5b610e1e848285610dd5565b509392505050565b600082601f830112610e3b57610e3a610a3c565b5b8135610e4b848260208601610de4565b91505092915050565b60008060408385031215610e6b57610e6a61099e565b5b6000610e7985828601610cfe565b925050602083013567ffffffffffffffff811115610e9a57610e996109a3565b5b610ea685828601610e26565b9150509250929050565b610eb9816109c8565b82525050565b6000602082019050610ed46000830184610eb0565b92915050565b600080fd5b60006101608284031215610ef657610ef5610eda565b5b81905092915050565b600080600060608486031215610f1857610f1761099e565b5b600084013567ffffffffffffffff811115610f3657610f356109a3565b5b610f4286828701610edf565b9350506020610f5386828701610cfe565b9250506040610f6486828701610a27565b9150509250925092565b610f7781610a06565b82525050565b6000602082019050610f926000830184610f6e565b92915050565b60028110610fa557600080fd5b50565b600081359050610fb781610f98565b92915050565b60008060008060808587031215610fd757610fd661099e565b5b6000610fe5878288016109f1565b9450506020610ff687828801610a27565b935050604085013567ffffffffffffffff811115611017576110166109a3565b5b61102387828801610e26565b925050606061103487828801610fa8565b91505092959194509250565b600081519050919050565b600082825260208201905092915050565b60005b8381101561107a57808201518184015260208101905061105f565b60008484015250505050565b600061109182611040565b61109b818561104b565b93506110ab81856020860161105c565b6110b481610d18565b840191505092915050565b600060208201905081810360008301526110d98184611086565b905092915050565b60008083601f8401126110f7576110f6610a3c565b5b8235905067ffffffffffffffff81111561111457611113610a41565b5b6020830191508360208202830111156111305761112f610a46565b5b9250929050565b60008060008060008060008060a0898b0312156111575761115661099e565b5b60006111658b828c016109f1565b98505060206111768b828c016109f1565b975050604089013567ffffffffffffffff811115611197576111966109a3565b5b6111a38b828c016110e1565b9650965050606089013567ffffffffffffffff8111156111c6576111c56109a3565b5b6111d28b828c016110e1565b9450945050608089013567ffffffffffffffff8111156111f5576111f46109a3565b5b6112018b828c01610a4b565b92509250509295985092959890939650565b60008060008060008060a087890312156112305761122f61099e565b5b600061123e89828a016109f1565b965050602061124f89828a016109f1565b955050604061126089828a01610a27565b945050606061127189828a01610a27565b935050608087013567ffffffffffffffff811115611292576112916109a3565b5b61129e89828a01610a4b565b92509250509295509295509295565b6112b681610bf5565b81146112c157600080fd5b50565b6000815190506112d3816112ad565b92915050565b6000602082840312156112ef576112ee61099e565b5b60006112fd848285016112c4565b91505092915050565b60008151905061131581610a10565b92915050565b6000602082840312156113315761133061099e565b5b600061133f84828501611306565b91505092915050565b600081905092915050565b7f19457468657265756d205369676e6564204d6573736167653a0a333200000000600082015250565b6000611389601c83611348565b915061139482611353565b601c82019050919050565b6000819050919050565b6113ba6113b582610cdd565b61139f565b82525050565b60006113cb8261137c565b91506113d782846113a9565b60208201915081905092915050565b6000819050919050565b6000819050919050565b600061141561141061140b846113e6565b6113f0565b610a06565b9050919050565b611425816113fa565b82525050565b600082825260208201905092915050565b6000611448838561142b565b9350611455838584610dd5565b61145e83610d18565b840190509392505050565b7f4e487b7100000000000000000000000000000000000000000000000000000000600052602160045260246000fd5b600281106114a9576114a8611469565b5b50565b60008190506114ba82611498565b919050565b60006114ca826114ac565b9050919050565b6114da816114bf565b82525050565b60006080820190506114f56000830188610eb0565b611502602083018761141c565b818103604083015261151581858761143c565b905061152460608301846114d1565b9695505050505050565b600061154161153c84610da4565b610d89565b90508281526020810184848401111561155d5761155c610d13565b5b61156884828561105c565b509392505050565b600082601f83011261158557611584610a3c565b5b815161159584826020860161152e565b91505092915050565b600080604083850312156115b5576115b461099e565b5b60006115c3858286016112c4565b925050602083015167ffffffffffffffff8111156115e4576115e36109a3565b5b6115f085828601611570565b9150509250929050565b7f45434453413a20696e76616c6964207369676e61747572650000000000000000600082015250565b600061163060188361104b565b915061163b826115fa565b602082019050919050565b6000602082019050818103600083015261165f81611623565b9050919050565b7f45434453413a20696e76616c6964207369676e6174757265206c656e67746800600082015250565b600061169c601f8361104b565b91506116a782611666565b602082019050919050565b600060208201905081810360008301526116cb8161168f565b9050919050565b7f45434453413a20696e76616c6964207369676e6174757265202773272076616c60008201527f7565000000000000000000000000000000000000000000000000000000000000602082015250565b600061172e60228361104b565b9150611739826116d2565b604082019050919050565b6000602082019050818103600083015261175d81611721565b9050919050565b61176d81610cdd565b82525050565b600060ff82169050919050565b61178981611773565b82525050565b60006080820190506117a46000830187611764565b6117b16020830186611780565b6117be6040830185611764565b6117cb6060830184611764565b9594505050505056fea2646970667358221220d1a17633f156ff8987ef3f94c21f7b7263bd50b219f3c4c427e7dd776727d3ea64736f6c63430008110033",
  "linkReferences": {},
  "deployedLinkReferences": {}
}